{
  "address": "0x0a6d2D54054cFdbd792B13E10110B38bA52A3b3e",
  "abi": [
    {
      "inputs": [
        {
          "internalType": "address payable",
          "name": "depositAddress",
          "type": "address"
        }
      ],
      "stateMutability": "nonpayable",
      "type": "constructor"
    },
    {
      "inputs": [],
      "name": "Balance_SAGIsNotEnough",
      "type": "error"
    },
    {
      "anonymous": false,
      "inputs": [
        {
          "indexed": true,
          "internalType": "address",
          "name": "_owner",
          "type": "address"
        },
        {
          "indexed": true,
          "internalType": "address",
          "name": "_spender",
          "type": "address"
        },
        {
          "indexed": false,
          "internalType": "uint256",
          "name": "_value",
          "type": "uint256"
        }
      ],
      "name": "Approval",
      "type": "event"
    },
    {
      "anonymous": false,
      "inputs": [
        {
          "indexed": true,
          "internalType": "uint256",
          "name": "amount",
          "type": "uint256"
        },
        {
          "indexed": true,
          "internalType": "address",
          "name": "sender",
          "type": "address"
        },
        {
          "indexed": true,
          "internalType": "uint256",
          "name": "tokens",
          "type": "uint256"
        }
      ],
      "name": "ICOInvest",
      "type": "event"
    },
    {
      "anonymous": false,
      "inputs": [
        {
          "indexed": true,
          "internalType": "address",
          "name": "_from",
          "type": "address"
        },
        {
          "indexed": true,
          "internalType": "address",
          "name": "_to",
          "type": "address"
        },
        {
          "indexed": false,
          "internalType": "uint256",
          "name": "_value",
          "type": "uint256"
        }
      ],
      "name": "Transfer",
      "type": "event"
    },
    {
      "anonymous": false,
      "inputs": [
        {
          "indexed": true,
          "internalType": "uint256",
          "name": "amount",
          "type": "uint256"
        }
      ],
      "name": "ethAmount",
      "type": "event"
    },
    {
      "anonymous": false,
      "inputs": [
        {
          "indexed": true,
          "internalType": "uint256",
          "name": "tokens",
          "type": "uint256"
        }
      ],
      "name": "tokenAmount",
      "type": "event"
    },
    {
      "inputs": [],
      "name": "_founder",
      "outputs": [
        {
          "internalType": "address",
          "name": "",
          "type": "address"
        }
      ],
      "stateMutability": "view",
      "type": "function"
    },
    {
      "inputs": [
        {
          "internalType": "address payable",
          "name": "adminAddress",
          "type": "address"
        }
      ],
      "name": "addpaymentAddress",
      "outputs": [],
      "stateMutability": "nonpayable",
      "type": "function"
    },
    {
      "inputs": [
        {
          "internalType": "address",
          "name": "owner",
          "type": "address"
        },
        {
          "internalType": "address",
          "name": "spender",
          "type": "address"
        }
      ],
      "name": "allowance",
      "outputs": [
        {
          "internalType": "uint256",
          "name": "remaining",
          "type": "uint256"
        }
      ],
      "stateMutability": "view",
      "type": "function"
    },
    {
      "inputs": [
        {
          "internalType": "address",
          "name": "spender",
          "type": "address"
        },
        {
          "internalType": "uint256",
          "name": "tokens",
          "type": "uint256"
        }
      ],
      "name": "approve",
      "outputs": [
        {
          "internalType": "bool",
          "name": "success",
          "type": "bool"
        }
      ],
      "stateMutability": "nonpayable",
      "type": "function"
    },
    {
      "inputs": [
        {
          "internalType": "address",
          "name": "tokenOwner",
          "type": "address"
        }
      ],
      "name": "balanceOf",
      "outputs": [
        {
          "internalType": "uint256",
          "name": "balance",
          "type": "uint256"
        }
      ],
      "stateMutability": "view",
      "type": "function"
    },
    {
      "inputs": [
        {
          "internalType": "address",
          "name": "",
          "type": "address"
        }
      ],
      "name": "balances",
      "outputs": [
        {
          "internalType": "uint256",
          "name": "",
          "type": "uint256"
        }
      ],
      "stateMutability": "view",
      "type": "function"
    },
    {
      "inputs": [],
      "name": "decimals",
      "outputs": [
        {
          "internalType": "uint256",
          "name": "",
          "type": "uint256"
        }
      ],
      "stateMutability": "view",
      "type": "function"
    },
    {
      "inputs": [],
      "name": "endICO",
      "outputs": [],
      "stateMutability": "nonpayable",
      "type": "function"
    },
    {
      "inputs": [],
      "name": "getEthAmount",
      "outputs": [
        {
          "internalType": "uint256",
          "name": "",
          "type": "uint256"
        }
      ],
      "stateMutability": "view",
      "type": "function"
    },
    {
      "inputs": [],
      "name": "getadminAddress",
      "outputs": [
        {
          "internalType": "address",
          "name": "",
          "type": "address"
        }
      ],
      "stateMutability": "view",
      "type": "function"
    },
    {
      "inputs": [],
      "name": "gethardcap",
      "outputs": [
        {
          "internalType": "uint256",
          "name": "",
          "type": "uint256"
        }
      ],
      "stateMutability": "view",
      "type": "function"
    },
    {
      "inputs": [],
      "name": "geticostate",
      "outputs": [
        {
          "internalType": "enum SageIco.IcoState",
          "name": "",
          "type": "uint8"
        }
      ],
      "stateMutability": "view",
      "type": "function"
    },
    {
      "inputs": [],
      "name": "getmaximumAmount",
      "outputs": [
        {
          "internalType": "uint256",
          "name": "",
          "type": "uint256"
        }
      ],
      "stateMutability": "view",
      "type": "function"
    },
    {
      "inputs": [],
      "name": "getowner",
      "outputs": [
        {
          "internalType": "address",
          "name": "",
          "type": "address"
        }
      ],
      "stateMutability": "view",
      "type": "function"
    },
    {
      "inputs": [],
      "name": "gettokenAmount",
      "outputs": [
        {
          "internalType": "uint256",
          "name": "",
          "type": "uint256"
        }
      ],
      "stateMutability": "view",
      "type": "function"
    },
    {
      "inputs": [],
      "name": "haltICO",
      "outputs": [],
      "stateMutability": "nonpayable",
      "type": "function"
    },
    {
      "inputs": [],
      "name": "icoCurrentState",
      "outputs": [
        {
          "internalType": "enum SageIco.IcoState",
          "name": "",
          "type": "uint8"
        }
      ],
      "stateMutability": "view",
      "type": "function"
    },
    {
      "inputs": [
        {
          "internalType": "uint256",
          "name": "amount",
          "type": "uint256"
        }
      ],
      "name": "invest",
      "outputs": [
        {
          "internalType": "bool",
          "name": "",
          "type": "bool"
        }
      ],
      "stateMutability": "payable",
      "type": "function"
    },
    {
      "inputs": [],
      "name": "name",
      "outputs": [
        {
          "internalType": "string",
          "name": "",
          "type": "string"
        }
      ],
      "stateMutability": "view",
      "type": "function"
    },
    {
      "inputs": [],
      "name": "resumeICO",
      "outputs": [],
      "stateMutability": "nonpayable",
      "type": "function"
    },
    {
      "inputs": [],
      "name": "symbol",
      "outputs": [
        {
          "internalType": "string",
          "name": "",
          "type": "string"
        }
      ],
      "stateMutability": "view",
      "type": "function"
    },
    {
      "inputs": [],
      "name": "totalSupply",
      "outputs": [
        {
          "internalType": "uint256",
          "name": "",
          "type": "uint256"
        }
      ],
      "stateMutability": "view",
      "type": "function"
    },
    {
      "inputs": [
        {
          "internalType": "address",
          "name": "to",
          "type": "address"
        },
        {
          "internalType": "uint256",
          "name": "tokens",
          "type": "uint256"
        }
      ],
      "name": "transfer",
      "outputs": [
        {
          "internalType": "bool",
          "name": "success",
          "type": "bool"
        }
      ],
      "stateMutability": "nonpayable",
      "type": "function"
    },
    {
      "inputs": [
        {
          "internalType": "address",
          "name": "from",
          "type": "address"
        },
        {
          "internalType": "address",
          "name": "to",
          "type": "address"
        },
        {
          "internalType": "uint256",
          "name": "tokens",
          "type": "uint256"
        }
      ],
      "name": "transferFrom",
      "outputs": [
        {
          "internalType": "bool",
          "name": "success",
          "type": "bool"
        }
      ],
      "stateMutability": "nonpayable",
      "type": "function"
    }
  ],
  "transactionHash": "0x16f542d7edf4ad1eb3669c4d3aef058a62809f62a1f0ef17166460e1ad88e347",
  "args": [
    "0xc2CC1aA7cBF1CDE3E3ee9ab0C21F312913C6B65E"
  ],
  "numDeployments": 1,
  "solcInputHash": "2e869cb137d712f55bb4d1bb14997f80",
  "bytecode": "0x60806040523480156200001157600080fd5b50604051620020f1380380620020f18339818101604052810190620000379190620003d3565b33600460006101000a81548173ffffffffffffffffffffffffffffffffffffffff021916908373ffffffffffffffffffffffffffffffffffffffff1602179055506040518060400160405280600881526020017f53414745434f494e00000000000000000000000000000000000000000000000081525060009080519060200190620000c5929190620002b9565b506040518060400160405280600381526020017f53414700000000000000000000000000000000000000000000000000000000008152506001908051906020019062000113929190620002b9565b50600a60028190555064174876e80060038190555060035460056000600460009054906101000a900473ffffffffffffffffffffffffffffffffffffffff1673ffffffffffffffffffffffffffffffffffffffff1673ffffffffffffffffffffffffffffffffffffffff16815260200190815260200160002081905550662386f26fc10000600a819055506000600f81905550680ad78ebc5ac6200000600b81905550670de0b6b3a7640000600d819055506753444835ec580000600e819055506000600860006101000a81548160ff02191690836003811115620001fd57620001fc62000405565b5b021790555062015180426200021391906200046d565b60108190555062093a80426200022a91906200046d565b60118190555033601360006101000a81548173ffffffffffffffffffffffffffffffffffffffff021916908373ffffffffffffffffffffffffffffffffffffffff16021790555080601460006101000a81548173ffffffffffffffffffffffffffffffffffffffff021916908373ffffffffffffffffffffffffffffffffffffffff160217905550506200052f565b828054620002c790620004f9565b90600052602060002090601f016020900481019282620002eb576000855562000337565b82601f106200030657805160ff191683800117855562000337565b8280016001018555821562000337579182015b828111156200033657825182559160200191906001019062000319565b5b5090506200034691906200034a565b5090565b5b80821115620003655760008160009055506001016200034b565b5090565b600080fd5b600073ffffffffffffffffffffffffffffffffffffffff82169050919050565b60006200039b826200036e565b9050919050565b620003ad816200038e565b8114620003b957600080fd5b50565b600081519050620003cd81620003a2565b92915050565b600060208284031215620003ec57620003eb62000369565b5b6000620003fc84828501620003bc565b91505092915050565b7f4e487b7100000000000000000000000000000000000000000000000000000000600052602160045260246000fd5b6000819050919050565b7f4e487b7100000000000000000000000000000000000000000000000000000000600052601160045260246000fd5b60006200047a8262000434565b9150620004878362000434565b9250827fffffffffffffffffffffffffffffffffffffffffffffffffffffffffffffffff03821115620004bf57620004be6200043e565b5b828201905092915050565b7f4e487b7100000000000000000000000000000000000000000000000000000000600052602260045260246000fd5b600060028204905060018216806200051257607f821691505b60208210811415620005295762000528620004ca565b5b50919050565b611bb2806200053f6000396000f3fe60806040526004361061014b5760003560e01c806366ed58db116100b65780639cbd7da51161006f5780639cbd7da514610479578063a9059cbb14610490578063c61a08c1146104cd578063ce9b070a146104f8578063dd62ed3e14610523578063fe0174bd146105605761014b565b806366ed58db146103655780636ccac50f1461039057806370a08231146103bb5780637d3cdd60146103f8578063889ed1081461042357806395d89b411461044e5761014b565b806318160ddd1161010857806318160ddd1461024e57806323b872dd1461027957806327e235e3146102b65780632afcf480146102f3578063313ce567146103235780634f2484091461034e5761014b565b806306fdde0314610150578063087d01df1461017b578063095ea7b3146101a657806309b637bc146101e35780630d6f13d41461020e578063129caa1814610237575b600080fd5b34801561015c57600080fd5b5061016561058b565b60405161017291906114bd565b60405180910390f35b34801561018757600080fd5b50610190610619565b60405161019d91906114f8565b60405180910390f35b3480156101b257600080fd5b506101cd60048036038101906101c891906115a2565b610623565b6040516101da91906115fd565b60405180910390f35b3480156101ef57600080fd5b506101f86107eb565b6040516102059190611627565b60405180910390f35b34801561021a57600080fd5b5061023560048036038101906102309190611680565b610811565b005b34801561024357600080fd5b5061024c6108af565b005b34801561025a57600080fd5b50610263610936565b60405161027091906114f8565b60405180910390f35b34801561028557600080fd5b506102a0600480360381019061029b91906116ad565b61093c565b6040516102ad91906115fd565b60405180910390f35b3480156102c257600080fd5b506102dd60048036038101906102d89190611700565b610bb1565b6040516102ea91906114f8565b60405180910390f35b61030d6004803603810190610308919061172d565b610bc9565b60405161031a91906115fd565b60405180910390f35b34801561032f57600080fd5b50610338610eee565b60405161034591906114f8565b60405180910390f35b34801561035a57600080fd5b50610363610ef4565b005b34801561037157600080fd5b5061037a610f7b565b60405161038791906117d1565b60405180910390f35b34801561039c57600080fd5b506103a5610ffe565b6040516103b291906114f8565b60405180910390f35b3480156103c757600080fd5b506103e260048036038101906103dd9190611700565b611008565b6040516103ef91906114f8565b60405180910390f35b34801561040457600080fd5b5061040d611051565b60405161041a9190611627565b60405180910390f35b34801561042f57600080fd5b5061043861107b565b60405161044591906117d1565b60405180910390f35b34801561045a57600080fd5b50610463611092565b60405161047091906114bd565b60405180910390f35b34801561048557600080fd5b5061048e611120565b005b34801561049c57600080fd5b506104b760048036038101906104b291906115a2565b6111a7565b6040516104c491906115fd565b60405180910390f35b3480156104d957600080fd5b506104e261135f565b6040516104ef91906114f8565b60405180910390f35b34801561050457600080fd5b5061050d611369565b60405161051a91906114f8565b60405180910390f35b34801561052f57600080fd5b5061054a600480360381019061054591906117ec565b611373565b60405161055791906114f8565b60405180910390f35b34801561056c57600080fd5b506105756113fa565b6040516105829190611627565b60405180910390f35b600080546105989061185b565b80601f01602080910402602001604051908101604052809291908181526020018280546105c49061185b565b80156106115780601f106105e657610100808354040283529160200191610611565b820191906000526020600020905b8154815290600101906020018083116105f457829003601f168201915b505050505081565b6000600a54905090565b600081600560003373ffffffffffffffffffffffffffffffffffffffff1673ffffffffffffffffffffffffffffffffffffffff168152602001908152602001600020541080156106b257506000600560003373ffffffffffffffffffffffffffffffffffffffff1673ffffffffffffffffffffffffffffffffffffffff16815260200190815260200160002054145b156106e9576040517fe139b34700000000000000000000000000000000000000000000000000000000815260040160405180910390fd5b81600660003373ffffffffffffffffffffffffffffffffffffffff1673ffffffffffffffffffffffffffffffffffffffff16815260200190815260200160002060008573ffffffffffffffffffffffffffffffffffffffff1673ffffffffffffffffffffffffffffffffffffffff168152602001908152602001600020600082825461077591906118bc565b925050819055508273ffffffffffffffffffffffffffffffffffffffff163373ffffffffffffffffffffffffffffffffffffffff167f8c5be1e5ebec7d5bd14f71427d1e84f3dd0314c0f7b2291e5b200ac8c7c3b925846040516107d991906114f8565b60405180910390a36001905092915050565b600460009054906101000a900473ffffffffffffffffffffffffffffffffffffffff1681565b601360009054906101000a900473ffffffffffffffffffffffffffffffffffffffff1673ffffffffffffffffffffffffffffffffffffffff163373ffffffffffffffffffffffffffffffffffffffff161461086b57600080fd5b80601460006101000a81548173ffffffffffffffffffffffffffffffffffffffff021916908373ffffffffffffffffffffffffffffffffffffffff16021790555050565b601360009054906101000a900473ffffffffffffffffffffffffffffffffffffffff1673ffffffffffffffffffffffffffffffffffffffff163373ffffffffffffffffffffffffffffffffffffffff161461090957600080fd5b6002600860006101000a81548160ff0219169083600381111561092f5761092e61175a565b5b0217905550565b60035481565b600081600560003373ffffffffffffffffffffffffffffffffffffffff1673ffffffffffffffffffffffffffffffffffffffff168152602001908152602001600020541080156109cb57506000600560003373ffffffffffffffffffffffffffffffffffffffff1673ffffffffffffffffffffffffffffffffffffffff16815260200190815260200160002054145b15610a02576040517fe139b34700000000000000000000000000000000000000000000000000000000815260040160405180910390fd5b81600560008573ffffffffffffffffffffffffffffffffffffffff1673ffffffffffffffffffffffffffffffffffffffff1681526020019081526020016000206000828254610a5191906118bc565b9250508190555081600660008673ffffffffffffffffffffffffffffffffffffffff1673ffffffffffffffffffffffffffffffffffffffff16815260200190815260200160002060003373ffffffffffffffffffffffffffffffffffffffff1673ffffffffffffffffffffffffffffffffffffffff1681526020019081526020016000206000828254610ae49190611912565b9250508190555081600560008673ffffffffffffffffffffffffffffffffffffffff1673ffffffffffffffffffffffffffffffffffffffff1681526020019081526020016000206000828254610b3a9190611912565b925050819055508273ffffffffffffffffffffffffffffffffffffffff168473ffffffffffffffffffffffffffffffffffffffff167fddf252ad1be2c89b69c2b068fc378daa952ba7f163c4a11628f55a4df523b3ef84604051610b9e91906114f8565b60405180910390a3600190509392505050565b60056020528060005260406000206000915090505481565b6000600d54821015610c10576040517f08c379a0000000000000000000000000000000000000000000000000000000008152600401610c0790611992565b60405180910390fd5b60016003811115610c2457610c2361175a565b5b600860009054906101000a900460ff166003811115610c4657610c4561175a565b5b14610c86576040517f08c379a0000000000000000000000000000000000000000000000000000000008152600401610c7d90611a24565b60405180910390fd5b680ad78ebc5ac6200000600b5414610cd3576040517f08c379a0000000000000000000000000000000000000000000000000000000008152600401610cca90611a90565b60405180910390fd5b600e54600760003373ffffffffffffffffffffffffffffffffffffffff1673ffffffffffffffffffffffffffffffffffffffff1681526020019081526020016000205410610d56576040517f08c379a0000000000000000000000000000000000000000000000000000000008152600401610d4d90611afc565b60405180910390fd5b6000600a5483610d669190611b4b565b905080600560003373ffffffffffffffffffffffffffffffffffffffff1673ffffffffffffffffffffffffffffffffffffffff1681526020019081526020016000206000828254610db791906118bc565b925050819055508060056000600460009054906101000a900473ffffffffffffffffffffffffffffffffffffffff1673ffffffffffffffffffffffffffffffffffffffff1673ffffffffffffffffffffffffffffffffffffffff1681526020019081526020016000206000828254610e2f9190611912565b92505081905550601460009054906101000a900473ffffffffffffffffffffffffffffffffffffffff1673ffffffffffffffffffffffffffffffffffffffff166108fc849081150290604051600060405180830381858888f19350505050158015610e9e573d6000803e3d6000fd5b50803373ffffffffffffffffffffffffffffffffffffffff16847fd1073160728e0192749a41429c69755fa7485f2296197489aaab3ac4e0ad9a7c60405160405180910390a46001915050919050565b60025481565b601360009054906101000a900473ffffffffffffffffffffffffffffffffffffffff1673ffffffffffffffffffffffffffffffffffffffff163373ffffffffffffffffffffffffffffffffffffffff1614610f4e57600080fd5b6003600860006101000a81548160ff02191690836003811115610f7457610f7361175a565b5b0217905550565b6000601054421015610f905760009050610ffb565b6010544210158015610fa3575060115442105b15610fb15760019050610ffb565b60026003811115610fc557610fc461175a565b5b600860009054906101000a900460ff166003811115610fe757610fe661175a565b5b1415610ff65760029050610ffb565b600390505b90565b6000600c54905090565b6000600560008373ffffffffffffffffffffffffffffffffffffffff1673ffffffffffffffffffffffffffffffffffffffff168152602001908152602001600020549050919050565b6000601260009054906101000a900473ffffffffffffffffffffffffffffffffffffffff16905090565b6000600860009054906101000a900460ff16905090565b6001805461109f9061185b565b80601f01602080910402602001604051908101604052809291908181526020018280546110cb9061185b565b80156111185780601f106110ed57610100808354040283529160200191611118565b820191906000526020600020905b8154815290600101906020018083116110fb57829003601f168201915b505050505081565b601360009054906101000a900473ffffffffffffffffffffffffffffffffffffffff1673ffffffffffffffffffffffffffffffffffffffff163373ffffffffffffffffffffffffffffffffffffffff161461117a57600080fd5b6001600860006101000a81548160ff021916908360038111156111a05761119f61175a565b5b0217905550565b600081600560003373ffffffffffffffffffffffffffffffffffffffff1673ffffffffffffffffffffffffffffffffffffffff168152602001908152602001600020541015611222576040517fe139b34700000000000000000000000000000000000000000000000000000000815260040160405180910390fd5b81600560008573ffffffffffffffffffffffffffffffffffffffff1673ffffffffffffffffffffffffffffffffffffffff168152602001908152602001600020600082825461127191906118bc565b925050819055508160056000600460009054906101000a900473ffffffffffffffffffffffffffffffffffffffff1673ffffffffffffffffffffffffffffffffffffffff1673ffffffffffffffffffffffffffffffffffffffff16815260200190815260200160002060008282546112e99190611912565b925050819055508273ffffffffffffffffffffffffffffffffffffffff163373ffffffffffffffffffffffffffffffffffffffff167fddf252ad1be2c89b69c2b068fc378daa952ba7f163c4a11628f55a4df523b3ef8460405161134d91906114f8565b60405180910390a36001905092915050565b6000600b54905090565b6000600e54905090565b6000600660008473ffffffffffffffffffffffffffffffffffffffff1673ffffffffffffffffffffffffffffffffffffffff16815260200190815260200160002060008373ffffffffffffffffffffffffffffffffffffffff1673ffffffffffffffffffffffffffffffffffffffff16815260200190815260200160002054905092915050565b6000601360009054906101000a900473ffffffffffffffffffffffffffffffffffffffff16905090565b600081519050919050565b600082825260208201905092915050565b60005b8381101561145e578082015181840152602081019050611443565b8381111561146d576000848401525b50505050565b6000601f19601f8301169050919050565b600061148f82611424565b611499818561142f565b93506114a9818560208601611440565b6114b281611473565b840191505092915050565b600060208201905081810360008301526114d78184611484565b905092915050565b6000819050919050565b6114f2816114df565b82525050565b600060208201905061150d60008301846114e9565b92915050565b600080fd5b600073ffffffffffffffffffffffffffffffffffffffff82169050919050565b600061154382611518565b9050919050565b61155381611538565b811461155e57600080fd5b50565b6000813590506115708161154a565b92915050565b61157f816114df565b811461158a57600080fd5b50565b60008135905061159c81611576565b92915050565b600080604083850312156115b9576115b8611513565b5b60006115c785828601611561565b92505060206115d88582860161158d565b9150509250929050565b60008115159050919050565b6115f7816115e2565b82525050565b600060208201905061161260008301846115ee565b92915050565b61162181611538565b82525050565b600060208201905061163c6000830184611618565b92915050565b600061164d82611518565b9050919050565b61165d81611642565b811461166857600080fd5b50565b60008135905061167a81611654565b92915050565b60006020828403121561169657611695611513565b5b60006116a48482850161166b565b91505092915050565b6000806000606084860312156116c6576116c5611513565b5b60006116d486828701611561565b93505060206116e586828701611561565b92505060406116f68682870161158d565b9150509250925092565b60006020828403121561171657611715611513565b5b600061172484828501611561565b91505092915050565b60006020828403121561174357611742611513565b5b60006117518482850161158d565b91505092915050565b7f4e487b7100000000000000000000000000000000000000000000000000000000600052602160045260246000fd5b6004811061179a5761179961175a565b5b50565b60008190506117ab82611789565b919050565b60006117bb8261179d565b9050919050565b6117cb816117b0565b82525050565b60006020820190506117e660008301846117c2565b92915050565b6000806040838503121561180357611802611513565b5b600061181185828601611561565b925050602061182285828601611561565b9150509250929050565b7f4e487b7100000000000000000000000000000000000000000000000000000000600052602260045260246000fd5b6000600282049050600182168061187357607f821691505b602082108114156118875761188661182c565b5b50919050565b7f4e487b7100000000000000000000000000000000000000000000000000000000600052601160045260246000fd5b60006118c7826114df565b91506118d2836114df565b9250827fffffffffffffffffffffffffffffffffffffffffffffffffffffffffffffffff038211156119075761190661188d565b5b828201905092915050565b600061191d826114df565b9150611928836114df565b92508282101561193b5761193a61188d565b5b828203905092915050565b7f496e73756666696369656e7420416d6f756e7400000000000000000000000000600082015250565b600061197c60138361142f565b915061198782611946565b602082019050919050565b600060208201905081810360008301526119ab8161196f565b9050919050565b7f49434f20686173206e6f74207374617274212120436f6e746163742041646d6960008201527f6e00000000000000000000000000000000000000000000000000000000000000602082015250565b6000611a0e60218361142f565b9150611a19826119b2565b604082019050919050565b60006020820190508181036000830152611a3d81611a01565b9050919050565b7f49434f2068617320656e64656400000000000000000000000000000000000000600082015250565b6000611a7a600d8361142f565b9150611a8582611a44565b602082019050919050565b60006020820190508181036000830152611aa981611a6d565b9050919050565b7f457863656564204d6178696d756d20416d6f756e740000000000000000000000600082015250565b6000611ae660158361142f565b9150611af182611ab0565b602082019050919050565b60006020820190508181036000830152611b1581611ad9565b9050919050565b7f4e487b7100000000000000000000000000000000000000000000000000000000600052601260045260246000fd5b6000611b56826114df565b9150611b61836114df565b925082611b7157611b70611b1c565b5b82820490509291505056fea2646970667358221220a050ed503bf63259a419f3560cb75902046dda1e1c4b0c1ed2107326d4f5ed8f64736f6c63430008090033",
  "devdoc": {
    "kind": "dev",
    "methods": {},
    "version": 1
  },
  "userdoc": {
    "kind": "user",
    "methods": {},
    "version": 1
  },
  "storageLayout": {
    "storage": [
      {
        "astId": 74,
        "contract": "contracts/sageIco.sol:SageIco",
        "label": "name",
        "offset": 0,
        "slot": "0",
        "type": "t_string_storage"
      },
      {
        "astId": 76,
        "contract": "contracts/sageIco.sol:SageIco",
        "label": "symbol",
        "offset": 0,
        "slot": "1",
        "type": "t_string_storage"
      },
      {
        "astId": 78,
        "contract": "contracts/sageIco.sol:SageIco",
        "label": "decimals",
        "offset": 0,
        "slot": "2",
        "type": "t_uint256"
      },
      {
        "astId": 81,
        "contract": "contracts/sageIco.sol:SageIco",
        "label": "totalSupply",
        "offset": 0,
        "slot": "3",
        "type": "t_uint256"
      },
      {
        "astId": 83,
        "contract": "contracts/sageIco.sol:SageIco",
        "label": "_founder",
        "offset": 0,
        "slot": "4",
        "type": "t_address"
      },
      {
        "astId": 87,
        "contract": "contracts/sageIco.sol:SageIco",
        "label": "balances",
        "offset": 0,
        "slot": "5",
        "type": "t_mapping(t_address,t_uint256)"
      },
      {
        "astId": 93,
        "contract": "contracts/sageIco.sol:SageIco",
        "label": "allowed",
        "offset": 0,
        "slot": "6",
        "type": "t_mapping(t_address,t_mapping(t_address,t_uint256))"
      },
      {
        "astId": 316,
        "contract": "contracts/sageIco.sol:SageIco",
        "label": "s_userBalances",
        "offset": 0,
        "slot": "7",
        "type": "t_mapping(t_address,t_uint256)"
      },
      {
        "astId": 319,
        "contract": "contracts/sageIco.sol:SageIco",
        "label": "s_icostate",
        "offset": 0,
        "slot": "8",
        "type": "t_enum(IcoState)312"
      },
      {
        "astId": 322,
        "contract": "contracts/sageIco.sol:SageIco",
        "label": "s_accounts",
        "offset": 0,
        "slot": "9",
        "type": "t_array(t_address)dyn_storage"
      },
      {
        "astId": 324,
        "contract": "contracts/sageIco.sol:SageIco",
        "label": "i_ethAmount",
        "offset": 0,
        "slot": "10",
        "type": "t_uint256"
      },
      {
        "astId": 326,
        "contract": "contracts/sageIco.sol:SageIco",
        "label": "i_hardcap",
        "offset": 0,
        "slot": "11",
        "type": "t_uint256"
      },
      {
        "astId": 328,
        "contract": "contracts/sageIco.sol:SageIco",
        "label": "s_tokenAmount",
        "offset": 0,
        "slot": "12",
        "type": "t_uint256"
      },
      {
        "astId": 330,
        "contract": "contracts/sageIco.sol:SageIco",
        "label": "s_minimum",
        "offset": 0,
        "slot": "13",
        "type": "t_uint256"
      },
      {
        "astId": 332,
        "contract": "contracts/sageIco.sol:SageIco",
        "label": "s_maximumAmount",
        "offset": 0,
        "slot": "14",
        "type": "t_uint256"
      },
      {
        "astId": 334,
        "contract": "contracts/sageIco.sol:SageIco",
        "label": "s_raisedAmount",
        "offset": 0,
        "slot": "15",
        "type": "t_uint256"
      },
      {
        "astId": 336,
        "contract": "contracts/sageIco.sol:SageIco",
        "label": "s_icoStartTime",
        "offset": 0,
        "slot": "16",
        "type": "t_uint256"
      },
      {
        "astId": 338,
        "contract": "contracts/sageIco.sol:SageIco",
        "label": "s_icoEndTime",
        "offset": 0,
        "slot": "17",
        "type": "t_uint256"
      },
      {
        "astId": 340,
        "contract": "contracts/sageIco.sol:SageIco",
        "label": "s_adminAddress",
        "offset": 0,
        "slot": "18",
        "type": "t_address"
      },
      {
        "astId": 342,
        "contract": "contracts/sageIco.sol:SageIco",
        "label": "s_owner",
        "offset": 0,
        "slot": "19",
        "type": "t_address"
      },
      {
        "astId": 344,
        "contract": "contracts/sageIco.sol:SageIco",
        "label": "s_deposit",
        "offset": 0,
        "slot": "20",
        "type": "t_address_payable"
      }
    ],
    "types": {
      "t_address": {
        "encoding": "inplace",
        "label": "address",
        "numberOfBytes": "20"
      },
      "t_address_payable": {
        "encoding": "inplace",
        "label": "address payable",
        "numberOfBytes": "20"
      },
      "t_array(t_address)dyn_storage": {
        "base": "t_address",
        "encoding": "dynamic_array",
        "label": "address[]",
        "numberOfBytes": "32"
      },
      "t_enum(IcoState)312": {
        "encoding": "inplace",
        "label": "enum SageIco.IcoState",
        "numberOfBytes": "1"
      },
      "t_mapping(t_address,t_mapping(t_address,t_uint256))": {
        "encoding": "mapping",
        "key": "t_address",
        "label": "mapping(address => mapping(address => uint256))",
        "numberOfBytes": "32",
        "value": "t_mapping(t_address,t_uint256)"
      },
      "t_mapping(t_address,t_uint256)": {
        "encoding": "mapping",
        "key": "t_address",
        "label": "mapping(address => uint256)",
        "numberOfBytes": "32",
        "value": "t_uint256"
      },
      "t_string_storage": {
        "encoding": "bytes",
        "label": "string",
        "numberOfBytes": "32"
      },
      "t_uint256": {
        "encoding": "inplace",
        "label": "uint256",
        "numberOfBytes": "32"
      }
    }
  }
}