{
  "_format": "hh-sol-artifact-1",
  "contractName": "SageExchange",
  "sourceName": "contracts/SageExchange.sol",
  "abi": [
    {
      "inputs": [
        {
          "internalType": "address payable",
          "name": "_admin",
          "type": "address"
        }
      ],
      "stateMutability": "nonpayable",
      "type": "constructor"
    },
    {
      "anonymous": false,
      "inputs": [
        {
          "indexed": true,
          "internalType": "address",
          "name": "owner",
          "type": "address"
        },
        {
          "indexed": true,
          "internalType": "address",
          "name": "spender",
          "type": "address"
        },
        {
          "indexed": false,
          "internalType": "uint256",
          "name": "value",
          "type": "uint256"
        }
      ],
      "name": "Approval",
      "type": "event"
    },
    {
      "anonymous": false,
      "inputs": [
        {
          "indexed": false,
          "internalType": "uint256",
          "name": "amount",
          "type": "uint256"
        },
        {
          "indexed": false,
          "internalType": "uint256",
          "name": "tokens",
          "type": "uint256"
        },
        {
          "indexed": true,
          "internalType": "address",
          "name": "buyer",
          "type": "address"
        }
      ],
      "name": "Invest",
      "type": "event"
    },
    {
      "anonymous": false,
      "inputs": [
        {
          "indexed": true,
          "internalType": "address",
          "name": "from",
          "type": "address"
        },
        {
          "indexed": true,
          "internalType": "address",
          "name": "to",
          "type": "address"
        },
        {
          "indexed": false,
          "internalType": "uint256",
          "name": "value",
          "type": "uint256"
        }
      ],
      "name": "Transfer",
      "type": "event"
    },
    {
      "anonymous": false,
      "inputs": [
        {
          "indexed": true,
          "internalType": "address",
          "name": "adminaddress",
          "type": "address"
        }
      ],
      "name": "UpdatedadminAdress",
      "type": "event"
    },
    {
      "inputs": [
        {
          "internalType": "uint256",
          "name": "amount",
          "type": "uint256"
        }
      ],
      "name": "ICOInvest",
      "outputs": [
        {
          "internalType": "bool",
          "name": "",
          "type": "bool"
        }
      ],
      "stateMutability": "nonpayable",
      "type": "function"
    },
    {
      "inputs": [],
      "name": "ICOStatus",
      "outputs": [],
      "stateMutability": "nonpayable",
      "type": "function"
    },
    {
      "inputs": [
        {
          "internalType": "address",
          "name": "_owner",
          "type": "address"
        },
        {
          "internalType": "address",
          "name": "spender",
          "type": "address"
        }
      ],
      "name": "allowance",
      "outputs": [
        {
          "internalType": "uint256",
          "name": "",
          "type": "uint256"
        }
      ],
      "stateMutability": "view",
      "type": "function"
    },
    {
      "inputs": [
        {
          "internalType": "address",
          "name": "spender",
          "type": "address"
        },
        {
          "internalType": "uint256",
          "name": "amount",
          "type": "uint256"
        }
      ],
      "name": "approve",
      "outputs": [
        {
          "internalType": "bool",
          "name": "",
          "type": "bool"
        }
      ],
      "stateMutability": "nonpayable",
      "type": "function"
    },
    {
      "inputs": [
        {
          "internalType": "address",
          "name": "tokenAddress",
          "type": "address"
        }
      ],
      "name": "balanceOf",
      "outputs": [
        {
          "internalType": "uint256",
          "name": "",
          "type": "uint256"
        }
      ],
      "stateMutability": "view",
      "type": "function"
    },
    {
      "inputs": [
        {
          "internalType": "address",
          "name": "",
          "type": "address"
        }
      ],
      "name": "balances",
      "outputs": [
        {
          "internalType": "uint256",
          "name": "",
          "type": "uint256"
        }
      ],
      "stateMutability": "view",
      "type": "function"
    },
    {
      "inputs": [
        {
          "internalType": "uint256",
          "name": "amount",
          "type": "uint256"
        }
      ],
      "name": "burn",
      "outputs": [],
      "stateMutability": "nonpayable",
      "type": "function"
    },
    {
      "inputs": [
        {
          "internalType": "address payable",
          "name": "_adminaddress",
          "type": "address"
        }
      ],
      "name": "changeAdminAdress",
      "outputs": [
        {
          "internalType": "bool",
          "name": "",
          "type": "bool"
        }
      ],
      "stateMutability": "nonpayable",
      "type": "function"
    },
    {
      "inputs": [
        {
          "internalType": "enum SageExchange.ICOState",
          "name": "_status",
          "type": "uint8"
        }
      ],
      "name": "changeICOState",
      "outputs": [
        {
          "internalType": "bool",
          "name": "",
          "type": "bool"
        }
      ],
      "stateMutability": "nonpayable",
      "type": "function"
    },
    {
      "inputs": [],
      "name": "decimals",
      "outputs": [
        {
          "internalType": "uint256",
          "name": "",
          "type": "uint256"
        }
      ],
      "stateMutability": "view",
      "type": "function"
    },
    {
      "inputs": [],
      "name": "getAmountDeposit",
      "outputs": [
        {
          "internalType": "uint256",
          "name": "",
          "type": "uint256"
        }
      ],
      "stateMutability": "view",
      "type": "function"
    },
    {
      "inputs": [],
      "name": "getTokenAmount",
      "outputs": [
        {
          "internalType": "uint256",
          "name": "",
          "type": "uint256"
        }
      ],
      "stateMutability": "view",
      "type": "function"
    },
    {
      "inputs": [],
      "name": "getTokenPurchase",
      "outputs": [
        {
          "internalType": "uint256",
          "name": "",
          "type": "uint256"
        }
      ],
      "stateMutability": "view",
      "type": "function"
    },
    {
      "inputs": [],
      "name": "gethardcap",
      "outputs": [
        {
          "internalType": "uint256",
          "name": "",
          "type": "uint256"
        }
      ],
      "stateMutability": "view",
      "type": "function"
    },
    {
      "inputs": [],
      "name": "geticostate",
      "outputs": [
        {
          "internalType": "enum SageExchange.ICOState",
          "name": "",
          "type": "uint8"
        }
      ],
      "stateMutability": "view",
      "type": "function"
    },
    {
      "inputs": [],
      "name": "getmaximumAmount",
      "outputs": [
        {
          "internalType": "uint256",
          "name": "",
          "type": "uint256"
        }
      ],
      "stateMutability": "view",
      "type": "function"
    },
    {
      "inputs": [],
      "name": "getminimumAmount",
      "outputs": [
        {
          "internalType": "uint256",
          "name": "",
          "type": "uint256"
        }
      ],
      "stateMutability": "view",
      "type": "function"
    },
    {
      "inputs": [],
      "name": "getowner",
      "outputs": [
        {
          "internalType": "address",
          "name": "",
          "type": "address"
        }
      ],
      "stateMutability": "view",
      "type": "function"
    },
    {
      "inputs": [
        {
          "internalType": "uint256",
          "name": "amount",
          "type": "uint256"
        }
      ],
      "name": "mint",
      "outputs": [],
      "stateMutability": "nonpayable",
      "type": "function"
    },
    {
      "inputs": [],
      "name": "name",
      "outputs": [
        {
          "internalType": "string",
          "name": "",
          "type": "string"
        }
      ],
      "stateMutability": "view",
      "type": "function"
    },
    {
      "inputs": [],
      "name": "owner",
      "outputs": [
        {
          "internalType": "address",
          "name": "",
          "type": "address"
        }
      ],
      "stateMutability": "view",
      "type": "function"
    },
    {
      "inputs": [],
      "name": "s_admin",
      "outputs": [
        {
          "internalType": "address payable",
          "name": "",
          "type": "address"
        }
      ],
      "stateMutability": "view",
      "type": "function"
    },
    {
      "inputs": [
        {
          "internalType": "address",
          "name": "",
          "type": "address"
        }
      ],
      "name": "s_adminaddress",
      "outputs": [
        {
          "internalType": "uint256",
          "name": "",
          "type": "uint256"
        }
      ],
      "stateMutability": "view",
      "type": "function"
    },
    {
      "inputs": [],
      "name": "s_timeend",
      "outputs": [
        {
          "internalType": "uint256",
          "name": "",
          "type": "uint256"
        }
      ],
      "stateMutability": "view",
      "type": "function"
    },
    {
      "inputs": [],
      "name": "s_timestart",
      "outputs": [
        {
          "internalType": "uint256",
          "name": "",
          "type": "uint256"
        }
      ],
      "stateMutability": "view",
      "type": "function"
    },
    {
      "inputs": [
        {
          "internalType": "address",
          "name": "",
          "type": "address"
        }
      ],
      "name": "s_userBalances",
      "outputs": [
        {
          "internalType": "uint256",
          "name": "",
          "type": "uint256"
        }
      ],
      "stateMutability": "view",
      "type": "function"
    },
    {
      "inputs": [],
      "name": "symbol",
      "outputs": [
        {
          "internalType": "string",
          "name": "",
          "type": "string"
        }
      ],
      "stateMutability": "view",
      "type": "function"
    },
    {
      "inputs": [],
      "name": "totalSupply",
      "outputs": [
        {
          "internalType": "uint256",
          "name": "",
          "type": "uint256"
        }
      ],
      "stateMutability": "view",
      "type": "function"
    },
    {
      "inputs": [
        {
          "internalType": "address",
          "name": "to",
          "type": "address"
        },
        {
          "internalType": "uint256",
          "name": "tokens",
          "type": "uint256"
        }
      ],
      "name": "transfer",
      "outputs": [
        {
          "internalType": "bool",
          "name": "",
          "type": "bool"
        }
      ],
      "stateMutability": "nonpayable",
      "type": "function"
    },
    {
      "inputs": [
        {
          "internalType": "address",
          "name": "from",
          "type": "address"
        },
        {
          "internalType": "address",
          "name": "to",
          "type": "address"
        },
        {
          "internalType": "uint256",
          "name": "amount",
          "type": "uint256"
        }
      ],
      "name": "transferFrom",
      "outputs": [
        {
          "internalType": "bool",
          "name": "",
          "type": "bool"
        }
      ],
      "stateMutability": "nonpayable",
      "type": "function"
    }
  ],
  "bytecode": "0x60806040523480156200001157600080fd5b50604051620026cc380380620026cc8339818101604052810190620000379190620003e4565b336000806101000a81548173ffffffffffffffffffffffffffffffffffffffff021916908373ffffffffffffffffffffffffffffffffffffffff1602179055506040518060400160405280600481526020017f534147450000000000000000000000000000000000000000000000000000000081525060019080519060200190620000c4929190620002ca565b506040518060400160405280600381526020017f53414700000000000000000000000000000000000000000000000000000000008152506002908051906020019062000112929190620002ca565b50601260038190555068056bc75e2d63100000600481905550600454600560008060009054906101000a900473ffffffffffffffffffffffffffffffffffffffff1673ffffffffffffffffffffffffffffffffffffffff1673ffffffffffffffffffffffffffffffffffffffff16815260200190815260200160002081905550600160078190555080600d60006101000a81548173ffffffffffffffffffffffffffffffffffffffff021916908373ffffffffffffffffffffffffffffffffffffffff16021790555066038d7ea4c68000600e81905550674563918244f40000600f8190555066038d7ea4c68000601081905550670de0b6b3a7640000601181905550603c426200022491906200044f565b600b81905550610e10426200023a91906200044f565b600c819055506003600860006101000a81548160ff02191690836003811115620002695762000268620004ac565b5b0217905550600060138190555060006012819055506000600a60008373ffffffffffffffffffffffffffffffffffffffff1673ffffffffffffffffffffffffffffffffffffffff168152602001908152602001600020819055505062000540565b828054620002d8906200050a565b90600052602060002090601f016020900481019282620002fc576000855562000348565b82601f106200031757805160ff191683800117855562000348565b8280016001018555821562000348579182015b82811115620003475782518255916020019190600101906200032a565b5b5090506200035791906200035b565b5090565b5b80821115620003765760008160009055506001016200035c565b5090565b600080fd5b600073ffffffffffffffffffffffffffffffffffffffff82169050919050565b6000620003ac826200037f565b9050919050565b620003be816200039f565b8114620003ca57600080fd5b50565b600081519050620003de81620003b3565b92915050565b600060208284031215620003fd57620003fc6200037a565b5b60006200040d84828501620003cd565b91505092915050565b6000819050919050565b7f4e487b7100000000000000000000000000000000000000000000000000000000600052601160045260246000fd5b60006200045c8262000416565b9150620004698362000416565b9250827fffffffffffffffffffffffffffffffffffffffffffffffffffffffffffffffff03821115620004a157620004a062000420565b5b828201905092915050565b7f4e487b7100000000000000000000000000000000000000000000000000000000600052602160045260246000fd5b7f4e487b7100000000000000000000000000000000000000000000000000000000600052602260045260246000fd5b600060028204905060018216806200052357607f821691505b602082108114156200053a5762000539620004db565b5b50919050565b61217c80620005506000396000f3fe608060405234801561001057600080fd5b50600436106101d95760003560e01c806375f91ec811610104578063b52ffe6c116100a2578063e2d5521811610071578063e2d5521814610586578063e9f6f42e146105a4578063fc57d83c146105d4578063fe0174bd146105f2576101d9565b8063b52ffe6c146104fc578063c61a08c11461051a578063ce9b070a14610538578063dd62ed3e14610556576101d9565b806395d89b41116100de57806395d89b4114610488578063a0712d68146104a6578063a9059cbb146104c2578063b4590cbe146104f2576101d9565b806375f91ec81461042e578063889ed1081461044c5780638da5cb5b1461046a576101d9565b80632122ce201161017c578063316580571161014b578063316580571461039457806337fe2239146103c457806342966c68146103e257806370a08231146103fe576101d9565b80632122ce20146102e657806323b872dd1461031657806327e235e314610346578063313ce56714610376576101d9565b8063095ea7b3116101b8578063095ea7b31461025c578063132788cf1461028c57806318160ddd146102aa5780631cd04539146102c8576101d9565b8062379844146101de57806306642c661461020e57806306fdde031461023e575b600080fd5b6101f860048036038101906101f39190611822565b610610565b6040516102059190611868565b60405180910390f35b610228600480360381019061022391906118a8565b610628565b60405161023591906118f0565b60405180910390f35b6102466106ec565b60405161025391906119a4565b60405180910390f35b610276600480360381019061027191906119f2565b61077a565b60405161028391906118f0565b60405180910390f35b6102946108ff565b6040516102a19190611a53565b60405180910390f35b6102b2610925565b6040516102bf9190611868565b60405180910390f35b6102d061092b565b6040516102dd9190611868565b60405180910390f35b61030060048036038101906102fb9190611822565b610935565b60405161030d9190611868565b60405180910390f35b610330600480360381019061032b9190611a6e565b61094d565b60405161033d91906118f0565b60405180910390f35b610360600480360381019061035b9190611822565b610c3f565b60405161036d9190611868565b60405180910390f35b61037e610c57565b60405161038b9190611868565b60405180910390f35b6103ae60048036038101906103a99190611ac1565b610c5d565b6040516103bb91906118f0565b60405180910390f35b6103cc610fbb565b6040516103d99190611868565b60405180910390f35b6103fc60048036038101906103f79190611ac1565b610fc5565b005b61041860048036038101906104139190611822565b61106f565b6040516104259190611868565b60405180910390f35b6104366110b8565b6040516104439190611868565b60405180910390f35b6104546110c2565b6040516104619190611b65565b60405180910390f35b6104726110d9565b60405161047f9190611b8f565b60405180910390f35b6104906110fd565b60405161049d91906119a4565b60405180910390f35b6104c060048036038101906104bb9190611ac1565b61118b565b005b6104dc60048036038101906104d791906119f2565b611235565b6040516104e991906118f0565b60405180910390f35b6104fa6113d4565b005b6105046114bf565b6040516105119190611868565b60405180910390f35b6105226114c5565b60405161052f9190611868565b60405180910390f35b6105406114cf565b60405161054d9190611868565b60405180910390f35b610570600480360381019061056b9190611baa565b6114d9565b60405161057d9190611868565b60405180910390f35b61058e611560565b60405161059b9190611868565b60405180910390f35b6105be60048036038101906105b99190611c16565b611566565b6040516105cb91906118f0565b60405180910390f35b6105dc611731565b6040516105e99190611868565b60405180910390f35b6105fa61173b565b6040516106079190611b8f565b60405180910390f35b60096020528060005260406000206000915090505481565b60008060009054906101000a900473ffffffffffffffffffffffffffffffffffffffff1673ffffffffffffffffffffffffffffffffffffffff163373ffffffffffffffffffffffffffffffffffffffff16146106b9576040517f08c379a00000000000000000000000000000000000000000000000000000000081526004016106b090611c8f565b60405180910390fd5b81600860006101000a81548160ff021916908360038111156106de576106dd611aee565b5b021790555060019050919050565b600180546106f990611cde565b80601f016020809104026020016040519081016040528092919081815260200182805461072590611cde565b80156107725780601f1061074757610100808354040283529160200191610772565b820191906000526020600020905b81548152906001019060200180831161075557829003601f168201915b505050505081565b600081600560003373ffffffffffffffffffffffffffffffffffffffff1673ffffffffffffffffffffffffffffffffffffffff16815260200190815260200160002054116107fd576040517f08c379a00000000000000000000000000000000000000000000000000000000081526004016107f490611d5c565b60405180910390fd5b81600660003373ffffffffffffffffffffffffffffffffffffffff1673ffffffffffffffffffffffffffffffffffffffff16815260200190815260200160002060008573ffffffffffffffffffffffffffffffffffffffff1673ffffffffffffffffffffffffffffffffffffffff16815260200190815260200160002060008282546108899190611dab565b925050819055508273ffffffffffffffffffffffffffffffffffffffff163373ffffffffffffffffffffffffffffffffffffffff167f8c5be1e5ebec7d5bd14f71427d1e84f3dd0314c0f7b2291e5b200ac8c7c3b925846040516108ed9190611868565b60405180910390a36001905092915050565b600d60009054906101000a900473ffffffffffffffffffffffffffffffffffffffff1681565b60045481565b6000601254905090565b600a6020528060005260406000206000915090505481565b600081600660008673ffffffffffffffffffffffffffffffffffffffff1673ffffffffffffffffffffffffffffffffffffffff16815260200190815260200160002060003373ffffffffffffffffffffffffffffffffffffffff1673ffffffffffffffffffffffffffffffffffffffff168152602001908152602001600020541015610a0e576040517f08c379a0000000000000000000000000000000000000000000000000000000008152600401610a0590611d5c565b60405180910390fd5b81600560008673ffffffffffffffffffffffffffffffffffffffff1673ffffffffffffffffffffffffffffffffffffffff168152602001908152602001600020541015610a90576040517f08c379a0000000000000000000000000000000000000000000000000000000008152600401610a8790611d5c565b60405180910390fd5b81600560008673ffffffffffffffffffffffffffffffffffffffff1673ffffffffffffffffffffffffffffffffffffffff1681526020019081526020016000206000828254610adf9190611e01565b9250508190555081600660008673ffffffffffffffffffffffffffffffffffffffff1673ffffffffffffffffffffffffffffffffffffffff16815260200190815260200160002060003373ffffffffffffffffffffffffffffffffffffffff1673ffffffffffffffffffffffffffffffffffffffff1681526020019081526020016000206000828254610b729190611e01565b9250508190555081600560008573ffffffffffffffffffffffffffffffffffffffff1673ffffffffffffffffffffffffffffffffffffffff1681526020019081526020016000206000828254610bc89190611dab565b925050819055508273ffffffffffffffffffffffffffffffffffffffff168473ffffffffffffffffffffffffffffffffffffffff167fddf252ad1be2c89b69c2b068fc378daa952ba7f163c4a11628f55a4df523b3ef84604051610c2c9190611868565b60405180910390a3600190509392505050565b60056020528060005260406000206000915090505481565b60035481565b6000610c67611765565b601054821015610cac576040517f08c379a0000000000000000000000000000000000000000000000000000000008152600401610ca390611ea7565b60405180910390fd5b601154600960003373ffffffffffffffffffffffffffffffffffffffff1673ffffffffffffffffffffffffffffffffffffffff168152602001908152602001600020541115610d30576040517f08c379a0000000000000000000000000000000000000000000000000000000008152600401610d2790611f13565b60405180910390fd5b601354600f541015610d77576040517f08c379a0000000000000000000000000000000000000000000000000000000008152600401610d6e90611f7f565b60405180910390fd5b6000600e5483610d879190611fce565b905080600560003373ffffffffffffffffffffffffffffffffffffffff1673ffffffffffffffffffffffffffffffffffffffff1681526020019081526020016000206000828254610dd89190611dab565b9250508190555080600560008060009054906101000a900473ffffffffffffffffffffffffffffffffffffffff1673ffffffffffffffffffffffffffffffffffffffff1673ffffffffffffffffffffffffffffffffffffffff1681526020019081526020016000206000828254610e4f9190611e01565b925050819055508060126000828254610e689190611dab565b925050819055508260136000828254610e819190611dab565b925050819055506000600d60009054906101000a900473ffffffffffffffffffffffffffffffffffffffff1673ffffffffffffffffffffffffffffffffffffffff16600e54604051610ed290612030565b60006040518083038185875af1925050503d8060008114610f0f576040519150601f19603f3d011682016040523d82523d6000602084013e610f14565b606091505b5050905080610f58576040517f08c379a0000000000000000000000000000000000000000000000000000000008152600401610f4f90612091565b60405180910390fd5b3373ffffffffffffffffffffffffffffffffffffffff167fe68a9497b26026cfe65dde2a240cbd548cb5209e66fd442c464d9390124c97a48584604051610fa09291906120b1565b60405180910390a2600192505050610fb66117b5565b919050565b6000601354905090565b60008054906101000a900473ffffffffffffffffffffffffffffffffffffffff1673ffffffffffffffffffffffffffffffffffffffff163373ffffffffffffffffffffffffffffffffffffffff1614611053576040517f08c379a000000000000000000000000000000000000000000000000000000000815260040161104a90611c8f565b60405180910390fd5b80600460008282546110659190611e01565b9250508190555050565b6000600560008373ffffffffffffffffffffffffffffffffffffffff1673ffffffffffffffffffffffffffffffffffffffff168152602001908152602001600020549050919050565b6000600e54905090565b6000600860009054906101000a900460ff16905090565b60008054906101000a900473ffffffffffffffffffffffffffffffffffffffff1681565b6002805461110a90611cde565b80601f016020809104026020016040519081016040528092919081815260200182805461113690611cde565b80156111835780601f1061115857610100808354040283529160200191611183565b820191906000526020600020905b81548152906001019060200180831161116657829003601f168201915b505050505081565b60008054906101000a900473ffffffffffffffffffffffffffffffffffffffff1673ffffffffffffffffffffffffffffffffffffffff163373ffffffffffffffffffffffffffffffffffffffff1614611219576040517f08c379a000000000000000000000000000000000000000000000000000000000815260040161121090611c8f565b60405180910390fd5b806004600082825461122b9190611dab565b9250508190555050565b600081600560003373ffffffffffffffffffffffffffffffffffffffff1673ffffffffffffffffffffffffffffffffffffffff1681526020019081526020016000205410156112b9576040517f08c379a00000000000000000000000000000000000000000000000000000000081526004016112b090611d5c565b60405180910390fd5b81600560008573ffffffffffffffffffffffffffffffffffffffff1673ffffffffffffffffffffffffffffffffffffffff16815260200190815260200160002060008282546113089190611dab565b9250508190555081600560003373ffffffffffffffffffffffffffffffffffffffff1673ffffffffffffffffffffffffffffffffffffffff168152602001908152602001600020600082825461135e9190611e01565b925050819055508273ffffffffffffffffffffffffffffffffffffffff163373ffffffffffffffffffffffffffffffffffffffff167fddf252ad1be2c89b69c2b068fc378daa952ba7f163c4a11628f55a4df523b3ef846040516113c29190611868565b60405180910390a36001905092915050565b600b5442101561140e576003600860006101000a81548160ff0219169083600381111561140457611403611aee565b5b02179055506114bd565b600b5442101580156114215750600c5442105b15611456576000600860006101000a81548160ff0219169083600381111561144c5761144b611aee565b5b02179055506114bc565b600c54421061148f576001600860006101000a81548160ff0219169083600381111561148557611484611aee565b5b02179055506114bb565b6002600860006101000a81548160ff021916908360038111156114b5576114b4611aee565b5b02179055505b5b5b565b600b5481565b6000600f54905090565b6000601154905090565b6000600660008473ffffffffffffffffffffffffffffffffffffffff1673ffffffffffffffffffffffffffffffffffffffff16815260200190815260200160002060008373ffffffffffffffffffffffffffffffffffffffff1673ffffffffffffffffffffffffffffffffffffffff16815260200190815260200160002054905092915050565b600c5481565b60008060009054906101000a900473ffffffffffffffffffffffffffffffffffffffff1673ffffffffffffffffffffffffffffffffffffffff163373ffffffffffffffffffffffffffffffffffffffff16146115f7576040517f08c379a00000000000000000000000000000000000000000000000000000000081526004016115ee90611c8f565b60405180910390fd5b601354600a6000600d60009054906101000a900473ffffffffffffffffffffffffffffffffffffffff1673ffffffffffffffffffffffffffffffffffffffff1673ffffffffffffffffffffffffffffffffffffffff168152602001908152602001600020819055506000600a60008473ffffffffffffffffffffffffffffffffffffffff1673ffffffffffffffffffffffffffffffffffffffff1681526020019081526020016000208190555081600d60006101000a81548173ffffffffffffffffffffffffffffffffffffffff021916908373ffffffffffffffffffffffffffffffffffffffff1602179055508173ffffffffffffffffffffffffffffffffffffffff167fe18df40eeddef87940bd2ad46470782f5f2422489af5fedc571da1389fcb7d0860405160405180910390a260019050919050565b6000601054905090565b6000600d60009054906101000a900473ffffffffffffffffffffffffffffffffffffffff16905090565b600260075414156117ab576040517f08c379a00000000000000000000000000000000000000000000000000000000081526004016117a290612126565b60405180910390fd5b6002600781905550565b6001600781905550565b600080fd5b600073ffffffffffffffffffffffffffffffffffffffff82169050919050565b60006117ef826117c4565b9050919050565b6117ff816117e4565b811461180a57600080fd5b50565b60008135905061181c816117f6565b92915050565b600060208284031215611838576118376117bf565b5b60006118468482850161180d565b91505092915050565b6000819050919050565b6118628161184f565b82525050565b600060208201905061187d6000830184611859565b92915050565b6004811061189057600080fd5b50565b6000813590506118a281611883565b92915050565b6000602082840312156118be576118bd6117bf565b5b60006118cc84828501611893565b91505092915050565b60008115159050919050565b6118ea816118d5565b82525050565b600060208201905061190560008301846118e1565b92915050565b600081519050919050565b600082825260208201905092915050565b60005b8381101561194557808201518184015260208101905061192a565b83811115611954576000848401525b50505050565b6000601f19601f8301169050919050565b60006119768261190b565b6119808185611916565b9350611990818560208601611927565b6119998161195a565b840191505092915050565b600060208201905081810360008301526119be818461196b565b905092915050565b6119cf8161184f565b81146119da57600080fd5b50565b6000813590506119ec816119c6565b92915050565b60008060408385031215611a0957611a086117bf565b5b6000611a178582860161180d565b9250506020611a28858286016119dd565b9150509250929050565b6000611a3d826117c4565b9050919050565b611a4d81611a32565b82525050565b6000602082019050611a686000830184611a44565b92915050565b600080600060608486031215611a8757611a866117bf565b5b6000611a958682870161180d565b9350506020611aa68682870161180d565b9250506040611ab7868287016119dd565b9150509250925092565b600060208284031215611ad757611ad66117bf565b5b6000611ae5848285016119dd565b91505092915050565b7f4e487b7100000000000000000000000000000000000000000000000000000000600052602160045260246000fd5b60048110611b2e57611b2d611aee565b5b50565b6000819050611b3f82611b1d565b919050565b6000611b4f82611b31565b9050919050565b611b5f81611b44565b82525050565b6000602082019050611b7a6000830184611b56565b92915050565b611b89816117e4565b82525050565b6000602082019050611ba46000830184611b80565b92915050565b60008060408385031215611bc157611bc06117bf565b5b6000611bcf8582860161180d565b9250506020611be08582860161180d565b9150509250929050565b611bf381611a32565b8114611bfe57600080fd5b50565b600081359050611c1081611bea565b92915050565b600060208284031215611c2c57611c2b6117bf565b5b6000611c3a84828501611c01565b91505092915050565b7f4f6e6c792041646d696e20686173207065726d697373696f6e00000000000000600082015250565b6000611c79601983611916565b9150611c8482611c43565b602082019050919050565b60006020820190508181036000830152611ca881611c6c565b9050919050565b7f4e487b7100000000000000000000000000000000000000000000000000000000600052602260045260246000fd5b60006002820490506001821680611cf657607f821691505b60208210811415611d0a57611d09611caf565b5b50919050565b7f496e73756666696369656e7420546f6b656e20416d6f756e7400000000000000600082015250565b6000611d46601983611916565b9150611d5182611d10565b602082019050919050565b60006020820190508181036000830152611d7581611d39565b9050919050565b7f4e487b7100000000000000000000000000000000000000000000000000000000600052601160045260246000fd5b6000611db68261184f565b9150611dc18361184f565b9250827fffffffffffffffffffffffffffffffffffffffffffffffffffffffffffffffff03821115611df657611df5611d7c565b5b828201905092915050565b6000611e0c8261184f565b9150611e178361184f565b925082821015611e2a57611e29611d7c565b5b828203905092915050565b7f456e74657220612056616c696420416d6f756e742c204d696e696d756d20616d60008201527f6f756e7420697320302e30303120455448000000000000000000000000000000602082015250565b6000611e91603183611916565b9150611e9c82611e35565b604082019050919050565b60006020820190508181036000830152611ec081611e84565b9050919050565b7f45786365656420796f75206c696d697420666f72207468652049434f00000000600082015250565b6000611efd601c83611916565b9150611f0882611ec7565b602082019050919050565b60006020820190508181036000830152611f2c81611ef0565b9050919050565b7f49434f2068617320436c6f736564000000000000000000000000000000000000600082015250565b6000611f69600e83611916565b9150611f7482611f33565b602082019050919050565b60006020820190508181036000830152611f9881611f5c565b9050919050565b7f4e487b7100000000000000000000000000000000000000000000000000000000600052601260045260246000fd5b6000611fd98261184f565b9150611fe48361184f565b925082611ff457611ff3611f9f565b5b828204905092915050565b600081905092915050565b50565b600061201a600083611fff565b91506120258261200a565b600082019050919050565b600061203b8261200d565b9150819050919050565b7f4661696c65640000000000000000000000000000000000000000000000000000600082015250565b600061207b600683611916565b915061208682612045565b602082019050919050565b600060208201905081810360008301526120aa8161206e565b9050919050565b60006040820190506120c66000830185611859565b6120d36020830184611859565b9392505050565b7f5265656e7472616e637947756172643a207265656e7472616e742063616c6c00600082015250565b6000612110601f83611916565b915061211b826120da565b602082019050919050565b6000602082019050818103600083015261213f81612103565b905091905056fea2646970667358221220527b9b3f777ba4968594125b7efadc11b15d58704b92918d775719149525514564736f6c63430008090033",
  "linkReferences": {},
  "deployedLinkReferences": {}
}