{
  "_format": "hh-sol-artifact-1",
  "contractName": "SageExchange",
  "sourceName": "contracts/SageExchange.sol",
  "abi": [
    {
      "inputs": [
        {
          "internalType": "address payable",
          "name": "_admin",
          "type": "address"
        },
        {
          "internalType": "address",
          "name": "_stakingaddress",
          "type": "address"
        }
      ],
      "stateMutability": "nonpayable",
      "type": "constructor"
    },
    {
      "anonymous": false,
      "inputs": [
        {
          "indexed": true,
          "internalType": "address",
          "name": "owner",
          "type": "address"
        },
        {
          "indexed": true,
          "internalType": "address",
          "name": "spender",
          "type": "address"
        },
        {
          "indexed": false,
          "internalType": "uint256",
          "name": "value",
          "type": "uint256"
        }
      ],
      "name": "Approval",
      "type": "event"
    },
    {
      "anonymous": false,
      "inputs": [
        {
          "indexed": false,
          "internalType": "uint256",
          "name": "amount",
          "type": "uint256"
        },
        {
          "indexed": false,
          "internalType": "uint256",
          "name": "tokens",
          "type": "uint256"
        },
        {
          "indexed": true,
          "internalType": "address",
          "name": "buyer",
          "type": "address"
        }
      ],
      "name": "Invest",
      "type": "event"
    },
    {
      "anonymous": false,
      "inputs": [
        {
          "indexed": true,
          "internalType": "address",
          "name": "from",
          "type": "address"
        },
        {
          "indexed": true,
          "internalType": "address",
          "name": "to",
          "type": "address"
        },
        {
          "indexed": false,
          "internalType": "uint256",
          "name": "value",
          "type": "uint256"
        }
      ],
      "name": "Transfer",
      "type": "event"
    },
    {
      "anonymous": false,
      "inputs": [
        {
          "indexed": true,
          "internalType": "address",
          "name": "adminaddress",
          "type": "address"
        }
      ],
      "name": "UpdatedadminAdress",
      "type": "event"
    },
    {
      "inputs": [],
      "name": "ICOInvest",
      "outputs": [
        {
          "internalType": "bool",
          "name": "",
          "type": "bool"
        }
      ],
      "stateMutability": "payable",
      "type": "function"
    },
    {
      "inputs": [],
      "name": "ICOStatus",
      "outputs": [],
      "stateMutability": "nonpayable",
      "type": "function"
    },
    {
      "inputs": [],
      "name": "StakingToken",
      "outputs": [
        {
          "internalType": "contract IERC20",
          "name": "",
          "type": "address"
        }
      ],
      "stateMutability": "view",
      "type": "function"
    },
    {
      "inputs": [
        {
          "internalType": "address",
          "name": "_owner",
          "type": "address"
        },
        {
          "internalType": "address",
          "name": "spender",
          "type": "address"
        }
      ],
      "name": "allowance",
      "outputs": [
        {
          "internalType": "uint256",
          "name": "",
          "type": "uint256"
        }
      ],
      "stateMutability": "view",
      "type": "function"
    },
    {
      "inputs": [
        {
          "internalType": "address",
          "name": "spender",
          "type": "address"
        },
        {
          "internalType": "uint256",
          "name": "amount",
          "type": "uint256"
        }
      ],
      "name": "approve",
      "outputs": [
        {
          "internalType": "bool",
          "name": "",
          "type": "bool"
        }
      ],
      "stateMutability": "nonpayable",
      "type": "function"
    },
    {
      "inputs": [
        {
          "internalType": "address",
          "name": "tokenAddress",
          "type": "address"
        }
      ],
      "name": "balanceOf",
      "outputs": [
        {
          "internalType": "uint256",
          "name": "",
          "type": "uint256"
        }
      ],
      "stateMutability": "view",
      "type": "function"
    },
    {
      "inputs": [
        {
          "internalType": "address",
          "name": "",
          "type": "address"
        }
      ],
      "name": "balances",
      "outputs": [
        {
          "internalType": "uint256",
          "name": "",
          "type": "uint256"
        }
      ],
      "stateMutability": "view",
      "type": "function"
    },
    {
      "inputs": [
        {
          "internalType": "uint256",
          "name": "amount",
          "type": "uint256"
        }
      ],
      "name": "burn",
      "outputs": [],
      "stateMutability": "nonpayable",
      "type": "function"
    },
    {
      "inputs": [
        {
          "internalType": "address payable",
          "name": "_adminaddress",
          "type": "address"
        }
      ],
      "name": "changeAdminAdress",
      "outputs": [
        {
          "internalType": "bool",
          "name": "",
          "type": "bool"
        }
      ],
      "stateMutability": "nonpayable",
      "type": "function"
    },
    {
      "inputs": [
        {
          "internalType": "enum SageExchange.ICOState",
          "name": "_status",
          "type": "uint8"
        }
      ],
      "name": "changeICOState",
      "outputs": [
        {
          "internalType": "bool",
          "name": "",
          "type": "bool"
        }
      ],
      "stateMutability": "nonpayable",
      "type": "function"
    },
    {
      "inputs": [],
      "name": "decimals",
      "outputs": [
        {
          "internalType": "uint256",
          "name": "",
          "type": "uint256"
        }
      ],
      "stateMutability": "view",
      "type": "function"
    },
    {
      "inputs": [],
      "name": "getAmountDeposit",
      "outputs": [
        {
          "internalType": "uint256",
          "name": "",
          "type": "uint256"
        }
      ],
      "stateMutability": "view",
      "type": "function"
    },
    {
      "inputs": [],
      "name": "getTokenAmount",
      "outputs": [
        {
          "internalType": "uint256",
          "name": "",
          "type": "uint256"
        }
      ],
      "stateMutability": "view",
      "type": "function"
    },
    {
      "inputs": [],
      "name": "getTokenPurchase",
      "outputs": [
        {
          "internalType": "uint256",
          "name": "",
          "type": "uint256"
        }
      ],
      "stateMutability": "view",
      "type": "function"
    },
    {
      "inputs": [],
      "name": "gethardcap",
      "outputs": [
        {
          "internalType": "uint256",
          "name": "",
          "type": "uint256"
        }
      ],
      "stateMutability": "view",
      "type": "function"
    },
    {
      "inputs": [],
      "name": "geticostate",
      "outputs": [
        {
          "internalType": "enum SageExchange.ICOState",
          "name": "",
          "type": "uint8"
        }
      ],
      "stateMutability": "view",
      "type": "function"
    },
    {
      "inputs": [],
      "name": "getmaximumAmount",
      "outputs": [
        {
          "internalType": "uint256",
          "name": "",
          "type": "uint256"
        }
      ],
      "stateMutability": "view",
      "type": "function"
    },
    {
      "inputs": [],
      "name": "getminimumAmount",
      "outputs": [
        {
          "internalType": "uint256",
          "name": "",
          "type": "uint256"
        }
      ],
      "stateMutability": "view",
      "type": "function"
    },
    {
      "inputs": [],
      "name": "getowner",
      "outputs": [
        {
          "internalType": "address",
          "name": "",
          "type": "address"
        }
      ],
      "stateMutability": "view",
      "type": "function"
    },
    {
      "inputs": [
        {
          "internalType": "address",
          "name": "to",
          "type": "address"
        },
        {
          "internalType": "uint256",
          "name": "amount",
          "type": "uint256"
        }
      ],
      "name": "mint",
      "outputs": [],
      "stateMutability": "nonpayable",
      "type": "function"
    },
    {
      "inputs": [],
      "name": "name",
      "outputs": [
        {
          "internalType": "string",
          "name": "",
          "type": "string"
        }
      ],
      "stateMutability": "view",
      "type": "function"
    },
    {
      "inputs": [],
      "name": "owner",
      "outputs": [
        {
          "internalType": "address",
          "name": "",
          "type": "address"
        }
      ],
      "stateMutability": "view",
      "type": "function"
    },
    {
      "inputs": [],
      "name": "s_admin",
      "outputs": [
        {
          "internalType": "address payable",
          "name": "",
          "type": "address"
        }
      ],
      "stateMutability": "view",
      "type": "function"
    },
    {
      "inputs": [
        {
          "internalType": "address",
          "name": "",
          "type": "address"
        }
      ],
      "name": "s_adminaddress",
      "outputs": [
        {
          "internalType": "uint256",
          "name": "",
          "type": "uint256"
        }
      ],
      "stateMutability": "view",
      "type": "function"
    },
    {
      "inputs": [],
      "name": "s_timeend",
      "outputs": [
        {
          "internalType": "uint256",
          "name": "",
          "type": "uint256"
        }
      ],
      "stateMutability": "view",
      "type": "function"
    },
    {
      "inputs": [],
      "name": "s_timestart",
      "outputs": [
        {
          "internalType": "uint256",
          "name": "",
          "type": "uint256"
        }
      ],
      "stateMutability": "view",
      "type": "function"
    },
    {
      "inputs": [
        {
          "internalType": "address",
          "name": "",
          "type": "address"
        }
      ],
      "name": "s_userBalances",
      "outputs": [
        {
          "internalType": "uint256",
          "name": "",
          "type": "uint256"
        }
      ],
      "stateMutability": "view",
      "type": "function"
    },
    {
      "inputs": [],
      "name": "symbol",
      "outputs": [
        {
          "internalType": "string",
          "name": "",
          "type": "string"
        }
      ],
      "stateMutability": "view",
      "type": "function"
    },
    {
      "inputs": [],
      "name": "tokenBalance",
      "outputs": [
        {
          "internalType": "uint256",
          "name": "",
          "type": "uint256"
        }
      ],
      "stateMutability": "view",
      "type": "function"
    },
    {
      "inputs": [],
      "name": "totalSupply",
      "outputs": [
        {
          "internalType": "uint256",
          "name": "",
          "type": "uint256"
        }
      ],
      "stateMutability": "view",
      "type": "function"
    },
    {
      "inputs": [
        {
          "internalType": "address",
          "name": "to",
          "type": "address"
        },
        {
          "internalType": "uint256",
          "name": "tokens",
          "type": "uint256"
        }
      ],
      "name": "transfer",
      "outputs": [
        {
          "internalType": "bool",
          "name": "",
          "type": "bool"
        }
      ],
      "stateMutability": "nonpayable",
      "type": "function"
    },
    {
      "inputs": [
        {
          "internalType": "address",
          "name": "from",
          "type": "address"
        },
        {
          "internalType": "address",
          "name": "to",
          "type": "address"
        },
        {
          "internalType": "uint256",
          "name": "amount",
          "type": "uint256"
        }
      ],
      "name": "transferFrom",
      "outputs": [
        {
          "internalType": "bool",
          "name": "",
          "type": "bool"
        }
      ],
      "stateMutability": "nonpayable",
      "type": "function"
    }
  ],
  "bytecode": "0x60a06040523480156200001157600080fd5b506040516200314f3803806200314f833981810160405281019062000037919062000460565b336000806101000a81548173ffffffffffffffffffffffffffffffffffffffff021916908373ffffffffffffffffffffffffffffffffffffffff1602179055506040518060400160405280600481526020017f534147450000000000000000000000000000000000000000000000000000000081525060019080519060200190620000c492919062000301565b506040518060400160405280600381526020017f5341470000000000000000000000000000000000000000000000000000000000815250600290805190602001906200011292919062000301565b50600a6003819055506a084595161401484a000000600481905550600454600560008060009054906101000a900473ffffffffffffffffffffffffffffffffffffffff1673ffffffffffffffffffffffffffffffffffffffff1673ffffffffffffffffffffffffffffffffffffffff1681526020019081526020016000208190555060016007819055508073ffffffffffffffffffffffffffffffffffffffff1660808173ffffffffffffffffffffffffffffffffffffffff168152505081600d60006101000a81548173ffffffffffffffffffffffffffffffffffffffff021916908373ffffffffffffffffffffffffffffffffffffffff16021790555066038d7ea4c68000600e81905550674563918244f40000600f8190555066038d7ea4c68000601081905550670de0b6b3a7640000601181905550603c426200025a9190620004e0565b600b81905550610e1042620002709190620004e0565b600c819055506003600860006101000a81548160ff021916908360038111156200029f576200029e6200053d565b5b0217905550600060138190555060006012819055506000600a60008473ffffffffffffffffffffffffffffffffffffffff1673ffffffffffffffffffffffffffffffffffffffff168152602001908152602001600020819055505050620005d1565b8280546200030f906200059b565b90600052602060002090601f0160209004810192826200033357600085556200037f565b82601f106200034e57805160ff19168380011785556200037f565b828001600101855582156200037f579182015b828111156200037e57825182559160200191906001019062000361565b5b5090506200038e919062000392565b5090565b5b80821115620003ad57600081600090555060010162000393565b5090565b600080fd5b600073ffffffffffffffffffffffffffffffffffffffff82169050919050565b6000620003e382620003b6565b9050919050565b620003f581620003d6565b81146200040157600080fd5b50565b6000815190506200041581620003ea565b92915050565b60006200042882620003b6565b9050919050565b6200043a816200041b565b81146200044657600080fd5b50565b6000815190506200045a816200042f565b92915050565b600080604083850312156200047a5762000479620003b1565b5b60006200048a8582860162000404565b92505060206200049d8582860162000449565b9150509250929050565b6000819050919050565b7f4e487b7100000000000000000000000000000000000000000000000000000000600052601160045260246000fd5b6000620004ed82620004a7565b9150620004fa83620004a7565b9250827fffffffffffffffffffffffffffffffffffffffffffffffffffffffffffffffff03821115620005325762000531620004b1565b5b828201905092915050565b7f4e487b7100000000000000000000000000000000000000000000000000000000600052602160045260246000fd5b7f4e487b7100000000000000000000000000000000000000000000000000000000600052602260045260246000fd5b60006002820490506001821680620005b457607f821691505b60208210811415620005cb57620005ca6200056c565b5b50919050565b608051612b4d620006026000396000818161116001528181611210015281816117eb0152611b290152612b4d6000f3fe6080604052600436106101e25760003560e01c806375f91ec811610102578063be5af96611610095578063e2d5521811610064578063e2d5521814610718578063e9f6f42e14610743578063fc57d83c14610780578063fe0174bd146107ab576101e2565b8063be5af9661461065a578063c61a08c114610685578063ce9b070a146106b0578063dd62ed3e146106db576101e2565b80639e1a4d19116100d15780639e1a4d19146105b0578063a9059cbb146105db578063b4590cbe14610618578063b52ffe6c1461062f576101e2565b806375f91ec814610504578063889ed1081461052f5780638da5cb5b1461055a57806395d89b4114610585576101e2565b806323b872dd1161017a57806337fe22391161014957806337fe22391461044a57806340c10f191461047557806342966c681461049e57806370a08231146104c7576101e2565b806323b872dd1461038757806327881d6c146103c457806327e235e3146103e2578063313ce5671461041f576101e2565b8063132788cf116101b6578063132788cf146102c957806318160ddd146102f45780631cd045391461031f5780632122ce201461034a576101e2565b8062379844146101e757806306642c661461022457806306fdde0314610261578063095ea7b31461028c575b600080fd5b3480156101f357600080fd5b5061020e60048036038101906102099190611ea8565b6107d6565b60405161021b9190611eee565b60405180910390f35b34801561023057600080fd5b5061024b60048036038101906102469190611f2e565b6107ee565b6040516102589190611f76565b60405180910390f35b34801561026d57600080fd5b506102766108b2565b604051610283919061202a565b60405180910390f35b34801561029857600080fd5b506102b360048036038101906102ae9190612078565b610940565b6040516102c09190611f76565b60405180910390f35b3480156102d557600080fd5b506102de610ac6565b6040516102eb91906120d9565b60405180910390f35b34801561030057600080fd5b50610309610aec565b6040516103169190611eee565b60405180910390f35b34801561032b57600080fd5b50610334610af2565b6040516103419190611eee565b60405180910390f35b34801561035657600080fd5b50610371600480360381019061036c9190611ea8565b610afc565b60405161037e9190611eee565b60405180910390f35b34801561039357600080fd5b506103ae60048036038101906103a991906120f4565b610b14565b6040516103bb9190611f76565b60405180910390f35b6103cc610e06565b6040516103d99190611f76565b60405180910390f35b3480156103ee57600080fd5b5061040960048036038101906104049190611ea8565b6113c2565b6040516104169190611eee565b60405180910390f35b34801561042b57600080fd5b506104346113da565b6040516104419190611eee565b60405180910390f35b34801561045657600080fd5b5061045f6113e0565b60405161046c9190611eee565b60405180910390f35b34801561048157600080fd5b5061049c60048036038101906104979190612078565b6113ea565b005b3480156104aa57600080fd5b506104c560048036038101906104c09190612147565b61155b565b005b3480156104d357600080fd5b506104ee60048036038101906104e99190611ea8565b6116cb565b6040516104fb9190611eee565b60405180910390f35b34801561051057600080fd5b50610519611714565b6040516105269190611eee565b60405180910390f35b34801561053b57600080fd5b5061054461171e565b60405161055191906121eb565b60405180910390f35b34801561056657600080fd5b5061056f611735565b60405161057c9190612215565b60405180910390f35b34801561059157600080fd5b5061059a611759565b6040516105a7919061202a565b60405180910390f35b3480156105bc57600080fd5b506105c56117e7565b6040516105d29190611eee565b60405180910390f35b3480156105e757600080fd5b5061060260048036038101906105fd9190612078565b611897565b60405161060f9190611f76565b60405180910390f35b34801561062457600080fd5b5061062d611a36565b005b34801561063b57600080fd5b50610644611b21565b6040516106519190611eee565b60405180910390f35b34801561066657600080fd5b5061066f611b27565b60405161067c919061228f565b60405180910390f35b34801561069157600080fd5b5061069a611b4b565b6040516106a79190611eee565b60405180910390f35b3480156106bc57600080fd5b506106c5611b55565b6040516106d29190611eee565b60405180910390f35b3480156106e757600080fd5b5061070260048036038101906106fd91906122aa565b611b5f565b60405161070f9190611eee565b60405180910390f35b34801561072457600080fd5b5061072d611be6565b60405161073a9190611eee565b60405180910390f35b34801561074f57600080fd5b5061076a60048036038101906107659190612316565b611bec565b6040516107779190611f76565b60405180910390f35b34801561078c57600080fd5b50610795611db7565b6040516107a29190611eee565b60405180910390f35b3480156107b757600080fd5b506107c0611dc1565b6040516107cd9190612215565b60405180910390f35b60096020528060005260406000206000915090505481565b60008060009054906101000a900473ffffffffffffffffffffffffffffffffffffffff1673ffffffffffffffffffffffffffffffffffffffff163373ffffffffffffffffffffffffffffffffffffffff161461087f576040517f08c379a00000000000000000000000000000000000000000000000000000000081526004016108769061238f565b60405180910390fd5b81600860006101000a81548160ff021916908360038111156108a4576108a3612174565b5b021790555060019050919050565b600180546108bf906123de565b80601f01602080910402602001604051908101604052809291908181526020018280546108eb906123de565b80156109385780601f1061090d57610100808354040283529160200191610938565b820191906000526020600020905b81548152906001019060200180831161091b57829003601f168201915b505050505081565b600081600560003373ffffffffffffffffffffffffffffffffffffffff1673ffffffffffffffffffffffffffffffffffffffff1681526020019081526020016000205410156109c4576040517f08c379a00000000000000000000000000000000000000000000000000000000081526004016109bb9061245c565b60405180910390fd5b81600660003373ffffffffffffffffffffffffffffffffffffffff1673ffffffffffffffffffffffffffffffffffffffff16815260200190815260200160002060008573ffffffffffffffffffffffffffffffffffffffff1673ffffffffffffffffffffffffffffffffffffffff1681526020019081526020016000206000828254610a5091906124ab565b925050819055508273ffffffffffffffffffffffffffffffffffffffff163373ffffffffffffffffffffffffffffffffffffffff167f8c5be1e5ebec7d5bd14f71427d1e84f3dd0314c0f7b2291e5b200ac8c7c3b92584604051610ab49190611eee565b60405180910390a36001905092915050565b600d60009054906101000a900473ffffffffffffffffffffffffffffffffffffffff1681565b60045481565b6000601254905090565b600a6020528060005260406000206000915090505481565b600081600660008673ffffffffffffffffffffffffffffffffffffffff1673ffffffffffffffffffffffffffffffffffffffff16815260200190815260200160002060003373ffffffffffffffffffffffffffffffffffffffff1673ffffffffffffffffffffffffffffffffffffffff168152602001908152602001600020541015610bd5576040517f08c379a0000000000000000000000000000000000000000000000000000000008152600401610bcc9061254d565b60405180910390fd5b81600560008673ffffffffffffffffffffffffffffffffffffffff1673ffffffffffffffffffffffffffffffffffffffff168152602001908152602001600020541015610c57576040517f08c379a0000000000000000000000000000000000000000000000000000000008152600401610c4e906125b9565b60405180910390fd5b81600560008673ffffffffffffffffffffffffffffffffffffffff1673ffffffffffffffffffffffffffffffffffffffff1681526020019081526020016000206000828254610ca691906125d9565b9250508190555081600660008673ffffffffffffffffffffffffffffffffffffffff1673ffffffffffffffffffffffffffffffffffffffff16815260200190815260200160002060003373ffffffffffffffffffffffffffffffffffffffff1673ffffffffffffffffffffffffffffffffffffffff1681526020019081526020016000206000828254610d3991906125d9565b9250508190555081600560008573ffffffffffffffffffffffffffffffffffffffff1673ffffffffffffffffffffffffffffffffffffffff1681526020019081526020016000206000828254610d8f91906124ab565b925050819055508273ffffffffffffffffffffffffffffffffffffffff168473ffffffffffffffffffffffffffffffffffffffff167fddf252ad1be2c89b69c2b068fc378daa952ba7f163c4a11628f55a4df523b3ef84604051610df39190611eee565b60405180910390a3600190509392505050565b6000610e10611deb565b6000349050601054811015610e5a576040517f08c379a0000000000000000000000000000000000000000000000000000000008152600401610e519061267f565b60405180910390fd5b601154811115610e9f576040517f08c379a0000000000000000000000000000000000000000000000000000000008152600401610e9690612711565b60405180910390fd5b601154600960003373ffffffffffffffffffffffffffffffffffffffff1673ffffffffffffffffffffffffffffffffffffffff1681526020019081526020016000205410610f22576040517f08c379a0000000000000000000000000000000000000000000000000000000008152600401610f199061277d565b60405180910390fd5b601354600f541015610f69576040517f08c379a0000000000000000000000000000000000000000000000000000000008152600401610f60906127e9565b60405180910390fd5b6000600e5482610f799190612838565b905080600560003373ffffffffffffffffffffffffffffffffffffffff1673ffffffffffffffffffffffffffffffffffffffff1681526020019081526020016000206000828254610fca91906124ab565b9250508190555080600560008060009054906101000a900473ffffffffffffffffffffffffffffffffffffffff1673ffffffffffffffffffffffffffffffffffffffff1673ffffffffffffffffffffffffffffffffffffffff168152602001908152602001600020600082825461104191906125d9565b92505081905550806012600082825461105a91906124ab565b92505081905550816013600082825461107391906124ab565b9250508190555081600960003373ffffffffffffffffffffffffffffffffffffffff1673ffffffffffffffffffffffffffffffffffffffff16815260200190815260200160002060008282546110c991906124ab565b925050819055506000600d60009054906101000a900473ffffffffffffffffffffffffffffffffffffffff1673ffffffffffffffffffffffffffffffffffffffff16836040516111189061289a565b60006040518083038185875af1925050503d8060008114611155576040519150601f19603f3d011682016040523d82523d6000602084013e61115a565b606091505b505090507f000000000000000000000000000000000000000000000000000000000000000073ffffffffffffffffffffffffffffffffffffffff1663095ea7b330846040518363ffffffff1660e01b81526004016111b99291906128af565b602060405180830381600087803b1580156111d357600080fd5b505af11580156111e7573d6000803e3d6000fd5b505050506040513d601f19601f8201168201806040525081019061120b9190612904565b5060007f000000000000000000000000000000000000000000000000000000000000000073ffffffffffffffffffffffffffffffffffffffff166323b872dd60008054906101000a900473ffffffffffffffffffffffffffffffffffffffff1633866040518463ffffffff1660e01b815260040161128b93929190612931565b602060405180830381600087803b1580156112a557600080fd5b505af11580156112b9573d6000803e3d6000fd5b505050506040513d601f19601f820116820180604052508101906112dd9190612904565b90508061131f576040517f08c379a0000000000000000000000000000000000000000000000000000000008152600401611316906129b4565b60405180910390fd5b8161135f576040517f08c379a0000000000000000000000000000000000000000000000000000000008152600401611356906129b4565b60405180910390fd5b3373ffffffffffffffffffffffffffffffffffffffff167fe68a9497b26026cfe65dde2a240cbd548cb5209e66fd442c464d9390124c97a485856040516113a79291906129d4565b60405180910390a260019450505050506113bf611e3b565b90565b60056020528060005260406000206000915090505481565b60035481565b6000601354905090565b60008054906101000a900473ffffffffffffffffffffffffffffffffffffffff1673ffffffffffffffffffffffffffffffffffffffff163373ffffffffffffffffffffffffffffffffffffffff1614611478576040517f08c379a000000000000000000000000000000000000000000000000000000000815260040161146f9061238f565b60405180910390fd5b600073ffffffffffffffffffffffffffffffffffffffff168273ffffffffffffffffffffffffffffffffffffffff1614156114e8576040517f08c379a00000000000000000000000000000000000000000000000000000000081526004016114df90612a49565b60405180910390fd5b80600560008473ffffffffffffffffffffffffffffffffffffffff1673ffffffffffffffffffffffffffffffffffffffff168152602001908152602001600020600082825461153791906124ab565b92505081905550806004600082825461155091906124ab565b925050819055505050565b60008054906101000a900473ffffffffffffffffffffffffffffffffffffffff1673ffffffffffffffffffffffffffffffffffffffff163373ffffffffffffffffffffffffffffffffffffffff16146115e9576040517f08c379a00000000000000000000000000000000000000000000000000000000081526004016115e09061238f565b60405180910390fd5b600073ffffffffffffffffffffffffffffffffffffffff163373ffffffffffffffffffffffffffffffffffffffff161415611659576040517f08c379a000000000000000000000000000000000000000000000000000000000815260040161165090612a49565b60405180910390fd5b806004600082825461166b91906125d9565b9250508190555080600560003373ffffffffffffffffffffffffffffffffffffffff1673ffffffffffffffffffffffffffffffffffffffff16815260200190815260200160002060008282546116c191906125d9565b9250508190555050565b6000600560008373ffffffffffffffffffffffffffffffffffffffff1673ffffffffffffffffffffffffffffffffffffffff168152602001908152602001600020549050919050565b6000600e54905090565b6000600860009054906101000a900460ff16905090565b60008054906101000a900473ffffffffffffffffffffffffffffffffffffffff1681565b60028054611766906123de565b80601f0160208091040260200160405190810160405280929190818152602001828054611792906123de565b80156117df5780601f106117b4576101008083540402835291602001916117df565b820191906000526020600020905b8154815290600101906020018083116117c257829003601f168201915b505050505081565b60007f000000000000000000000000000000000000000000000000000000000000000073ffffffffffffffffffffffffffffffffffffffff166370a08231306040518263ffffffff1660e01b81526004016118429190612215565b60206040518083038186803b15801561185a57600080fd5b505afa15801561186e573d6000803e3d6000fd5b505050506040513d601f19601f820116820180604052508101906118929190612a7e565b905090565b600081600560003373ffffffffffffffffffffffffffffffffffffffff1673ffffffffffffffffffffffffffffffffffffffff16815260200190815260200160002054101561191b576040517f08c379a0000000000000000000000000000000000000000000000000000000008152600401611912906125b9565b60405180910390fd5b81600560008573ffffffffffffffffffffffffffffffffffffffff1673ffffffffffffffffffffffffffffffffffffffff168152602001908152602001600020600082825461196a91906124ab565b9250508190555081600560003373ffffffffffffffffffffffffffffffffffffffff1673ffffffffffffffffffffffffffffffffffffffff16815260200190815260200160002060008282546119c091906125d9565b925050819055508273ffffffffffffffffffffffffffffffffffffffff163373ffffffffffffffffffffffffffffffffffffffff167fddf252ad1be2c89b69c2b068fc378daa952ba7f163c4a11628f55a4df523b3ef84604051611a249190611eee565b60405180910390a36001905092915050565b600b54421015611a70576003600860006101000a81548160ff02191690836003811115611a6657611a65612174565b5b0217905550611b1f565b600b544210158015611a835750600c5442105b15611ab8576000600860006101000a81548160ff02191690836003811115611aae57611aad612174565b5b0217905550611b1e565b600c544210611af1576001600860006101000a81548160ff02191690836003811115611ae757611ae6612174565b5b0217905550611b1d565b6002600860006101000a81548160ff02191690836003811115611b1757611b16612174565b5b02179055505b5b5b565b600b5481565b7f000000000000000000000000000000000000000000000000000000000000000081565b6000600f54905090565b6000601154905090565b6000600660008473ffffffffffffffffffffffffffffffffffffffff1673ffffffffffffffffffffffffffffffffffffffff16815260200190815260200160002060008373ffffffffffffffffffffffffffffffffffffffff1673ffffffffffffffffffffffffffffffffffffffff16815260200190815260200160002054905092915050565b600c5481565b60008060009054906101000a900473ffffffffffffffffffffffffffffffffffffffff1673ffffffffffffffffffffffffffffffffffffffff163373ffffffffffffffffffffffffffffffffffffffff1614611c7d576040517f08c379a0000000000000000000000000000000000000000000000000000000008152600401611c749061238f565b60405180910390fd5b601354600a6000600d60009054906101000a900473ffffffffffffffffffffffffffffffffffffffff1673ffffffffffffffffffffffffffffffffffffffff1673ffffffffffffffffffffffffffffffffffffffff168152602001908152602001600020819055506000600a60008473ffffffffffffffffffffffffffffffffffffffff1673ffffffffffffffffffffffffffffffffffffffff1681526020019081526020016000208190555081600d60006101000a81548173ffffffffffffffffffffffffffffffffffffffff021916908373ffffffffffffffffffffffffffffffffffffffff1602179055508173ffffffffffffffffffffffffffffffffffffffff167fe18df40eeddef87940bd2ad46470782f5f2422489af5fedc571da1389fcb7d0860405160405180910390a260019050919050565b6000601054905090565b6000600d60009054906101000a900473ffffffffffffffffffffffffffffffffffffffff16905090565b60026007541415611e31576040517f08c379a0000000000000000000000000000000000000000000000000000000008152600401611e2890612af7565b60405180910390fd5b6002600781905550565b6001600781905550565b600080fd5b600073ffffffffffffffffffffffffffffffffffffffff82169050919050565b6000611e7582611e4a565b9050919050565b611e8581611e6a565b8114611e9057600080fd5b50565b600081359050611ea281611e7c565b92915050565b600060208284031215611ebe57611ebd611e45565b5b6000611ecc84828501611e93565b91505092915050565b6000819050919050565b611ee881611ed5565b82525050565b6000602082019050611f036000830184611edf565b92915050565b60048110611f1657600080fd5b50565b600081359050611f2881611f09565b92915050565b600060208284031215611f4457611f43611e45565b5b6000611f5284828501611f19565b91505092915050565b60008115159050919050565b611f7081611f5b565b82525050565b6000602082019050611f8b6000830184611f67565b92915050565b600081519050919050565b600082825260208201905092915050565b60005b83811015611fcb578082015181840152602081019050611fb0565b83811115611fda576000848401525b50505050565b6000601f19601f8301169050919050565b6000611ffc82611f91565b6120068185611f9c565b9350612016818560208601611fad565b61201f81611fe0565b840191505092915050565b600060208201905081810360008301526120448184611ff1565b905092915050565b61205581611ed5565b811461206057600080fd5b50565b6000813590506120728161204c565b92915050565b6000806040838503121561208f5761208e611e45565b5b600061209d85828601611e93565b92505060206120ae85828601612063565b9150509250929050565b60006120c382611e4a565b9050919050565b6120d3816120b8565b82525050565b60006020820190506120ee60008301846120ca565b92915050565b60008060006060848603121561210d5761210c611e45565b5b600061211b86828701611e93565b935050602061212c86828701611e93565b925050604061213d86828701612063565b9150509250925092565b60006020828403121561215d5761215c611e45565b5b600061216b84828501612063565b91505092915050565b7f4e487b7100000000000000000000000000000000000000000000000000000000600052602160045260246000fd5b600481106121b4576121b3612174565b5b50565b60008190506121c5826121a3565b919050565b60006121d5826121b7565b9050919050565b6121e5816121ca565b82525050565b600060208201905061220060008301846121dc565b92915050565b61220f81611e6a565b82525050565b600060208201905061222a6000830184612206565b92915050565b6000819050919050565b600061225561225061224b84611e4a565b612230565b611e4a565b9050919050565b60006122678261223a565b9050919050565b60006122798261225c565b9050919050565b6122898161226e565b82525050565b60006020820190506122a46000830184612280565b92915050565b600080604083850312156122c1576122c0611e45565b5b60006122cf85828601611e93565b92505060206122e085828601611e93565b9150509250929050565b6122f3816120b8565b81146122fe57600080fd5b50565b600081359050612310816122ea565b92915050565b60006020828403121561232c5761232b611e45565b5b600061233a84828501612301565b91505092915050565b7f4f6e6c792041646d696e20686173207065726d697373696f6e00000000000000600082015250565b6000612379601983611f9c565b915061238482612343565b602082019050919050565b600060208201905081810360008301526123a88161236c565b9050919050565b7f4e487b7100000000000000000000000000000000000000000000000000000000600052602260045260246000fd5b600060028204905060018216806123f657607f821691505b6020821081141561240a576124096123af565b5b50919050565b7f496e73756666696369656e7420546f6b656e0000000000000000000000000000600082015250565b6000612446601283611f9c565b915061245182612410565b602082019050919050565b6000602082019050818103600083015261247581612439565b9050919050565b7f4e487b7100000000000000000000000000000000000000000000000000000000600052601160045260246000fd5b60006124b682611ed5565b91506124c183611ed5565b9250827fffffffffffffffffffffffffffffffffffffffffffffffffffffffffffffffff038211156124f6576124f561247c565b5b828201905092915050565b7f496e73756666696369656e7420416d6f756e7400000000000000000000000000600082015250565b6000612537601383611f9c565b915061254282612501565b602082019050919050565b600060208201905081810360008301526125668161252a565b9050919050565b7f496e73756666696369656e7420546f6b656e20416d6f756e7400000000000000600082015250565b60006125a3601983611f9c565b91506125ae8261256d565b602082019050919050565b600060208201905081810360008301526125d281612596565b9050919050565b60006125e482611ed5565b91506125ef83611ed5565b9250828210156126025761260161247c565b5b828203905092915050565b7f456e74657220612056616c696420416d6f756e742c204d696e696d756d20616d60008201527f6f756e7420697320302e30303120455448000000000000000000000000000000602082015250565b6000612669603183611f9c565b91506126748261260d565b604082019050919050565b600060208201905081810360008301526126988161265c565b9050919050565b7f456e74657220612056616c696420416d6f756e742c204d6178696d756d20616d60008201527f6f756e7420697320302e30303120455448000000000000000000000000000000602082015250565b60006126fb603183611f9c565b91506127068261269f565b604082019050919050565b6000602082019050818103600083015261272a816126ee565b9050919050565b7f45786365656420796f75206c696d697420666f72207468652049434f00000000600082015250565b6000612767601c83611f9c565b915061277282612731565b602082019050919050565b600060208201905081810360008301526127968161275a565b9050919050565b7f49434f2068617320436c6f736564000000000000000000000000000000000000600082015250565b60006127d3600e83611f9c565b91506127de8261279d565b602082019050919050565b60006020820190508181036000830152612802816127c6565b9050919050565b7f4e487b7100000000000000000000000000000000000000000000000000000000600052601260045260246000fd5b600061284382611ed5565b915061284e83611ed5565b92508261285e5761285d612809565b5b828204905092915050565b600081905092915050565b50565b6000612884600083612869565b915061288f82612874565b600082019050919050565b60006128a582612877565b9150819050919050565b60006040820190506128c46000830185612206565b6128d16020830184611edf565b9392505050565b6128e181611f5b565b81146128ec57600080fd5b50565b6000815190506128fe816128d8565b92915050565b60006020828403121561291a57612919611e45565b5b6000612928848285016128ef565b91505092915050565b60006060820190506129466000830186612206565b6129536020830185612206565b6129606040830184611edf565b949350505050565b7f4661696c65640000000000000000000000000000000000000000000000000000600082015250565b600061299e600683611f9c565b91506129a982612968565b602082019050919050565b600060208201905081810360008301526129cd81612991565b9050919050565b60006040820190506129e96000830185611edf565b6129f66020830184611edf565b9392505050565b7f3020416464726573730000000000000000000000000000000000000000000000600082015250565b6000612a33600983611f9c565b9150612a3e826129fd565b602082019050919050565b60006020820190508181036000830152612a6281612a26565b9050919050565b600081519050612a788161204c565b92915050565b600060208284031215612a9457612a93611e45565b5b6000612aa284828501612a69565b91505092915050565b7f5265656e7472616e637947756172643a207265656e7472616e742063616c6c00600082015250565b6000612ae1601f83611f9c565b9150612aec82612aab565b602082019050919050565b60006020820190508181036000830152612b1081612ad4565b905091905056fea264697066735822122071c62b3653429dc233a592f5eb533fef8f15df32f3f874f2b415179a36a00e2664736f6c63430008090033",
  "linkReferences": {},
  "deployedLinkReferences": {}
}