{
  "_format": "hh-sol-artifact-1",
  "contractName": "SageExchange",
  "sourceName": "contracts/SageExchange.sol",
  "abi": [
    {
      "inputs": [
        {
          "internalType": "address payable",
          "name": "_admin",
          "type": "address"
        }
      ],
      "stateMutability": "nonpayable",
      "type": "constructor"
    },
    {
      "anonymous": false,
      "inputs": [
        {
          "indexed": true,
          "internalType": "address",
          "name": "owner",
          "type": "address"
        },
        {
          "indexed": true,
          "internalType": "address",
          "name": "spender",
          "type": "address"
        },
        {
          "indexed": false,
          "internalType": "uint256",
          "name": "value",
          "type": "uint256"
        }
      ],
      "name": "Approval",
      "type": "event"
    },
    {
      "anonymous": false,
      "inputs": [
        {
          "indexed": false,
          "internalType": "uint256",
          "name": "amount",
          "type": "uint256"
        },
        {
          "indexed": false,
          "internalType": "uint256",
          "name": "tokens",
          "type": "uint256"
        },
        {
          "indexed": true,
          "internalType": "address",
          "name": "buyer",
          "type": "address"
        }
      ],
      "name": "Invest",
      "type": "event"
    },
    {
      "anonymous": false,
      "inputs": [
        {
          "indexed": true,
          "internalType": "address",
          "name": "from",
          "type": "address"
        },
        {
          "indexed": true,
          "internalType": "address",
          "name": "to",
          "type": "address"
        },
        {
          "indexed": false,
          "internalType": "uint256",
          "name": "value",
          "type": "uint256"
        }
      ],
      "name": "Transfer",
      "type": "event"
    },
    {
      "anonymous": false,
      "inputs": [
        {
          "indexed": true,
          "internalType": "address",
          "name": "adminaddress",
          "type": "address"
        }
      ],
      "name": "UpdatedadminAdress",
      "type": "event"
    },
    {
      "inputs": [],
      "name": "ICOInvest",
      "outputs": [
        {
          "internalType": "bool",
          "name": "",
          "type": "bool"
        }
      ],
      "stateMutability": "payable",
      "type": "function"
    },
    {
      "inputs": [],
      "name": "ICOStatus",
      "outputs": [],
      "stateMutability": "nonpayable",
      "type": "function"
    },
    {
      "inputs": [
        {
          "internalType": "address",
          "name": "_owner",
          "type": "address"
        },
        {
          "internalType": "address",
          "name": "spender",
          "type": "address"
        }
      ],
      "name": "allowance",
      "outputs": [
        {
          "internalType": "uint256",
          "name": "",
          "type": "uint256"
        }
      ],
      "stateMutability": "view",
      "type": "function"
    },
    {
      "inputs": [
        {
          "internalType": "address",
          "name": "spender",
          "type": "address"
        },
        {
          "internalType": "uint256",
          "name": "amount",
          "type": "uint256"
        }
      ],
      "name": "approve",
      "outputs": [
        {
          "internalType": "bool",
          "name": "",
          "type": "bool"
        }
      ],
      "stateMutability": "nonpayable",
      "type": "function"
    },
    {
      "inputs": [
        {
          "internalType": "address",
          "name": "tokenAddress",
          "type": "address"
        }
      ],
      "name": "balanceOf",
      "outputs": [
        {
          "internalType": "uint256",
          "name": "",
          "type": "uint256"
        }
      ],
      "stateMutability": "view",
      "type": "function"
    },
    {
      "inputs": [
        {
          "internalType": "address",
          "name": "",
          "type": "address"
        }
      ],
      "name": "balances",
      "outputs": [
        {
          "internalType": "uint256",
          "name": "",
          "type": "uint256"
        }
      ],
      "stateMutability": "view",
      "type": "function"
    },
    {
      "inputs": [
        {
          "internalType": "uint256",
          "name": "amount",
          "type": "uint256"
        }
      ],
      "name": "burn",
      "outputs": [],
      "stateMutability": "nonpayable",
      "type": "function"
    },
    {
      "inputs": [
        {
          "internalType": "address payable",
          "name": "_adminaddress",
          "type": "address"
        }
      ],
      "name": "changeAdminAdress",
      "outputs": [
        {
          "internalType": "bool",
          "name": "",
          "type": "bool"
        }
      ],
      "stateMutability": "nonpayable",
      "type": "function"
    },
    {
      "inputs": [
        {
          "internalType": "enum SageExchange.ICOState",
          "name": "_status",
          "type": "uint8"
        }
      ],
      "name": "changeICOState",
      "outputs": [
        {
          "internalType": "bool",
          "name": "",
          "type": "bool"
        }
      ],
      "stateMutability": "nonpayable",
      "type": "function"
    },
    {
      "inputs": [],
      "name": "decimals",
      "outputs": [
        {
          "internalType": "uint256",
          "name": "",
          "type": "uint256"
        }
      ],
      "stateMutability": "view",
      "type": "function"
    },
    {
      "inputs": [],
      "name": "getAmountDeposit",
      "outputs": [
        {
          "internalType": "uint256",
          "name": "",
          "type": "uint256"
        }
      ],
      "stateMutability": "view",
      "type": "function"
    },
    {
      "inputs": [],
      "name": "getTokenAmount",
      "outputs": [
        {
          "internalType": "uint256",
          "name": "",
          "type": "uint256"
        }
      ],
      "stateMutability": "view",
      "type": "function"
    },
    {
      "inputs": [],
      "name": "getTokenPurchase",
      "outputs": [
        {
          "internalType": "uint256",
          "name": "",
          "type": "uint256"
        }
      ],
      "stateMutability": "view",
      "type": "function"
    },
    {
      "inputs": [],
      "name": "gethardcap",
      "outputs": [
        {
          "internalType": "uint256",
          "name": "",
          "type": "uint256"
        }
      ],
      "stateMutability": "view",
      "type": "function"
    },
    {
      "inputs": [],
      "name": "geticostate",
      "outputs": [
        {
          "internalType": "enum SageExchange.ICOState",
          "name": "",
          "type": "uint8"
        }
      ],
      "stateMutability": "view",
      "type": "function"
    },
    {
      "inputs": [],
      "name": "getmaximumAmount",
      "outputs": [
        {
          "internalType": "uint256",
          "name": "",
          "type": "uint256"
        }
      ],
      "stateMutability": "view",
      "type": "function"
    },
    {
      "inputs": [],
      "name": "getminimumAmount",
      "outputs": [
        {
          "internalType": "uint256",
          "name": "",
          "type": "uint256"
        }
      ],
      "stateMutability": "view",
      "type": "function"
    },
    {
      "inputs": [],
      "name": "getowner",
      "outputs": [
        {
          "internalType": "address",
          "name": "",
          "type": "address"
        }
      ],
      "stateMutability": "view",
      "type": "function"
    },
    {
      "inputs": [
        {
          "internalType": "address",
          "name": "to",
          "type": "address"
        },
        {
          "internalType": "uint256",
          "name": "amount",
          "type": "uint256"
        }
      ],
      "name": "mint",
      "outputs": [],
      "stateMutability": "nonpayable",
      "type": "function"
    },
    {
      "inputs": [],
      "name": "name",
      "outputs": [
        {
          "internalType": "string",
          "name": "",
          "type": "string"
        }
      ],
      "stateMutability": "view",
      "type": "function"
    },
    {
      "inputs": [],
      "name": "owner",
      "outputs": [
        {
          "internalType": "address",
          "name": "",
          "type": "address"
        }
      ],
      "stateMutability": "view",
      "type": "function"
    },
    {
      "inputs": [],
      "name": "s_admin",
      "outputs": [
        {
          "internalType": "address payable",
          "name": "",
          "type": "address"
        }
      ],
      "stateMutability": "view",
      "type": "function"
    },
    {
      "inputs": [
        {
          "internalType": "address",
          "name": "",
          "type": "address"
        }
      ],
      "name": "s_adminaddress",
      "outputs": [
        {
          "internalType": "uint256",
          "name": "",
          "type": "uint256"
        }
      ],
      "stateMutability": "view",
      "type": "function"
    },
    {
      "inputs": [],
      "name": "s_timeend",
      "outputs": [
        {
          "internalType": "uint256",
          "name": "",
          "type": "uint256"
        }
      ],
      "stateMutability": "view",
      "type": "function"
    },
    {
      "inputs": [],
      "name": "s_timestart",
      "outputs": [
        {
          "internalType": "uint256",
          "name": "",
          "type": "uint256"
        }
      ],
      "stateMutability": "view",
      "type": "function"
    },
    {
      "inputs": [
        {
          "internalType": "address",
          "name": "",
          "type": "address"
        }
      ],
      "name": "s_userBalances",
      "outputs": [
        {
          "internalType": "uint256",
          "name": "",
          "type": "uint256"
        }
      ],
      "stateMutability": "view",
      "type": "function"
    },
    {
      "inputs": [],
      "name": "symbol",
      "outputs": [
        {
          "internalType": "string",
          "name": "",
          "type": "string"
        }
      ],
      "stateMutability": "view",
      "type": "function"
    },
    {
      "inputs": [],
      "name": "totalSupply",
      "outputs": [
        {
          "internalType": "uint256",
          "name": "",
          "type": "uint256"
        }
      ],
      "stateMutability": "view",
      "type": "function"
    },
    {
      "inputs": [
        {
          "internalType": "address",
          "name": "to",
          "type": "address"
        },
        {
          "internalType": "uint256",
          "name": "tokens",
          "type": "uint256"
        }
      ],
      "name": "transfer",
      "outputs": [
        {
          "internalType": "bool",
          "name": "",
          "type": "bool"
        }
      ],
      "stateMutability": "nonpayable",
      "type": "function"
    },
    {
      "inputs": [
        {
          "internalType": "address",
          "name": "from",
          "type": "address"
        },
        {
          "internalType": "address",
          "name": "to",
          "type": "address"
        },
        {
          "internalType": "uint256",
          "name": "amount",
          "type": "uint256"
        }
      ],
      "name": "transferFrom",
      "outputs": [
        {
          "internalType": "bool",
          "name": "",
          "type": "bool"
        }
      ],
      "stateMutability": "nonpayable",
      "type": "function"
    }
  ],
  "bytecode": "0x60806040523480156200001157600080fd5b5060405162002b5038038062002b508339818101604052810190620000379190620003e6565b336000806101000a81548173ffffffffffffffffffffffffffffffffffffffff021916908373ffffffffffffffffffffffffffffffffffffffff1602179055506040518060400160405280600481526020017f534147450000000000000000000000000000000000000000000000000000000081525060019080519060200190620000c4929190620002cc565b506040518060400160405280600381526020017f53414700000000000000000000000000000000000000000000000000000000008152506002908051906020019062000112929190620002cc565b50600a6003819055506a084595161401484a000000600481905550600454600560008060009054906101000a900473ffffffffffffffffffffffffffffffffffffffff1673ffffffffffffffffffffffffffffffffffffffff1673ffffffffffffffffffffffffffffffffffffffff16815260200190815260200160002081905550600160078190555080600d60006101000a81548173ffffffffffffffffffffffffffffffffffffffff021916908373ffffffffffffffffffffffffffffffffffffffff16021790555066038d7ea4c68000600e81905550674563918244f40000600f8190555066038d7ea4c68000601081905550670de0b6b3a7640000601181905550603c4262000226919062000451565b600b81905550610e10426200023c919062000451565b600c819055506003600860006101000a81548160ff021916908360038111156200026b576200026a620004ae565b5b0217905550600060138190555060006012819055506000600a60008373ffffffffffffffffffffffffffffffffffffffff1673ffffffffffffffffffffffffffffffffffffffff168152602001908152602001600020819055505062000542565b828054620002da906200050c565b90600052602060002090601f016020900481019282620002fe57600085556200034a565b82601f106200031957805160ff19168380011785556200034a565b828001600101855582156200034a579182015b82811115620003495782518255916020019190600101906200032c565b5b5090506200035991906200035d565b5090565b5b80821115620003785760008160009055506001016200035e565b5090565b600080fd5b600073ffffffffffffffffffffffffffffffffffffffff82169050919050565b6000620003ae8262000381565b9050919050565b620003c081620003a1565b8114620003cc57600080fd5b50565b600081519050620003e081620003b5565b92915050565b600060208284031215620003ff57620003fe6200037c565b5b60006200040f84828501620003cf565b91505092915050565b6000819050919050565b7f4e487b7100000000000000000000000000000000000000000000000000000000600052601160045260246000fd5b60006200045e8262000418565b91506200046b8362000418565b9250827fffffffffffffffffffffffffffffffffffffffffffffffffffffffffffffffff03821115620004a357620004a262000422565b5b828201905092915050565b7f4e487b7100000000000000000000000000000000000000000000000000000000600052602160045260246000fd5b7f4e487b7100000000000000000000000000000000000000000000000000000000600052602260045260246000fd5b600060028204905060018216806200052557607f821691505b602082108114156200053c576200053b620004dd565b5b50919050565b6125fe80620005526000396000f3fe6080604052600436106101cc5760003560e01c806370a08231116100f7578063b52ffe6c11610095578063e2d5521811610064578063e2d55218146106ac578063e9f6f42e146106d7578063fc57d83c14610714578063fe0174bd1461073f576101cc565b8063b52ffe6c146105ee578063c61a08c114610619578063ce9b070a14610644578063dd62ed3e1461066f576101cc565b80638da5cb5b116100d15780638da5cb5b1461054457806395d89b411461056f578063a9059cbb1461059a578063b4590cbe146105d7576101cc565b806370a08231146104b157806375f91ec8146104ee578063889ed10814610519576101cc565b80632122ce201161016f578063313ce5671161013e578063313ce5671461040957806337fe22391461043457806340c10f191461045f57806342966c6814610488576101cc565b80632122ce201461033457806323b872dd1461037157806327881d6c146103ae57806327e235e3146103cc576101cc565b8063095ea7b3116101ab578063095ea7b314610276578063132788cf146102b357806318160ddd146102de5780631cd0453914610309576101cc565b8062379844146101d157806306642c661461020e57806306fdde031461024b575b600080fd5b3480156101dd57600080fd5b506101f860048036038101906101f39190611ba6565b61076a565b6040516102059190611bec565b60405180910390f35b34801561021a57600080fd5b5061023560048036038101906102309190611c2c565b610782565b6040516102429190611c74565b60405180910390f35b34801561025757600080fd5b50610260610846565b60405161026d9190611d28565b60405180910390f35b34801561028257600080fd5b5061029d60048036038101906102989190611d76565b6108d4565b6040516102aa9190611c74565b60405180910390f35b3480156102bf57600080fd5b506102c8610a5a565b6040516102d59190611dd7565b60405180910390f35b3480156102ea57600080fd5b506102f3610a80565b6040516103009190611bec565b60405180910390f35b34801561031557600080fd5b5061031e610a86565b60405161032b9190611bec565b60405180910390f35b34801561034057600080fd5b5061035b60048036038101906103569190611ba6565b610a90565b6040516103689190611bec565b60405180910390f35b34801561037d57600080fd5b5061039860048036038101906103939190611df2565b610aa8565b6040516103a59190611c74565b60405180910390f35b6103b6610d9a565b6040516103c39190611c74565b60405180910390f35b3480156103d857600080fd5b506103f360048036038101906103ee9190611ba6565b611194565b6040516104009190611bec565b60405180910390f35b34801561041557600080fd5b5061041e6111ac565b60405161042b9190611bec565b60405180910390f35b34801561044057600080fd5b506104496111b2565b6040516104569190611bec565b60405180910390f35b34801561046b57600080fd5b5061048660048036038101906104819190611d76565b6111bc565b005b34801561049457600080fd5b506104af60048036038101906104aa9190611e45565b61132d565b005b3480156104bd57600080fd5b506104d860048036038101906104d39190611ba6565b61149d565b6040516104e59190611bec565b60405180910390f35b3480156104fa57600080fd5b506105036114e6565b6040516105109190611bec565b60405180910390f35b34801561052557600080fd5b5061052e6114f0565b60405161053b9190611ee9565b60405180910390f35b34801561055057600080fd5b50610559611507565b6040516105669190611f13565b60405180910390f35b34801561057b57600080fd5b5061058461152b565b6040516105919190611d28565b60405180910390f35b3480156105a657600080fd5b506105c160048036038101906105bc9190611d76565b6115b9565b6040516105ce9190611c74565b60405180910390f35b3480156105e357600080fd5b506105ec611758565b005b3480156105fa57600080fd5b50610603611843565b6040516106109190611bec565b60405180910390f35b34801561062557600080fd5b5061062e611849565b60405161063b9190611bec565b60405180910390f35b34801561065057600080fd5b50610659611853565b6040516106669190611bec565b60405180910390f35b34801561067b57600080fd5b5061069660048036038101906106919190611f2e565b61185d565b6040516106a39190611bec565b60405180910390f35b3480156106b857600080fd5b506106c16118e4565b6040516106ce9190611bec565b60405180910390f35b3480156106e357600080fd5b506106fe60048036038101906106f99190611f9a565b6118ea565b60405161070b9190611c74565b60405180910390f35b34801561072057600080fd5b50610729611ab5565b6040516107369190611bec565b60405180910390f35b34801561074b57600080fd5b50610754611abf565b6040516107619190611f13565b60405180910390f35b60096020528060005260406000206000915090505481565b60008060009054906101000a900473ffffffffffffffffffffffffffffffffffffffff1673ffffffffffffffffffffffffffffffffffffffff163373ffffffffffffffffffffffffffffffffffffffff1614610813576040517f08c379a000000000000000000000000000000000000000000000000000000000815260040161080a90612013565b60405180910390fd5b81600860006101000a81548160ff0219169083600381111561083857610837611e72565b5b021790555060019050919050565b6001805461085390612062565b80601f016020809104026020016040519081016040528092919081815260200182805461087f90612062565b80156108cc5780601f106108a1576101008083540402835291602001916108cc565b820191906000526020600020905b8154815290600101906020018083116108af57829003601f168201915b505050505081565b600081600560003373ffffffffffffffffffffffffffffffffffffffff1673ffffffffffffffffffffffffffffffffffffffff168152602001908152602001600020541015610958576040517f08c379a000000000000000000000000000000000000000000000000000000000815260040161094f906120e0565b60405180910390fd5b81600660003373ffffffffffffffffffffffffffffffffffffffff1673ffffffffffffffffffffffffffffffffffffffff16815260200190815260200160002060008573ffffffffffffffffffffffffffffffffffffffff1673ffffffffffffffffffffffffffffffffffffffff16815260200190815260200160002060008282546109e4919061212f565b925050819055508273ffffffffffffffffffffffffffffffffffffffff163373ffffffffffffffffffffffffffffffffffffffff167f8c5be1e5ebec7d5bd14f71427d1e84f3dd0314c0f7b2291e5b200ac8c7c3b92584604051610a489190611bec565b60405180910390a36001905092915050565b600d60009054906101000a900473ffffffffffffffffffffffffffffffffffffffff1681565b60045481565b6000601254905090565b600a6020528060005260406000206000915090505481565b600081600660008673ffffffffffffffffffffffffffffffffffffffff1673ffffffffffffffffffffffffffffffffffffffff16815260200190815260200160002060003373ffffffffffffffffffffffffffffffffffffffff1673ffffffffffffffffffffffffffffffffffffffff168152602001908152602001600020541015610b69576040517f08c379a0000000000000000000000000000000000000000000000000000000008152600401610b60906120e0565b60405180910390fd5b81600560008673ffffffffffffffffffffffffffffffffffffffff1673ffffffffffffffffffffffffffffffffffffffff168152602001908152602001600020541015610beb576040517f08c379a0000000000000000000000000000000000000000000000000000000008152600401610be2906120e0565b60405180910390fd5b81600560008673ffffffffffffffffffffffffffffffffffffffff1673ffffffffffffffffffffffffffffffffffffffff1681526020019081526020016000206000828254610c3a9190612185565b9250508190555081600660008673ffffffffffffffffffffffffffffffffffffffff1673ffffffffffffffffffffffffffffffffffffffff16815260200190815260200160002060003373ffffffffffffffffffffffffffffffffffffffff1673ffffffffffffffffffffffffffffffffffffffff1681526020019081526020016000206000828254610ccd9190612185565b9250508190555081600560008573ffffffffffffffffffffffffffffffffffffffff1673ffffffffffffffffffffffffffffffffffffffff1681526020019081526020016000206000828254610d23919061212f565b925050819055508273ffffffffffffffffffffffffffffffffffffffff168473ffffffffffffffffffffffffffffffffffffffff167fddf252ad1be2c89b69c2b068fc378daa952ba7f163c4a11628f55a4df523b3ef84604051610d879190611bec565b60405180910390a3600190509392505050565b6000610da4611ae9565b6000349050601054811015610dee576040517f08c379a0000000000000000000000000000000000000000000000000000000008152600401610de59061222b565b60405180910390fd5b601154811115610e33576040517f08c379a0000000000000000000000000000000000000000000000000000000008152600401610e2a906122bd565b60405180910390fd5b601154600960003373ffffffffffffffffffffffffffffffffffffffff1673ffffffffffffffffffffffffffffffffffffffff1681526020019081526020016000205410610eb6576040517f08c379a0000000000000000000000000000000000000000000000000000000008152600401610ead90612329565b60405180910390fd5b601354600f541015610efd576040517f08c379a0000000000000000000000000000000000000000000000000000000008152600401610ef490612395565b60405180910390fd5b6000600e5482610f0d91906123e4565b905080600560003373ffffffffffffffffffffffffffffffffffffffff1673ffffffffffffffffffffffffffffffffffffffff1681526020019081526020016000206000828254610f5e919061212f565b9250508190555080600560008060009054906101000a900473ffffffffffffffffffffffffffffffffffffffff1673ffffffffffffffffffffffffffffffffffffffff1673ffffffffffffffffffffffffffffffffffffffff1681526020019081526020016000206000828254610fd59190612185565b925050819055508060126000828254610fee919061212f565b925050819055508160136000828254611007919061212f565b9250508190555081600960003373ffffffffffffffffffffffffffffffffffffffff1673ffffffffffffffffffffffffffffffffffffffff168152602001908152602001600020600082825461105d919061212f565b925050819055506000600d60009054906101000a900473ffffffffffffffffffffffffffffffffffffffff1673ffffffffffffffffffffffffffffffffffffffff16836040516110ac90612446565b60006040518083038185875af1925050503d80600081146110e9576040519150601f19603f3d011682016040523d82523d6000602084013e6110ee565b606091505b5050905080611132576040517f08c379a0000000000000000000000000000000000000000000000000000000008152600401611129906124a7565b60405180910390fd5b3373ffffffffffffffffffffffffffffffffffffffff167fe68a9497b26026cfe65dde2a240cbd548cb5209e66fd442c464d9390124c97a4848460405161117a9291906124c7565b60405180910390a260019350505050611191611b39565b90565b60056020528060005260406000206000915090505481565b60035481565b6000601354905090565b60008054906101000a900473ffffffffffffffffffffffffffffffffffffffff1673ffffffffffffffffffffffffffffffffffffffff163373ffffffffffffffffffffffffffffffffffffffff161461124a576040517f08c379a000000000000000000000000000000000000000000000000000000000815260040161124190612013565b60405180910390fd5b600073ffffffffffffffffffffffffffffffffffffffff168273ffffffffffffffffffffffffffffffffffffffff1614156112ba576040517f08c379a00000000000000000000000000000000000000000000000000000000081526004016112b19061253c565b60405180910390fd5b80600560008473ffffffffffffffffffffffffffffffffffffffff1673ffffffffffffffffffffffffffffffffffffffff1681526020019081526020016000206000828254611309919061212f565b925050819055508060046000828254611322919061212f565b925050819055505050565b60008054906101000a900473ffffffffffffffffffffffffffffffffffffffff1673ffffffffffffffffffffffffffffffffffffffff163373ffffffffffffffffffffffffffffffffffffffff16146113bb576040517f08c379a00000000000000000000000000000000000000000000000000000000081526004016113b290612013565b60405180910390fd5b600073ffffffffffffffffffffffffffffffffffffffff163373ffffffffffffffffffffffffffffffffffffffff16141561142b576040517f08c379a00000000000000000000000000000000000000000000000000000000081526004016114229061253c565b60405180910390fd5b806004600082825461143d9190612185565b9250508190555080600560003373ffffffffffffffffffffffffffffffffffffffff1673ffffffffffffffffffffffffffffffffffffffff16815260200190815260200160002060008282546114939190612185565b9250508190555050565b6000600560008373ffffffffffffffffffffffffffffffffffffffff1673ffffffffffffffffffffffffffffffffffffffff168152602001908152602001600020549050919050565b6000600e54905090565b6000600860009054906101000a900460ff16905090565b60008054906101000a900473ffffffffffffffffffffffffffffffffffffffff1681565b6002805461153890612062565b80601f016020809104026020016040519081016040528092919081815260200182805461156490612062565b80156115b15780601f10611586576101008083540402835291602001916115b1565b820191906000526020600020905b81548152906001019060200180831161159457829003601f168201915b505050505081565b600081600560003373ffffffffffffffffffffffffffffffffffffffff1673ffffffffffffffffffffffffffffffffffffffff16815260200190815260200160002054101561163d576040517f08c379a0000000000000000000000000000000000000000000000000000000008152600401611634906120e0565b60405180910390fd5b81600560008573ffffffffffffffffffffffffffffffffffffffff1673ffffffffffffffffffffffffffffffffffffffff168152602001908152602001600020600082825461168c919061212f565b9250508190555081600560003373ffffffffffffffffffffffffffffffffffffffff1673ffffffffffffffffffffffffffffffffffffffff16815260200190815260200160002060008282546116e29190612185565b925050819055508273ffffffffffffffffffffffffffffffffffffffff163373ffffffffffffffffffffffffffffffffffffffff167fddf252ad1be2c89b69c2b068fc378daa952ba7f163c4a11628f55a4df523b3ef846040516117469190611bec565b60405180910390a36001905092915050565b600b54421015611792576003600860006101000a81548160ff0219169083600381111561178857611787611e72565b5b0217905550611841565b600b5442101580156117a55750600c5442105b156117da576000600860006101000a81548160ff021916908360038111156117d0576117cf611e72565b5b0217905550611840565b600c544210611813576001600860006101000a81548160ff0219169083600381111561180957611808611e72565b5b021790555061183f565b6002600860006101000a81548160ff0219169083600381111561183957611838611e72565b5b02179055505b5b5b565b600b5481565b6000600f54905090565b6000601154905090565b6000600660008473ffffffffffffffffffffffffffffffffffffffff1673ffffffffffffffffffffffffffffffffffffffff16815260200190815260200160002060008373ffffffffffffffffffffffffffffffffffffffff1673ffffffffffffffffffffffffffffffffffffffff16815260200190815260200160002054905092915050565b600c5481565b60008060009054906101000a900473ffffffffffffffffffffffffffffffffffffffff1673ffffffffffffffffffffffffffffffffffffffff163373ffffffffffffffffffffffffffffffffffffffff161461197b576040517f08c379a000000000000000000000000000000000000000000000000000000000815260040161197290612013565b60405180910390fd5b601354600a6000600d60009054906101000a900473ffffffffffffffffffffffffffffffffffffffff1673ffffffffffffffffffffffffffffffffffffffff1673ffffffffffffffffffffffffffffffffffffffff168152602001908152602001600020819055506000600a60008473ffffffffffffffffffffffffffffffffffffffff1673ffffffffffffffffffffffffffffffffffffffff1681526020019081526020016000208190555081600d60006101000a81548173ffffffffffffffffffffffffffffffffffffffff021916908373ffffffffffffffffffffffffffffffffffffffff1602179055508173ffffffffffffffffffffffffffffffffffffffff167fe18df40eeddef87940bd2ad46470782f5f2422489af5fedc571da1389fcb7d0860405160405180910390a260019050919050565b6000601054905090565b6000600d60009054906101000a900473ffffffffffffffffffffffffffffffffffffffff16905090565b60026007541415611b2f576040517f08c379a0000000000000000000000000000000000000000000000000000000008152600401611b26906125a8565b60405180910390fd5b6002600781905550565b6001600781905550565b600080fd5b600073ffffffffffffffffffffffffffffffffffffffff82169050919050565b6000611b7382611b48565b9050919050565b611b8381611b68565b8114611b8e57600080fd5b50565b600081359050611ba081611b7a565b92915050565b600060208284031215611bbc57611bbb611b43565b5b6000611bca84828501611b91565b91505092915050565b6000819050919050565b611be681611bd3565b82525050565b6000602082019050611c016000830184611bdd565b92915050565b60048110611c1457600080fd5b50565b600081359050611c2681611c07565b92915050565b600060208284031215611c4257611c41611b43565b5b6000611c5084828501611c17565b91505092915050565b60008115159050919050565b611c6e81611c59565b82525050565b6000602082019050611c896000830184611c65565b92915050565b600081519050919050565b600082825260208201905092915050565b60005b83811015611cc9578082015181840152602081019050611cae565b83811115611cd8576000848401525b50505050565b6000601f19601f8301169050919050565b6000611cfa82611c8f565b611d048185611c9a565b9350611d14818560208601611cab565b611d1d81611cde565b840191505092915050565b60006020820190508181036000830152611d428184611cef565b905092915050565b611d5381611bd3565b8114611d5e57600080fd5b50565b600081359050611d7081611d4a565b92915050565b60008060408385031215611d8d57611d8c611b43565b5b6000611d9b85828601611b91565b9250506020611dac85828601611d61565b9150509250929050565b6000611dc182611b48565b9050919050565b611dd181611db6565b82525050565b6000602082019050611dec6000830184611dc8565b92915050565b600080600060608486031215611e0b57611e0a611b43565b5b6000611e1986828701611b91565b9350506020611e2a86828701611b91565b9250506040611e3b86828701611d61565b9150509250925092565b600060208284031215611e5b57611e5a611b43565b5b6000611e6984828501611d61565b91505092915050565b7f4e487b7100000000000000000000000000000000000000000000000000000000600052602160045260246000fd5b60048110611eb257611eb1611e72565b5b50565b6000819050611ec382611ea1565b919050565b6000611ed382611eb5565b9050919050565b611ee381611ec8565b82525050565b6000602082019050611efe6000830184611eda565b92915050565b611f0d81611b68565b82525050565b6000602082019050611f286000830184611f04565b92915050565b60008060408385031215611f4557611f44611b43565b5b6000611f5385828601611b91565b9250506020611f6485828601611b91565b9150509250929050565b611f7781611db6565b8114611f8257600080fd5b50565b600081359050611f9481611f6e565b92915050565b600060208284031215611fb057611faf611b43565b5b6000611fbe84828501611f85565b91505092915050565b7f4f6e6c792041646d696e20686173207065726d697373696f6e00000000000000600082015250565b6000611ffd601983611c9a565b915061200882611fc7565b602082019050919050565b6000602082019050818103600083015261202c81611ff0565b9050919050565b7f4e487b7100000000000000000000000000000000000000000000000000000000600052602260045260246000fd5b6000600282049050600182168061207a57607f821691505b6020821081141561208e5761208d612033565b5b50919050565b7f496e73756666696369656e7420546f6b656e20416d6f756e7400000000000000600082015250565b60006120ca601983611c9a565b91506120d582612094565b602082019050919050565b600060208201905081810360008301526120f9816120bd565b9050919050565b7f4e487b7100000000000000000000000000000000000000000000000000000000600052601160045260246000fd5b600061213a82611bd3565b915061214583611bd3565b9250827fffffffffffffffffffffffffffffffffffffffffffffffffffffffffffffffff0382111561217a57612179612100565b5b828201905092915050565b600061219082611bd3565b915061219b83611bd3565b9250828210156121ae576121ad612100565b5b828203905092915050565b7f456e74657220612056616c696420416d6f756e742c204d696e696d756d20616d60008201527f6f756e7420697320302e30303120455448000000000000000000000000000000602082015250565b6000612215603183611c9a565b9150612220826121b9565b604082019050919050565b6000602082019050818103600083015261224481612208565b9050919050565b7f456e74657220612056616c696420416d6f756e742c204d6178696d756d20616d60008201527f6f756e7420697320302e30303120455448000000000000000000000000000000602082015250565b60006122a7603183611c9a565b91506122b28261224b565b604082019050919050565b600060208201905081810360008301526122d68161229a565b9050919050565b7f45786365656420796f75206c696d697420666f72207468652049434f00000000600082015250565b6000612313601c83611c9a565b915061231e826122dd565b602082019050919050565b6000602082019050818103600083015261234281612306565b9050919050565b7f49434f2068617320436c6f736564000000000000000000000000000000000000600082015250565b600061237f600e83611c9a565b915061238a82612349565b602082019050919050565b600060208201905081810360008301526123ae81612372565b9050919050565b7f4e487b7100000000000000000000000000000000000000000000000000000000600052601260045260246000fd5b60006123ef82611bd3565b91506123fa83611bd3565b92508261240a576124096123b5565b5b828204905092915050565b600081905092915050565b50565b6000612430600083612415565b915061243b82612420565b600082019050919050565b600061245182612423565b9150819050919050565b7f4661696c65640000000000000000000000000000000000000000000000000000600082015250565b6000612491600683611c9a565b915061249c8261245b565b602082019050919050565b600060208201905081810360008301526124c081612484565b9050919050565b60006040820190506124dc6000830185611bdd565b6124e96020830184611bdd565b9392505050565b7f3020416464726573730000000000000000000000000000000000000000000000600082015250565b6000612526600983611c9a565b9150612531826124f0565b602082019050919050565b6000602082019050818103600083015261255581612519565b9050919050565b7f5265656e7472616e637947756172643a207265656e7472616e742063616c6c00600082015250565b6000612592601f83611c9a565b915061259d8261255c565b602082019050919050565b600060208201905081810360008301526125c181612585565b905091905056fea2646970667358221220ce8b2600110bc93b676e74e89facd11e4f3b42d6c56b2446da2b67ea31002ab064736f6c63430008090033",
  "linkReferences": {},
  "deployedLinkReferences": {}
}