{
  "_format": "hh-sol-artifact-1",
  "contractName": "SageExchange",
  "sourceName": "contracts/SageExchange.sol",
  "abi": [
    {
      "inputs": [
        {
          "internalType": "address payable",
          "name": "_admin",
          "type": "address"
        }
      ],
      "stateMutability": "nonpayable",
      "type": "constructor"
    },
    {
      "anonymous": false,
      "inputs": [
        {
          "indexed": true,
          "internalType": "address",
          "name": "owner",
          "type": "address"
        },
        {
          "indexed": true,
          "internalType": "address",
          "name": "spender",
          "type": "address"
        },
        {
          "indexed": false,
          "internalType": "uint256",
          "name": "value",
          "type": "uint256"
        }
      ],
      "name": "Approval",
      "type": "event"
    },
    {
      "anonymous": false,
      "inputs": [
        {
          "indexed": false,
          "internalType": "uint256",
          "name": "amount",
          "type": "uint256"
        },
        {
          "indexed": false,
          "internalType": "uint256",
          "name": "tokens",
          "type": "uint256"
        },
        {
          "indexed": true,
          "internalType": "address",
          "name": "buyer",
          "type": "address"
        }
      ],
      "name": "Invest",
      "type": "event"
    },
    {
      "anonymous": false,
      "inputs": [
        {
          "indexed": true,
          "internalType": "address",
          "name": "from",
          "type": "address"
        },
        {
          "indexed": true,
          "internalType": "address",
          "name": "to",
          "type": "address"
        },
        {
          "indexed": false,
          "internalType": "uint256",
          "name": "value",
          "type": "uint256"
        }
      ],
      "name": "Transfer",
      "type": "event"
    },
    {
      "anonymous": false,
      "inputs": [
        {
          "indexed": true,
          "internalType": "address",
          "name": "adminaddress",
          "type": "address"
        }
      ],
      "name": "UpdatedadminAdress",
      "type": "event"
    },
    {
      "inputs": [],
      "name": "ICOInvest",
      "outputs": [
        {
          "internalType": "bool",
          "name": "",
          "type": "bool"
        }
      ],
      "stateMutability": "payable",
      "type": "function"
    },
    {
      "inputs": [],
      "name": "ICOStatus",
      "outputs": [],
      "stateMutability": "nonpayable",
      "type": "function"
    },
    {
      "inputs": [
        {
          "internalType": "address",
          "name": "_owner",
          "type": "address"
        },
        {
          "internalType": "address",
          "name": "spender",
          "type": "address"
        }
      ],
      "name": "allowance",
      "outputs": [
        {
          "internalType": "uint256",
          "name": "",
          "type": "uint256"
        }
      ],
      "stateMutability": "view",
      "type": "function"
    },
    {
      "inputs": [
        {
          "internalType": "address",
          "name": "spender",
          "type": "address"
        },
        {
          "internalType": "uint256",
          "name": "amount",
          "type": "uint256"
        }
      ],
      "name": "approve",
      "outputs": [
        {
          "internalType": "bool",
          "name": "",
          "type": "bool"
        }
      ],
      "stateMutability": "nonpayable",
      "type": "function"
    },
    {
      "inputs": [
        {
          "internalType": "address",
          "name": "tokenAddress",
          "type": "address"
        }
      ],
      "name": "balanceOf",
      "outputs": [
        {
          "internalType": "uint256",
          "name": "",
          "type": "uint256"
        }
      ],
      "stateMutability": "view",
      "type": "function"
    },
    {
      "inputs": [
        {
          "internalType": "address",
          "name": "",
          "type": "address"
        }
      ],
      "name": "balances",
      "outputs": [
        {
          "internalType": "uint256",
          "name": "",
          "type": "uint256"
        }
      ],
      "stateMutability": "view",
      "type": "function"
    },
    {
      "inputs": [
        {
          "internalType": "uint256",
          "name": "amount",
          "type": "uint256"
        }
      ],
      "name": "burn",
      "outputs": [],
      "stateMutability": "nonpayable",
      "type": "function"
    },
    {
      "inputs": [
        {
          "internalType": "address payable",
          "name": "_adminaddress",
          "type": "address"
        }
      ],
      "name": "changeAdminAdress",
      "outputs": [
        {
          "internalType": "bool",
          "name": "",
          "type": "bool"
        }
      ],
      "stateMutability": "nonpayable",
      "type": "function"
    },
    {
      "inputs": [
        {
          "internalType": "enum SageExchange.ICOState",
          "name": "_status",
          "type": "uint8"
        }
      ],
      "name": "changeICOState",
      "outputs": [
        {
          "internalType": "bool",
          "name": "",
          "type": "bool"
        }
      ],
      "stateMutability": "nonpayable",
      "type": "function"
    },
    {
      "inputs": [],
      "name": "decimals",
      "outputs": [
        {
          "internalType": "uint256",
          "name": "",
          "type": "uint256"
        }
      ],
      "stateMutability": "view",
      "type": "function"
    },
    {
      "inputs": [],
      "name": "getAmountDeposit",
      "outputs": [
        {
          "internalType": "uint256",
          "name": "",
          "type": "uint256"
        }
      ],
      "stateMutability": "view",
      "type": "function"
    },
    {
      "inputs": [],
      "name": "getTokenAmount",
      "outputs": [
        {
          "internalType": "uint256",
          "name": "",
          "type": "uint256"
        }
      ],
      "stateMutability": "view",
      "type": "function"
    },
    {
      "inputs": [],
      "name": "getTokenPurchase",
      "outputs": [
        {
          "internalType": "uint256",
          "name": "",
          "type": "uint256"
        }
      ],
      "stateMutability": "view",
      "type": "function"
    },
    {
      "inputs": [],
      "name": "gethardcap",
      "outputs": [
        {
          "internalType": "uint256",
          "name": "",
          "type": "uint256"
        }
      ],
      "stateMutability": "view",
      "type": "function"
    },
    {
      "inputs": [],
      "name": "geticostate",
      "outputs": [
        {
          "internalType": "enum SageExchange.ICOState",
          "name": "",
          "type": "uint8"
        }
      ],
      "stateMutability": "view",
      "type": "function"
    },
    {
      "inputs": [],
      "name": "getmaximumAmount",
      "outputs": [
        {
          "internalType": "uint256",
          "name": "",
          "type": "uint256"
        }
      ],
      "stateMutability": "view",
      "type": "function"
    },
    {
      "inputs": [],
      "name": "getminimumAmount",
      "outputs": [
        {
          "internalType": "uint256",
          "name": "",
          "type": "uint256"
        }
      ],
      "stateMutability": "view",
      "type": "function"
    },
    {
      "inputs": [],
      "name": "getowner",
      "outputs": [
        {
          "internalType": "address",
          "name": "",
          "type": "address"
        }
      ],
      "stateMutability": "view",
      "type": "function"
    },
    {
      "inputs": [
        {
          "internalType": "address",
          "name": "to",
          "type": "address"
        },
        {
          "internalType": "uint256",
          "name": "amount",
          "type": "uint256"
        }
      ],
      "name": "mint",
      "outputs": [],
      "stateMutability": "nonpayable",
      "type": "function"
    },
    {
      "inputs": [],
      "name": "name",
      "outputs": [
        {
          "internalType": "string",
          "name": "",
          "type": "string"
        }
      ],
      "stateMutability": "view",
      "type": "function"
    },
    {
      "inputs": [],
      "name": "owner",
      "outputs": [
        {
          "internalType": "address",
          "name": "",
          "type": "address"
        }
      ],
      "stateMutability": "view",
      "type": "function"
    },
    {
      "inputs": [],
      "name": "s_admin",
      "outputs": [
        {
          "internalType": "address payable",
          "name": "",
          "type": "address"
        }
      ],
      "stateMutability": "view",
      "type": "function"
    },
    {
      "inputs": [
        {
          "internalType": "address",
          "name": "",
          "type": "address"
        }
      ],
      "name": "s_adminaddress",
      "outputs": [
        {
          "internalType": "uint256",
          "name": "",
          "type": "uint256"
        }
      ],
      "stateMutability": "view",
      "type": "function"
    },
    {
      "inputs": [],
      "name": "s_timeend",
      "outputs": [
        {
          "internalType": "uint256",
          "name": "",
          "type": "uint256"
        }
      ],
      "stateMutability": "view",
      "type": "function"
    },
    {
      "inputs": [],
      "name": "s_timestart",
      "outputs": [
        {
          "internalType": "uint256",
          "name": "",
          "type": "uint256"
        }
      ],
      "stateMutability": "view",
      "type": "function"
    },
    {
      "inputs": [
        {
          "internalType": "address",
          "name": "",
          "type": "address"
        }
      ],
      "name": "s_userBalances",
      "outputs": [
        {
          "internalType": "uint256",
          "name": "",
          "type": "uint256"
        }
      ],
      "stateMutability": "view",
      "type": "function"
    },
    {
      "inputs": [],
      "name": "symbol",
      "outputs": [
        {
          "internalType": "string",
          "name": "",
          "type": "string"
        }
      ],
      "stateMutability": "view",
      "type": "function"
    },
    {
      "inputs": [],
      "name": "totalSupply",
      "outputs": [
        {
          "internalType": "uint256",
          "name": "",
          "type": "uint256"
        }
      ],
      "stateMutability": "view",
      "type": "function"
    },
    {
      "inputs": [
        {
          "internalType": "address",
          "name": "to",
          "type": "address"
        },
        {
          "internalType": "uint256",
          "name": "tokens",
          "type": "uint256"
        }
      ],
      "name": "transfer",
      "outputs": [
        {
          "internalType": "bool",
          "name": "",
          "type": "bool"
        }
      ],
      "stateMutability": "nonpayable",
      "type": "function"
    },
    {
      "inputs": [
        {
          "internalType": "address",
          "name": "from",
          "type": "address"
        },
        {
          "internalType": "address",
          "name": "to",
          "type": "address"
        },
        {
          "internalType": "uint256",
          "name": "amount",
          "type": "uint256"
        }
      ],
      "name": "transferFrom",
      "outputs": [
        {
          "internalType": "bool",
          "name": "",
          "type": "bool"
        }
      ],
      "stateMutability": "nonpayable",
      "type": "function"
    }
  ],
  "bytecode": "0x60806040523480156200001157600080fd5b5060405162002a2438038062002a248339818101604052810190620000379190620003e6565b336000806101000a81548173ffffffffffffffffffffffffffffffffffffffff021916908373ffffffffffffffffffffffffffffffffffffffff1602179055506040518060400160405280600481526020017f534147450000000000000000000000000000000000000000000000000000000081525060019080519060200190620000c4929190620002cc565b506040518060400160405280600381526020017f53414700000000000000000000000000000000000000000000000000000000008152506002908051906020019062000112929190620002cc565b50600a6003819055506a084595161401484a000000600481905550600454600560008060009054906101000a900473ffffffffffffffffffffffffffffffffffffffff1673ffffffffffffffffffffffffffffffffffffffff1673ffffffffffffffffffffffffffffffffffffffff16815260200190815260200160002081905550600160078190555080600d60006101000a81548173ffffffffffffffffffffffffffffffffffffffff021916908373ffffffffffffffffffffffffffffffffffffffff16021790555066038d7ea4c68000600e81905550674563918244f40000600f8190555066038d7ea4c68000601081905550670de0b6b3a7640000601181905550603c4262000226919062000451565b600b81905550610e10426200023c919062000451565b600c819055506003600860006101000a81548160ff021916908360038111156200026b576200026a620004ae565b5b0217905550600060138190555060006012819055506000600a60008373ffffffffffffffffffffffffffffffffffffffff1673ffffffffffffffffffffffffffffffffffffffff168152602001908152602001600020819055505062000542565b828054620002da906200050c565b90600052602060002090601f016020900481019282620002fe57600085556200034a565b82601f106200031957805160ff19168380011785556200034a565b828001600101855582156200034a579182015b82811115620003495782518255916020019190600101906200032c565b5b5090506200035991906200035d565b5090565b5b80821115620003785760008160009055506001016200035e565b5090565b600080fd5b600073ffffffffffffffffffffffffffffffffffffffff82169050919050565b6000620003ae8262000381565b9050919050565b620003c081620003a1565b8114620003cc57600080fd5b50565b600081519050620003e081620003b5565b92915050565b600060208284031215620003ff57620003fe6200037c565b5b60006200040f84828501620003cf565b91505092915050565b6000819050919050565b7f4e487b7100000000000000000000000000000000000000000000000000000000600052601160045260246000fd5b60006200045e8262000418565b91506200046b8362000418565b9250827fffffffffffffffffffffffffffffffffffffffffffffffffffffffffffffffff03821115620004a357620004a262000422565b5b828201905092915050565b7f4e487b7100000000000000000000000000000000000000000000000000000000600052602160045260246000fd5b7f4e487b7100000000000000000000000000000000000000000000000000000000600052602260045260246000fd5b600060028204905060018216806200052557607f821691505b602082108114156200053c576200053b620004dd565b5b50919050565b6124d280620005526000396000f3fe6080604052600436106101cc5760003560e01c806370a08231116100f7578063b52ffe6c11610095578063e2d5521811610064578063e2d55218146106ac578063e9f6f42e146106d7578063fc57d83c14610714578063fe0174bd1461073f576101cc565b8063b52ffe6c146105ee578063c61a08c114610619578063ce9b070a14610644578063dd62ed3e1461066f576101cc565b80638da5cb5b116100d15780638da5cb5b1461054457806395d89b411461056f578063a9059cbb1461059a578063b4590cbe146105d7576101cc565b806370a08231146104b157806375f91ec8146104ee578063889ed10814610519576101cc565b80632122ce201161016f578063313ce5671161013e578063313ce5671461040957806337fe22391461043457806340c10f191461045f57806342966c6814610488576101cc565b80632122ce201461033457806323b872dd1461037157806327881d6c146103ae57806327e235e3146103cc576101cc565b8063095ea7b3116101ab578063095ea7b314610276578063132788cf146102b357806318160ddd146102de5780631cd0453914610309576101cc565b8062379844146101d157806306642c661461020e57806306fdde031461024b575b600080fd5b3480156101dd57600080fd5b506101f860048036038101906101f39190611b0c565b61076a565b6040516102059190611b52565b60405180910390f35b34801561021a57600080fd5b5061023560048036038101906102309190611b92565b610782565b6040516102429190611bda565b60405180910390f35b34801561025757600080fd5b50610260610846565b60405161026d9190611c8e565b60405180910390f35b34801561028257600080fd5b5061029d60048036038101906102989190611cdc565b6108d4565b6040516102aa9190611bda565b60405180910390f35b3480156102bf57600080fd5b506102c8610a5a565b6040516102d59190611d3d565b60405180910390f35b3480156102ea57600080fd5b506102f3610a80565b6040516103009190611b52565b60405180910390f35b34801561031557600080fd5b5061031e610a86565b60405161032b9190611b52565b60405180910390f35b34801561034057600080fd5b5061035b60048036038101906103569190611b0c565b610a90565b6040516103689190611b52565b60405180910390f35b34801561037d57600080fd5b5061039860048036038101906103939190611d58565b610aa8565b6040516103a59190611bda565b60405180910390f35b6103b6610d9a565b6040516103c39190611bda565b60405180910390f35b3480156103d857600080fd5b506103f360048036038101906103ee9190611b0c565b6110fa565b6040516104009190611b52565b60405180910390f35b34801561041557600080fd5b5061041e611112565b60405161042b9190611b52565b60405180910390f35b34801561044057600080fd5b50610449611118565b6040516104569190611b52565b60405180910390f35b34801561046b57600080fd5b5061048660048036038101906104819190611cdc565b611122565b005b34801561049457600080fd5b506104af60048036038101906104aa9190611dab565b611293565b005b3480156104bd57600080fd5b506104d860048036038101906104d39190611b0c565b611403565b6040516104e59190611b52565b60405180910390f35b3480156104fa57600080fd5b5061050361144c565b6040516105109190611b52565b60405180910390f35b34801561052557600080fd5b5061052e611456565b60405161053b9190611e4f565b60405180910390f35b34801561055057600080fd5b5061055961146d565b6040516105669190611e79565b60405180910390f35b34801561057b57600080fd5b50610584611491565b6040516105919190611c8e565b60405180910390f35b3480156105a657600080fd5b506105c160048036038101906105bc9190611cdc565b61151f565b6040516105ce9190611bda565b60405180910390f35b3480156105e357600080fd5b506105ec6116be565b005b3480156105fa57600080fd5b506106036117a9565b6040516106109190611b52565b60405180910390f35b34801561062557600080fd5b5061062e6117af565b60405161063b9190611b52565b60405180910390f35b34801561065057600080fd5b506106596117b9565b6040516106669190611b52565b60405180910390f35b34801561067b57600080fd5b5061069660048036038101906106919190611e94565b6117c3565b6040516106a39190611b52565b60405180910390f35b3480156106b857600080fd5b506106c161184a565b6040516106ce9190611b52565b60405180910390f35b3480156106e357600080fd5b506106fe60048036038101906106f99190611f00565b611850565b60405161070b9190611bda565b60405180910390f35b34801561072057600080fd5b50610729611a1b565b6040516107369190611b52565b60405180910390f35b34801561074b57600080fd5b50610754611a25565b6040516107619190611e79565b60405180910390f35b60096020528060005260406000206000915090505481565b60008060009054906101000a900473ffffffffffffffffffffffffffffffffffffffff1673ffffffffffffffffffffffffffffffffffffffff163373ffffffffffffffffffffffffffffffffffffffff1614610813576040517f08c379a000000000000000000000000000000000000000000000000000000000815260040161080a90611f79565b60405180910390fd5b81600860006101000a81548160ff0219169083600381111561083857610837611dd8565b5b021790555060019050919050565b6001805461085390611fc8565b80601f016020809104026020016040519081016040528092919081815260200182805461087f90611fc8565b80156108cc5780601f106108a1576101008083540402835291602001916108cc565b820191906000526020600020905b8154815290600101906020018083116108af57829003601f168201915b505050505081565b600081600560003373ffffffffffffffffffffffffffffffffffffffff1673ffffffffffffffffffffffffffffffffffffffff168152602001908152602001600020541015610958576040517f08c379a000000000000000000000000000000000000000000000000000000000815260040161094f90612046565b60405180910390fd5b81600660003373ffffffffffffffffffffffffffffffffffffffff1673ffffffffffffffffffffffffffffffffffffffff16815260200190815260200160002060008573ffffffffffffffffffffffffffffffffffffffff1673ffffffffffffffffffffffffffffffffffffffff16815260200190815260200160002060008282546109e49190612095565b925050819055508273ffffffffffffffffffffffffffffffffffffffff163373ffffffffffffffffffffffffffffffffffffffff167f8c5be1e5ebec7d5bd14f71427d1e84f3dd0314c0f7b2291e5b200ac8c7c3b92584604051610a489190611b52565b60405180910390a36001905092915050565b600d60009054906101000a900473ffffffffffffffffffffffffffffffffffffffff1681565b60045481565b6000601254905090565b600a6020528060005260406000206000915090505481565b600081600660008673ffffffffffffffffffffffffffffffffffffffff1673ffffffffffffffffffffffffffffffffffffffff16815260200190815260200160002060003373ffffffffffffffffffffffffffffffffffffffff1673ffffffffffffffffffffffffffffffffffffffff168152602001908152602001600020541015610b69576040517f08c379a0000000000000000000000000000000000000000000000000000000008152600401610b6090612046565b60405180910390fd5b81600560008673ffffffffffffffffffffffffffffffffffffffff1673ffffffffffffffffffffffffffffffffffffffff168152602001908152602001600020541015610beb576040517f08c379a0000000000000000000000000000000000000000000000000000000008152600401610be290612046565b60405180910390fd5b81600560008673ffffffffffffffffffffffffffffffffffffffff1673ffffffffffffffffffffffffffffffffffffffff1681526020019081526020016000206000828254610c3a91906120eb565b9250508190555081600660008673ffffffffffffffffffffffffffffffffffffffff1673ffffffffffffffffffffffffffffffffffffffff16815260200190815260200160002060003373ffffffffffffffffffffffffffffffffffffffff1673ffffffffffffffffffffffffffffffffffffffff1681526020019081526020016000206000828254610ccd91906120eb565b9250508190555081600560008573ffffffffffffffffffffffffffffffffffffffff1673ffffffffffffffffffffffffffffffffffffffff1681526020019081526020016000206000828254610d239190612095565b925050819055508273ffffffffffffffffffffffffffffffffffffffff168473ffffffffffffffffffffffffffffffffffffffff167fddf252ad1be2c89b69c2b068fc378daa952ba7f163c4a11628f55a4df523b3ef84604051610d879190611b52565b60405180910390a3600190509392505050565b6000610da4611a4f565b6000349050601054811015610dee576040517f08c379a0000000000000000000000000000000000000000000000000000000008152600401610de590612191565b60405180910390fd5b601154600960003373ffffffffffffffffffffffffffffffffffffffff1673ffffffffffffffffffffffffffffffffffffffff168152602001908152602001600020541115610e72576040517f08c379a0000000000000000000000000000000000000000000000000000000008152600401610e69906121fd565b60405180910390fd5b601354600f541015610eb9576040517f08c379a0000000000000000000000000000000000000000000000000000000008152600401610eb090612269565b60405180910390fd5b6000600e5482610ec991906122b8565b905080600560003373ffffffffffffffffffffffffffffffffffffffff1673ffffffffffffffffffffffffffffffffffffffff1681526020019081526020016000206000828254610f1a9190612095565b9250508190555080600560008060009054906101000a900473ffffffffffffffffffffffffffffffffffffffff1673ffffffffffffffffffffffffffffffffffffffff1673ffffffffffffffffffffffffffffffffffffffff1681526020019081526020016000206000828254610f9191906120eb565b925050819055508060126000828254610faa9190612095565b925050819055508160136000828254610fc39190612095565b925050819055506000600d60009054906101000a900473ffffffffffffffffffffffffffffffffffffffff1673ffffffffffffffffffffffffffffffffffffffff16836040516110129061231a565b60006040518083038185875af1925050503d806000811461104f576040519150601f19603f3d011682016040523d82523d6000602084013e611054565b606091505b5050905080611098576040517f08c379a000000000000000000000000000000000000000000000000000000000815260040161108f9061237b565b60405180910390fd5b3373ffffffffffffffffffffffffffffffffffffffff167fe68a9497b26026cfe65dde2a240cbd548cb5209e66fd442c464d9390124c97a484846040516110e092919061239b565b60405180910390a2600193505050506110f7611a9f565b90565b60056020528060005260406000206000915090505481565b60035481565b6000601354905090565b60008054906101000a900473ffffffffffffffffffffffffffffffffffffffff1673ffffffffffffffffffffffffffffffffffffffff163373ffffffffffffffffffffffffffffffffffffffff16146111b0576040517f08c379a00000000000000000000000000000000000000000000000000000000081526004016111a790611f79565b60405180910390fd5b600073ffffffffffffffffffffffffffffffffffffffff168273ffffffffffffffffffffffffffffffffffffffff161415611220576040517f08c379a000000000000000000000000000000000000000000000000000000000815260040161121790612410565b60405180910390fd5b80600560008473ffffffffffffffffffffffffffffffffffffffff1673ffffffffffffffffffffffffffffffffffffffff168152602001908152602001600020600082825461126f9190612095565b9250508190555080600460008282546112889190612095565b925050819055505050565b60008054906101000a900473ffffffffffffffffffffffffffffffffffffffff1673ffffffffffffffffffffffffffffffffffffffff163373ffffffffffffffffffffffffffffffffffffffff1614611321576040517f08c379a000000000000000000000000000000000000000000000000000000000815260040161131890611f79565b60405180910390fd5b600073ffffffffffffffffffffffffffffffffffffffff163373ffffffffffffffffffffffffffffffffffffffff161415611391576040517f08c379a000000000000000000000000000000000000000000000000000000000815260040161138890612410565b60405180910390fd5b80600460008282546113a391906120eb565b9250508190555080600560003373ffffffffffffffffffffffffffffffffffffffff1673ffffffffffffffffffffffffffffffffffffffff16815260200190815260200160002060008282546113f991906120eb565b9250508190555050565b6000600560008373ffffffffffffffffffffffffffffffffffffffff1673ffffffffffffffffffffffffffffffffffffffff168152602001908152602001600020549050919050565b6000600e54905090565b6000600860009054906101000a900460ff16905090565b60008054906101000a900473ffffffffffffffffffffffffffffffffffffffff1681565b6002805461149e90611fc8565b80601f01602080910402602001604051908101604052809291908181526020018280546114ca90611fc8565b80156115175780601f106114ec57610100808354040283529160200191611517565b820191906000526020600020905b8154815290600101906020018083116114fa57829003601f168201915b505050505081565b600081600560003373ffffffffffffffffffffffffffffffffffffffff1673ffffffffffffffffffffffffffffffffffffffff1681526020019081526020016000205410156115a3576040517f08c379a000000000000000000000000000000000000000000000000000000000815260040161159a90612046565b60405180910390fd5b81600560008573ffffffffffffffffffffffffffffffffffffffff1673ffffffffffffffffffffffffffffffffffffffff16815260200190815260200160002060008282546115f29190612095565b9250508190555081600560003373ffffffffffffffffffffffffffffffffffffffff1673ffffffffffffffffffffffffffffffffffffffff168152602001908152602001600020600082825461164891906120eb565b925050819055508273ffffffffffffffffffffffffffffffffffffffff163373ffffffffffffffffffffffffffffffffffffffff167fddf252ad1be2c89b69c2b068fc378daa952ba7f163c4a11628f55a4df523b3ef846040516116ac9190611b52565b60405180910390a36001905092915050565b600b544210156116f8576003600860006101000a81548160ff021916908360038111156116ee576116ed611dd8565b5b02179055506117a7565b600b54421015801561170b5750600c5442105b15611740576000600860006101000a81548160ff0219169083600381111561173657611735611dd8565b5b02179055506117a6565b600c544210611779576001600860006101000a81548160ff0219169083600381111561176f5761176e611dd8565b5b02179055506117a5565b6002600860006101000a81548160ff0219169083600381111561179f5761179e611dd8565b5b02179055505b5b5b565b600b5481565b6000600f54905090565b6000601154905090565b6000600660008473ffffffffffffffffffffffffffffffffffffffff1673ffffffffffffffffffffffffffffffffffffffff16815260200190815260200160002060008373ffffffffffffffffffffffffffffffffffffffff1673ffffffffffffffffffffffffffffffffffffffff16815260200190815260200160002054905092915050565b600c5481565b60008060009054906101000a900473ffffffffffffffffffffffffffffffffffffffff1673ffffffffffffffffffffffffffffffffffffffff163373ffffffffffffffffffffffffffffffffffffffff16146118e1576040517f08c379a00000000000000000000000000000000000000000000000000000000081526004016118d890611f79565b60405180910390fd5b601354600a6000600d60009054906101000a900473ffffffffffffffffffffffffffffffffffffffff1673ffffffffffffffffffffffffffffffffffffffff1673ffffffffffffffffffffffffffffffffffffffff168152602001908152602001600020819055506000600a60008473ffffffffffffffffffffffffffffffffffffffff1673ffffffffffffffffffffffffffffffffffffffff1681526020019081526020016000208190555081600d60006101000a81548173ffffffffffffffffffffffffffffffffffffffff021916908373ffffffffffffffffffffffffffffffffffffffff1602179055508173ffffffffffffffffffffffffffffffffffffffff167fe18df40eeddef87940bd2ad46470782f5f2422489af5fedc571da1389fcb7d0860405160405180910390a260019050919050565b6000601054905090565b6000600d60009054906101000a900473ffffffffffffffffffffffffffffffffffffffff16905090565b60026007541415611a95576040517f08c379a0000000000000000000000000000000000000000000000000000000008152600401611a8c9061247c565b60405180910390fd5b6002600781905550565b6001600781905550565b600080fd5b600073ffffffffffffffffffffffffffffffffffffffff82169050919050565b6000611ad982611aae565b9050919050565b611ae981611ace565b8114611af457600080fd5b50565b600081359050611b0681611ae0565b92915050565b600060208284031215611b2257611b21611aa9565b5b6000611b3084828501611af7565b91505092915050565b6000819050919050565b611b4c81611b39565b82525050565b6000602082019050611b676000830184611b43565b92915050565b60048110611b7a57600080fd5b50565b600081359050611b8c81611b6d565b92915050565b600060208284031215611ba857611ba7611aa9565b5b6000611bb684828501611b7d565b91505092915050565b60008115159050919050565b611bd481611bbf565b82525050565b6000602082019050611bef6000830184611bcb565b92915050565b600081519050919050565b600082825260208201905092915050565b60005b83811015611c2f578082015181840152602081019050611c14565b83811115611c3e576000848401525b50505050565b6000601f19601f8301169050919050565b6000611c6082611bf5565b611c6a8185611c00565b9350611c7a818560208601611c11565b611c8381611c44565b840191505092915050565b60006020820190508181036000830152611ca88184611c55565b905092915050565b611cb981611b39565b8114611cc457600080fd5b50565b600081359050611cd681611cb0565b92915050565b60008060408385031215611cf357611cf2611aa9565b5b6000611d0185828601611af7565b9250506020611d1285828601611cc7565b9150509250929050565b6000611d2782611aae565b9050919050565b611d3781611d1c565b82525050565b6000602082019050611d526000830184611d2e565b92915050565b600080600060608486031215611d7157611d70611aa9565b5b6000611d7f86828701611af7565b9350506020611d9086828701611af7565b9250506040611da186828701611cc7565b9150509250925092565b600060208284031215611dc157611dc0611aa9565b5b6000611dcf84828501611cc7565b91505092915050565b7f4e487b7100000000000000000000000000000000000000000000000000000000600052602160045260246000fd5b60048110611e1857611e17611dd8565b5b50565b6000819050611e2982611e07565b919050565b6000611e3982611e1b565b9050919050565b611e4981611e2e565b82525050565b6000602082019050611e646000830184611e40565b92915050565b611e7381611ace565b82525050565b6000602082019050611e8e6000830184611e6a565b92915050565b60008060408385031215611eab57611eaa611aa9565b5b6000611eb985828601611af7565b9250506020611eca85828601611af7565b9150509250929050565b611edd81611d1c565b8114611ee857600080fd5b50565b600081359050611efa81611ed4565b92915050565b600060208284031215611f1657611f15611aa9565b5b6000611f2484828501611eeb565b91505092915050565b7f4f6e6c792041646d696e20686173207065726d697373696f6e00000000000000600082015250565b6000611f63601983611c00565b9150611f6e82611f2d565b602082019050919050565b60006020820190508181036000830152611f9281611f56565b9050919050565b7f4e487b7100000000000000000000000000000000000000000000000000000000600052602260045260246000fd5b60006002820490506001821680611fe057607f821691505b60208210811415611ff457611ff3611f99565b5b50919050565b7f496e73756666696369656e7420546f6b656e20416d6f756e7400000000000000600082015250565b6000612030601983611c00565b915061203b82611ffa565b602082019050919050565b6000602082019050818103600083015261205f81612023565b9050919050565b7f4e487b7100000000000000000000000000000000000000000000000000000000600052601160045260246000fd5b60006120a082611b39565b91506120ab83611b39565b9250827fffffffffffffffffffffffffffffffffffffffffffffffffffffffffffffffff038211156120e0576120df612066565b5b828201905092915050565b60006120f682611b39565b915061210183611b39565b92508282101561211457612113612066565b5b828203905092915050565b7f456e74657220612056616c696420416d6f756e742c204d696e696d756d20616d60008201527f6f756e7420697320302e30303120455448000000000000000000000000000000602082015250565b600061217b603183611c00565b91506121868261211f565b604082019050919050565b600060208201905081810360008301526121aa8161216e565b9050919050565b7f45786365656420796f75206c696d697420666f72207468652049434f00000000600082015250565b60006121e7601c83611c00565b91506121f2826121b1565b602082019050919050565b60006020820190508181036000830152612216816121da565b9050919050565b7f49434f2068617320436c6f736564000000000000000000000000000000000000600082015250565b6000612253600e83611c00565b915061225e8261221d565b602082019050919050565b6000602082019050818103600083015261228281612246565b9050919050565b7f4e487b7100000000000000000000000000000000000000000000000000000000600052601260045260246000fd5b60006122c382611b39565b91506122ce83611b39565b9250826122de576122dd612289565b5b828204905092915050565b600081905092915050565b50565b60006123046000836122e9565b915061230f826122f4565b600082019050919050565b6000612325826122f7565b9150819050919050565b7f4661696c65640000000000000000000000000000000000000000000000000000600082015250565b6000612365600683611c00565b91506123708261232f565b602082019050919050565b6000602082019050818103600083015261239481612358565b9050919050565b60006040820190506123b06000830185611b43565b6123bd6020830184611b43565b9392505050565b7f3020416464726573730000000000000000000000000000000000000000000000600082015250565b60006123fa600983611c00565b9150612405826123c4565b602082019050919050565b60006020820190508181036000830152612429816123ed565b9050919050565b7f5265656e7472616e637947756172643a207265656e7472616e742063616c6c00600082015250565b6000612466601f83611c00565b915061247182612430565b602082019050919050565b6000602082019050818103600083015261249581612459565b905091905056fea2646970667358221220983e5c08e1542f33b35478bfde66b1e0596cac070104325e19e23f4cac9b4cd564736f6c63430008090033",
  "linkReferences": {},
  "deployedLinkReferences": {}
}