{
  "_format": "hh-sol-artifact-1",
  "contractName": "Staking",
  "sourceName": "contracts/Staking.sol",
  "abi": [
    {
      "inputs": [
        {
          "internalType": "address",
          "name": "_stakingaddress",
          "type": "address"
        },
        {
          "internalType": "address",
          "name": "_rewardaddress",
          "type": "address"
        }
      ],
      "stateMutability": "nonpayable",
      "type": "constructor"
    },
    {
      "inputs": [],
      "name": "NeedsMoreThanZero",
      "type": "error"
    },
    {
      "inputs": [],
      "name": "Transfer_Failed",
      "type": "error"
    },
    {
      "anonymous": false,
      "inputs": [
        {
          "indexed": false,
          "internalType": "uint256",
          "name": "amount",
          "type": "uint256"
        },
        {
          "indexed": true,
          "internalType": "address",
          "name": "user",
          "type": "address"
        }
      ],
      "name": "ClaimEvent",
      "type": "event"
    },
    {
      "anonymous": false,
      "inputs": [
        {
          "indexed": false,
          "internalType": "uint256",
          "name": "_amount",
          "type": "uint256"
        },
        {
          "indexed": true,
          "internalType": "address",
          "name": "user",
          "type": "address"
        }
      ],
      "name": "StakingEvent",
      "type": "event"
    },
    {
      "anonymous": false,
      "inputs": [
        {
          "indexed": false,
          "internalType": "uint256",
          "name": "_amount",
          "type": "uint256"
        },
        {
          "indexed": true,
          "internalType": "address",
          "name": "user",
          "type": "address"
        }
      ],
      "name": "WithdrawEvent",
      "type": "event"
    },
    {
      "inputs": [],
      "name": "Claim",
      "outputs": [],
      "stateMutability": "nonpayable",
      "type": "function"
    },
    {
      "inputs": [],
      "name": "RewardToken",
      "outputs": [
        {
          "internalType": "contract IERC20",
          "name": "",
          "type": "address"
        }
      ],
      "stateMutability": "view",
      "type": "function"
    },
    {
      "inputs": [
        {
          "internalType": "uint256",
          "name": "_amount",
          "type": "uint256"
        }
      ],
      "name": "Stake",
      "outputs": [],
      "stateMutability": "nonpayable",
      "type": "function"
    },
    {
      "inputs": [],
      "name": "StakingToken",
      "outputs": [
        {
          "internalType": "contract IERC20",
          "name": "",
          "type": "address"
        }
      ],
      "stateMutability": "view",
      "type": "function"
    },
    {
      "inputs": [
        {
          "internalType": "uint256",
          "name": "_amount",
          "type": "uint256"
        }
      ],
      "name": "Withdraw",
      "outputs": [],
      "stateMutability": "nonpayable",
      "type": "function"
    },
    {
      "inputs": [
        {
          "internalType": "address",
          "name": "account",
          "type": "address"
        }
      ],
      "name": "earned",
      "outputs": [
        {
          "internalType": "uint256",
          "name": "",
          "type": "uint256"
        }
      ],
      "stateMutability": "view",
      "type": "function"
    },
    {
      "inputs": [],
      "name": "rewardPerToken",
      "outputs": [
        {
          "internalType": "uint256",
          "name": "",
          "type": "uint256"
        }
      ],
      "stateMutability": "view",
      "type": "function"
    },
    {
      "inputs": [
        {
          "internalType": "address",
          "name": "",
          "type": "address"
        }
      ],
      "name": "s_balances",
      "outputs": [
        {
          "internalType": "uint256",
          "name": "",
          "type": "uint256"
        }
      ],
      "stateMutability": "view",
      "type": "function"
    },
    {
      "inputs": [],
      "name": "s_owner",
      "outputs": [
        {
          "internalType": "address",
          "name": "",
          "type": "address"
        }
      ],
      "stateMutability": "view",
      "type": "function"
    },
    {
      "inputs": [],
      "name": "s_rewardPerTokenStored",
      "outputs": [
        {
          "internalType": "uint256",
          "name": "",
          "type": "uint256"
        }
      ],
      "stateMutability": "view",
      "type": "function"
    },
    {
      "inputs": [
        {
          "internalType": "address",
          "name": "",
          "type": "address"
        }
      ],
      "name": "s_rewards",
      "outputs": [
        {
          "internalType": "uint256",
          "name": "",
          "type": "uint256"
        }
      ],
      "stateMutability": "view",
      "type": "function"
    },
    {
      "inputs": [],
      "name": "s_totalSupply",
      "outputs": [
        {
          "internalType": "uint256",
          "name": "",
          "type": "uint256"
        }
      ],
      "stateMutability": "view",
      "type": "function"
    },
    {
      "inputs": [
        {
          "internalType": "address",
          "name": "",
          "type": "address"
        }
      ],
      "name": "s_userRewardPerToken",
      "outputs": [
        {
          "internalType": "uint256",
          "name": "",
          "type": "uint256"
        }
      ],
      "stateMutability": "view",
      "type": "function"
    }
  ],
  "bytecode": "0x60c06040523480156200001157600080fd5b50604051620013a1380380620013a183398181016040528101906200003791906200015a565b60016000819055508173ffffffffffffffffffffffffffffffffffffffff1660808173ffffffffffffffffffffffffffffffffffffffff16815250508073ffffffffffffffffffffffffffffffffffffffff1660a08173ffffffffffffffffffffffffffffffffffffffff168152505033600160006101000a81548173ffffffffffffffffffffffffffffffffffffffff021916908373ffffffffffffffffffffffffffffffffffffffff1602179055505050620001a1565b600080fd5b600073ffffffffffffffffffffffffffffffffffffffff82169050919050565b60006200012282620000f5565b9050919050565b620001348162000115565b81146200014057600080fd5b50565b600081519050620001548162000129565b92915050565b60008060408385031215620001745762000173620000f0565b5b6000620001848582860162000143565b9250506020620001978582860162000143565b9150509250929050565b60805160a0516111c5620001dc6000396000818161079e0152610c9d01526000818161056701528181610a790152610bd801526111c56000f3fe608060405234801561001057600080fd5b50600436106100ce5760003560e01c80636a74a0fc1161008c578063bea0815111610066578063bea08151146101ff578063cd3daf9d1461022f578063e39782401461024d578063f1e9f1e51461026b576100ce565b80636a74a0fc14610193578063ab32eb69146101b1578063be5af966146101e1576100ce565b80628cc262146100d357806321e82efa14610103578063227a473b14610133578063304ac91b1461014f5780633158952e1461016d5780635b6b431d14610177575b600080fd5b6100ed60048036038101906100e89190610d7c565b610289565b6040516100fa9190610dc2565b60405180910390f35b61011d60048036038101906101189190610d7c565b6103a2565b60405161012a9190610dc2565b60405180910390f35b61014d60048036038101906101489190610e09565b6103ba565b005b61015761065b565b6040516101649190610dc2565b60405180910390f35b610175610661565b005b610191600480360381019061018c9190610e09565b6108dd565b005b61019b610bb8565b6040516101a89190610dc2565b60405180910390f35b6101cb60048036038101906101c69190610d7c565b610bbe565b6040516101d89190610dc2565b60405180910390f35b6101e9610bd6565b6040516101f69190610e95565b60405180910390f35b61021960048036038101906102149190610d7c565b610bfa565b6040516102269190610dc2565b60405180910390f35b610237610c12565b6040516102449190610dc2565b60405180910390f35b610255610c75565b6040516102629190610ebf565b60405180910390f35b610273610c9b565b6040516102809190610e95565b60405180910390f35b600080600560008473ffffffffffffffffffffffffffffffffffffffff1673ffffffffffffffffffffffffffffffffffffffff16815260200190815260200160002054905060006102d8610c12565b90506000600760008673ffffffffffffffffffffffffffffffffffffffff1673ffffffffffffffffffffffffffffffffffffffff1681526020019081526020016000205490506000600660008773ffffffffffffffffffffffffffffffffffffffff1673ffffffffffffffffffffffffffffffffffffffff16815260200190815260200160002054905080670de0b6b3a764000083856103789190610f09565b866103839190610f3d565b61038d9190610fc6565b6103979190610ff7565b945050505050919050565b60076020528060005260406000206000915090505481565b336103c3610c12565b600481905550426002819055506103d981610289565b600660008373ffffffffffffffffffffffffffffffffffffffff1673ffffffffffffffffffffffffffffffffffffffff16815260200190815260200160002081905550600454600760008373ffffffffffffffffffffffffffffffffffffffff1673ffffffffffffffffffffffffffffffffffffffff1681526020019081526020016000208190555061046a610cbf565b8160008114156104a6576040517ff45911f000000000000000000000000000000000000000000000000000000000815260040160405180910390fd5b82600360008282546104b89190610ff7565b9250508190555082600560003373ffffffffffffffffffffffffffffffffffffffff1673ffffffffffffffffffffffffffffffffffffffff168152602001908152602001600020600082825461050e9190610ff7565b925050819055503373ffffffffffffffffffffffffffffffffffffffff167f9eddc895a7fcc0f3c43a5ec13c076918147735dc833efd2b36be61b49960ae288460405161055b9190610dc2565b60405180910390a260007f000000000000000000000000000000000000000000000000000000000000000073ffffffffffffffffffffffffffffffffffffffff166323b872dd3330876040518463ffffffff1660e01b81526004016105c29392919061104d565b602060405180830381600087803b1580156105dc57600080fd5b505af11580156105f0573d6000803e3d6000fd5b505050506040513d601f19601f8201168201806040525081019061061491906110bc565b90508061064d576040517f90914fd500000000000000000000000000000000000000000000000000000000815260040160405180910390fd5b5050610657610d0f565b5050565b60045481565b610669610cbf565b33610672610c12565b6004819055504260028190555061068881610289565b600660008373ffffffffffffffffffffffffffffffffffffffff1673ffffffffffffffffffffffffffffffffffffffff16815260200190815260200160002081905550600454600760008373ffffffffffffffffffffffffffffffffffffffff1673ffffffffffffffffffffffffffffffffffffffff168152602001908152602001600020819055506000600660003373ffffffffffffffffffffffffffffffffffffffff1673ffffffffffffffffffffffffffffffffffffffff1681526020019081526020016000205490506000600660003373ffffffffffffffffffffffffffffffffffffffff1673ffffffffffffffffffffffffffffffffffffffff1681526020019081526020016000208190555060007f000000000000000000000000000000000000000000000000000000000000000073ffffffffffffffffffffffffffffffffffffffff1663a9059cbb33846040518363ffffffff1660e01b81526004016107f79291906110e9565b602060405180830381600087803b15801561081157600080fd5b505af1158015610825573d6000803e3d6000fd5b505050506040513d601f19601f8201168201806040525081019061084991906110bc565b905080610882576040517f90914fd500000000000000000000000000000000000000000000000000000000815260040160405180910390fd5b3373ffffffffffffffffffffffffffffffffffffffff167f8ef124458f6feaffa36635fcaa512e69bb8539878544e2fad3115da59145b4fc836040516108c89190610dc2565b60405180910390a25050506108db610d0f565b565b6108e5610cbf565b336108ee610c12565b6004819055504260028190555061090481610289565b600660008373ffffffffffffffffffffffffffffffffffffffff1673ffffffffffffffffffffffffffffffffffffffff16815260200190815260200160002081905550600454600760008373ffffffffffffffffffffffffffffffffffffffff1673ffffffffffffffffffffffffffffffffffffffff16815260200190815260200160002081905550600560003373ffffffffffffffffffffffffffffffffffffffff1673ffffffffffffffffffffffffffffffffffffffff16815260200190815260200160002054821015610a06576040517f90914fd500000000000000000000000000000000000000000000000000000000815260040160405180910390fd5b8160036000828254610a189190610f09565b9250508190555081600560003373ffffffffffffffffffffffffffffffffffffffff1673ffffffffffffffffffffffffffffffffffffffff1681526020019081526020016000206000828254610a6e9190610f09565b9250508190555060007f000000000000000000000000000000000000000000000000000000000000000073ffffffffffffffffffffffffffffffffffffffff1663a9059cbb33856040518363ffffffff1660e01b8152600401610ad29291906110e9565b602060405180830381600087803b158015610aec57600080fd5b505af1158015610b00573d6000803e3d6000fd5b505050506040513d601f19601f82011682018060405250810190610b2491906110bc565b905080610b5d576040517f90914fd500000000000000000000000000000000000000000000000000000000815260040160405180910390fd5b3373ffffffffffffffffffffffffffffffffffffffff167f601cfd9096521c3ad4102493abe73cd7278ce7b82d41f1d65e1c25c1fb56197884604051610ba39190610dc2565b60405180910390a25050610bb5610d0f565b50565b60035481565b60056020528060005260406000206000915090505481565b7f000000000000000000000000000000000000000000000000000000000000000081565b60066020528060005260406000206000915090505481565b6000806003541415610c28576004549050610c72565b600354670de0b6b3a7640000606460025442610c449190610f09565b610c4e9190610f3d565b610c589190610f3d565b610c629190610fc6565b600454610c6f9190610ff7565b90505b90565b600160009054906101000a900473ffffffffffffffffffffffffffffffffffffffff1681565b7f000000000000000000000000000000000000000000000000000000000000000081565b60026000541415610d05576040517f08c379a0000000000000000000000000000000000000000000000000000000008152600401610cfc9061116f565b60405180910390fd5b6002600081905550565b6001600081905550565b600080fd5b600073ffffffffffffffffffffffffffffffffffffffff82169050919050565b6000610d4982610d1e565b9050919050565b610d5981610d3e565b8114610d6457600080fd5b50565b600081359050610d7681610d50565b92915050565b600060208284031215610d9257610d91610d19565b5b6000610da084828501610d67565b91505092915050565b6000819050919050565b610dbc81610da9565b82525050565b6000602082019050610dd76000830184610db3565b92915050565b610de681610da9565b8114610df157600080fd5b50565b600081359050610e0381610ddd565b92915050565b600060208284031215610e1f57610e1e610d19565b5b6000610e2d84828501610df4565b91505092915050565b6000819050919050565b6000610e5b610e56610e5184610d1e565b610e36565b610d1e565b9050919050565b6000610e6d82610e40565b9050919050565b6000610e7f82610e62565b9050919050565b610e8f81610e74565b82525050565b6000602082019050610eaa6000830184610e86565b92915050565b610eb981610d3e565b82525050565b6000602082019050610ed46000830184610eb0565b92915050565b7f4e487b7100000000000000000000000000000000000000000000000000000000600052601160045260246000fd5b6000610f1482610da9565b9150610f1f83610da9565b925082821015610f3257610f31610eda565b5b828203905092915050565b6000610f4882610da9565b9150610f5383610da9565b9250817fffffffffffffffffffffffffffffffffffffffffffffffffffffffffffffffff0483118215151615610f8c57610f8b610eda565b5b828202905092915050565b7f4e487b7100000000000000000000000000000000000000000000000000000000600052601260045260246000fd5b6000610fd182610da9565b9150610fdc83610da9565b925082610fec57610feb610f97565b5b828204905092915050565b600061100282610da9565b915061100d83610da9565b9250827fffffffffffffffffffffffffffffffffffffffffffffffffffffffffffffffff0382111561104257611041610eda565b5b828201905092915050565b60006060820190506110626000830186610eb0565b61106f6020830185610eb0565b61107c6040830184610db3565b949350505050565b60008115159050919050565b61109981611084565b81146110a457600080fd5b50565b6000815190506110b681611090565b92915050565b6000602082840312156110d2576110d1610d19565b5b60006110e0848285016110a7565b91505092915050565b60006040820190506110fe6000830185610eb0565b61110b6020830184610db3565b9392505050565b600082825260208201905092915050565b7f5265656e7472616e637947756172643a207265656e7472616e742063616c6c00600082015250565b6000611159601f83611112565b915061116482611123565b602082019050919050565b600060208201905081810360008301526111888161114c565b905091905056fea2646970667358221220fd083807741b82926048b88da8f6678eda2d3c4913d754d49caf4b91423e969764736f6c63430008090033",
  "linkReferences": {},
  "deployedLinkReferences": {}
}