{
  "_format": "hh-sol-artifact-1",
  "contractName": "SageToken",
  "sourceName": "contracts/sageIco.sol",
  "abi": [
    {
      "inputs": [],
      "stateMutability": "nonpayable",
      "type": "constructor"
    },
    {
      "inputs": [],
      "name": "Balance_SAGIsNotEnough",
      "type": "error"
    },
    {
      "anonymous": false,
      "inputs": [
        {
          "indexed": true,
          "internalType": "address",
          "name": "_owner",
          "type": "address"
        },
        {
          "indexed": true,
          "internalType": "address",
          "name": "_spender",
          "type": "address"
        },
        {
          "indexed": false,
          "internalType": "uint256",
          "name": "_value",
          "type": "uint256"
        }
      ],
      "name": "Approval",
      "type": "event"
    },
    {
      "anonymous": false,
      "inputs": [
        {
          "indexed": true,
          "internalType": "address",
          "name": "_from",
          "type": "address"
        },
        {
          "indexed": true,
          "internalType": "address",
          "name": "_to",
          "type": "address"
        },
        {
          "indexed": false,
          "internalType": "uint256",
          "name": "_value",
          "type": "uint256"
        }
      ],
      "name": "Transfer",
      "type": "event"
    },
    {
      "inputs": [],
      "name": "_founder",
      "outputs": [
        {
          "internalType": "address",
          "name": "",
          "type": "address"
        }
      ],
      "stateMutability": "view",
      "type": "function"
    },
    {
      "inputs": [
        {
          "internalType": "address",
          "name": "owner",
          "type": "address"
        },
        {
          "internalType": "address",
          "name": "spender",
          "type": "address"
        }
      ],
      "name": "allowance",
      "outputs": [
        {
          "internalType": "uint256",
          "name": "remaining",
          "type": "uint256"
        }
      ],
      "stateMutability": "view",
      "type": "function"
    },
    {
      "inputs": [
        {
          "internalType": "address",
          "name": "spender",
          "type": "address"
        },
        {
          "internalType": "uint256",
          "name": "tokens",
          "type": "uint256"
        }
      ],
      "name": "approve",
      "outputs": [
        {
          "internalType": "bool",
          "name": "success",
          "type": "bool"
        }
      ],
      "stateMutability": "nonpayable",
      "type": "function"
    },
    {
      "inputs": [
        {
          "internalType": "address",
          "name": "tokenOwner",
          "type": "address"
        }
      ],
      "name": "balanceOf",
      "outputs": [
        {
          "internalType": "uint256",
          "name": "balance",
          "type": "uint256"
        }
      ],
      "stateMutability": "view",
      "type": "function"
    },
    {
      "inputs": [
        {
          "internalType": "address",
          "name": "",
          "type": "address"
        }
      ],
      "name": "balances",
      "outputs": [
        {
          "internalType": "uint256",
          "name": "",
          "type": "uint256"
        }
      ],
      "stateMutability": "view",
      "type": "function"
    },
    {
      "inputs": [],
      "name": "decimals",
      "outputs": [
        {
          "internalType": "uint256",
          "name": "",
          "type": "uint256"
        }
      ],
      "stateMutability": "view",
      "type": "function"
    },
    {
      "inputs": [],
      "name": "name",
      "outputs": [
        {
          "internalType": "string",
          "name": "",
          "type": "string"
        }
      ],
      "stateMutability": "view",
      "type": "function"
    },
    {
      "inputs": [],
      "name": "symbol",
      "outputs": [
        {
          "internalType": "string",
          "name": "",
          "type": "string"
        }
      ],
      "stateMutability": "view",
      "type": "function"
    },
    {
      "inputs": [],
      "name": "totalSupply",
      "outputs": [
        {
          "internalType": "uint256",
          "name": "",
          "type": "uint256"
        }
      ],
      "stateMutability": "view",
      "type": "function"
    },
    {
      "inputs": [
        {
          "internalType": "address",
          "name": "to",
          "type": "address"
        },
        {
          "internalType": "uint256",
          "name": "tokens",
          "type": "uint256"
        }
      ],
      "name": "transfer",
      "outputs": [
        {
          "internalType": "bool",
          "name": "success",
          "type": "bool"
        }
      ],
      "stateMutability": "nonpayable",
      "type": "function"
    },
    {
      "inputs": [
        {
          "internalType": "address",
          "name": "from",
          "type": "address"
        },
        {
          "internalType": "address",
          "name": "to",
          "type": "address"
        },
        {
          "internalType": "uint256",
          "name": "tokens",
          "type": "uint256"
        }
      ],
      "name": "transferFrom",
      "outputs": [
        {
          "internalType": "bool",
          "name": "success",
          "type": "bool"
        }
      ],
      "stateMutability": "nonpayable",
      "type": "function"
    }
  ],
  "bytecode": "0x60806040523480156200001157600080fd5b5033600460006101000a81548173ffffffffffffffffffffffffffffffffffffffff021916908373ffffffffffffffffffffffffffffffffffffffff1602179055506040518060400160405280600881526020017f53414745434f494e00000000000000000000000000000000000000000000000081525060009080519060200190620000a092919062000171565b506040518060400160405280600381526020017f534147000000000000000000000000000000000000000000000000000000000081525060019080519060200190620000ee92919062000171565b50600a60028190555064174876e80060038190555060035460056000600460009054906101000a900473ffffffffffffffffffffffffffffffffffffffff1673ffffffffffffffffffffffffffffffffffffffff1673ffffffffffffffffffffffffffffffffffffffff1681526020019081526020016000208190555062000286565b8280546200017f9062000250565b90600052602060002090601f016020900481019282620001a35760008555620001ef565b82601f10620001be57805160ff1916838001178555620001ef565b82800160010185558215620001ef579182015b82811115620001ee578251825591602001919060010190620001d1565b5b509050620001fe919062000202565b5090565b5b808211156200021d57600081600090555060010162000203565b5090565b7f4e487b7100000000000000000000000000000000000000000000000000000000600052602260045260246000fd5b600060028204905060018216806200026957607f821691505b6020821081141562000280576200027f62000221565b5b50919050565b610ebd80620002966000396000f3fe608060405234801561001057600080fd5b50600436106100a95760003560e01c806327e235e31161007157806327e235e314610168578063313ce5671461019857806370a08231146101b657806395d89b41146101e6578063a9059cbb14610204578063dd62ed3e14610234576100a9565b806306fdde03146100ae578063095ea7b3146100cc57806309b637bc146100fc57806318160ddd1461011a57806323b872dd14610138575b600080fd5b6100b6610264565b6040516100c39190610b28565b60405180910390f35b6100e660048036038101906100e19190610be3565b6102f2565b6040516100f39190610c3e565b60405180910390f35b6101046104ba565b6040516101119190610c68565b60405180910390f35b6101226104e0565b60405161012f9190610c92565b60405180910390f35b610152600480360381019061014d9190610cad565b6104e6565b60405161015f9190610c3e565b60405180910390f35b610182600480360381019061017d9190610d00565b61075b565b60405161018f9190610c92565b60405180910390f35b6101a0610773565b6040516101ad9190610c92565b60405180910390f35b6101d060048036038101906101cb9190610d00565b610779565b6040516101dd9190610c92565b60405180910390f35b6101ee6107c2565b6040516101fb9190610b28565b60405180910390f35b61021e60048036038101906102199190610be3565b610850565b60405161022b9190610c3e565b60405180910390f35b61024e60048036038101906102499190610d2d565b610a08565b60405161025b9190610c92565b60405180910390f35b6000805461027190610d9c565b80601f016020809104026020016040519081016040528092919081815260200182805461029d90610d9c565b80156102ea5780601f106102bf576101008083540402835291602001916102ea565b820191906000526020600020905b8154815290600101906020018083116102cd57829003601f168201915b505050505081565b600081600560003373ffffffffffffffffffffffffffffffffffffffff1673ffffffffffffffffffffffffffffffffffffffff1681526020019081526020016000205410801561038157506000600560003373ffffffffffffffffffffffffffffffffffffffff1673ffffffffffffffffffffffffffffffffffffffff16815260200190815260200160002054145b156103b8576040517fe139b34700000000000000000000000000000000000000000000000000000000815260040160405180910390fd5b81600660003373ffffffffffffffffffffffffffffffffffffffff1673ffffffffffffffffffffffffffffffffffffffff16815260200190815260200160002060008573ffffffffffffffffffffffffffffffffffffffff1673ffffffffffffffffffffffffffffffffffffffff16815260200190815260200160002060008282546104449190610dfd565b925050819055508273ffffffffffffffffffffffffffffffffffffffff163373ffffffffffffffffffffffffffffffffffffffff167f8c5be1e5ebec7d5bd14f71427d1e84f3dd0314c0f7b2291e5b200ac8c7c3b925846040516104a89190610c92565b60405180910390a36001905092915050565b600460009054906101000a900473ffffffffffffffffffffffffffffffffffffffff1681565b60035481565b600081600560003373ffffffffffffffffffffffffffffffffffffffff1673ffffffffffffffffffffffffffffffffffffffff1681526020019081526020016000205410801561057557506000600560003373ffffffffffffffffffffffffffffffffffffffff1673ffffffffffffffffffffffffffffffffffffffff16815260200190815260200160002054145b156105ac576040517fe139b34700000000000000000000000000000000000000000000000000000000815260040160405180910390fd5b81600560008573ffffffffffffffffffffffffffffffffffffffff1673ffffffffffffffffffffffffffffffffffffffff16815260200190815260200160002060008282546105fb9190610dfd565b9250508190555081600660008673ffffffffffffffffffffffffffffffffffffffff1673ffffffffffffffffffffffffffffffffffffffff16815260200190815260200160002060003373ffffffffffffffffffffffffffffffffffffffff1673ffffffffffffffffffffffffffffffffffffffff168152602001908152602001600020600082825461068e9190610e53565b9250508190555081600560008673ffffffffffffffffffffffffffffffffffffffff1673ffffffffffffffffffffffffffffffffffffffff16815260200190815260200160002060008282546106e49190610e53565b925050819055508273ffffffffffffffffffffffffffffffffffffffff168473ffffffffffffffffffffffffffffffffffffffff167fddf252ad1be2c89b69c2b068fc378daa952ba7f163c4a11628f55a4df523b3ef846040516107489190610c92565b60405180910390a3600190509392505050565b60056020528060005260406000206000915090505481565b60025481565b6000600560008373ffffffffffffffffffffffffffffffffffffffff1673ffffffffffffffffffffffffffffffffffffffff168152602001908152602001600020549050919050565b600180546107cf90610d9c565b80601f01602080910402602001604051908101604052809291908181526020018280546107fb90610d9c565b80156108485780601f1061081d57610100808354040283529160200191610848565b820191906000526020600020905b81548152906001019060200180831161082b57829003601f168201915b505050505081565b600081600560003373ffffffffffffffffffffffffffffffffffffffff1673ffffffffffffffffffffffffffffffffffffffff1681526020019081526020016000205410156108cb576040517fe139b34700000000000000000000000000000000000000000000000000000000815260040160405180910390fd5b81600560008573ffffffffffffffffffffffffffffffffffffffff1673ffffffffffffffffffffffffffffffffffffffff168152602001908152602001600020600082825461091a9190610dfd565b925050819055508160056000600460009054906101000a900473ffffffffffffffffffffffffffffffffffffffff1673ffffffffffffffffffffffffffffffffffffffff1673ffffffffffffffffffffffffffffffffffffffff16815260200190815260200160002060008282546109929190610e53565b925050819055508273ffffffffffffffffffffffffffffffffffffffff163373ffffffffffffffffffffffffffffffffffffffff167fddf252ad1be2c89b69c2b068fc378daa952ba7f163c4a11628f55a4df523b3ef846040516109f69190610c92565b60405180910390a36001905092915050565b6000600660008473ffffffffffffffffffffffffffffffffffffffff1673ffffffffffffffffffffffffffffffffffffffff16815260200190815260200160002060008373ffffffffffffffffffffffffffffffffffffffff1673ffffffffffffffffffffffffffffffffffffffff16815260200190815260200160002054905092915050565b600081519050919050565b600082825260208201905092915050565b60005b83811015610ac9578082015181840152602081019050610aae565b83811115610ad8576000848401525b50505050565b6000601f19601f8301169050919050565b6000610afa82610a8f565b610b048185610a9a565b9350610b14818560208601610aab565b610b1d81610ade565b840191505092915050565b60006020820190508181036000830152610b428184610aef565b905092915050565b600080fd5b600073ffffffffffffffffffffffffffffffffffffffff82169050919050565b6000610b7a82610b4f565b9050919050565b610b8a81610b6f565b8114610b9557600080fd5b50565b600081359050610ba781610b81565b92915050565b6000819050919050565b610bc081610bad565b8114610bcb57600080fd5b50565b600081359050610bdd81610bb7565b92915050565b60008060408385031215610bfa57610bf9610b4a565b5b6000610c0885828601610b98565b9250506020610c1985828601610bce565b9150509250929050565b60008115159050919050565b610c3881610c23565b82525050565b6000602082019050610c536000830184610c2f565b92915050565b610c6281610b6f565b82525050565b6000602082019050610c7d6000830184610c59565b92915050565b610c8c81610bad565b82525050565b6000602082019050610ca76000830184610c83565b92915050565b600080600060608486031215610cc657610cc5610b4a565b5b6000610cd486828701610b98565b9350506020610ce586828701610b98565b9250506040610cf686828701610bce565b9150509250925092565b600060208284031215610d1657610d15610b4a565b5b6000610d2484828501610b98565b91505092915050565b60008060408385031215610d4457610d43610b4a565b5b6000610d5285828601610b98565b9250506020610d6385828601610b98565b9150509250929050565b7f4e487b7100000000000000000000000000000000000000000000000000000000600052602260045260246000fd5b60006002820490506001821680610db457607f821691505b60208210811415610dc857610dc7610d6d565b5b50919050565b7f4e487b7100000000000000000000000000000000000000000000000000000000600052601160045260246000fd5b6000610e0882610bad565b9150610e1383610bad565b9250827fffffffffffffffffffffffffffffffffffffffffffffffffffffffffffffffff03821115610e4857610e47610dce565b5b828201905092915050565b6000610e5e82610bad565b9150610e6983610bad565b925082821015610e7c57610e7b610dce565b5b82820390509291505056fea26469706673582212203edf2bb4e73f1a7c1ee8d894b4eaa8635dfd25e60a03b5b001da06130826581164736f6c63430008090033",
  "linkReferences": {},
  "deployedLinkReferences": {}
}