{
  "_format": "hh-sol-artifact-1",
  "contractName": "SageIco",
  "sourceName": "contracts/sageIco.sol",
  "abi": [
    {
      "inputs": [
        {
          "internalType": "address payable",
          "name": "depositAddress",
          "type": "address"
        }
      ],
      "stateMutability": "nonpayable",
      "type": "constructor"
    },
    {
      "inputs": [],
      "name": "Balance_SAGIsNotEnough",
      "type": "error"
    },
    {
      "anonymous": false,
      "inputs": [
        {
          "indexed": true,
          "internalType": "address",
          "name": "_owner",
          "type": "address"
        },
        {
          "indexed": true,
          "internalType": "address",
          "name": "_spender",
          "type": "address"
        },
        {
          "indexed": false,
          "internalType": "uint256",
          "name": "_value",
          "type": "uint256"
        }
      ],
      "name": "Approval",
      "type": "event"
    },
    {
      "anonymous": false,
      "inputs": [
        {
          "indexed": true,
          "internalType": "uint256",
          "name": "amount",
          "type": "uint256"
        },
        {
          "indexed": true,
          "internalType": "address",
          "name": "sender",
          "type": "address"
        },
        {
          "indexed": true,
          "internalType": "uint256",
          "name": "tokens",
          "type": "uint256"
        }
      ],
      "name": "ICOInvest",
      "type": "event"
    },
    {
      "anonymous": false,
      "inputs": [
        {
          "indexed": true,
          "internalType": "address",
          "name": "_from",
          "type": "address"
        },
        {
          "indexed": true,
          "internalType": "address",
          "name": "_to",
          "type": "address"
        },
        {
          "indexed": false,
          "internalType": "uint256",
          "name": "_value",
          "type": "uint256"
        }
      ],
      "name": "Transfer",
      "type": "event"
    },
    {
      "anonymous": false,
      "inputs": [
        {
          "indexed": true,
          "internalType": "uint256",
          "name": "amount",
          "type": "uint256"
        }
      ],
      "name": "ethAmount",
      "type": "event"
    },
    {
      "anonymous": false,
      "inputs": [
        {
          "indexed": true,
          "internalType": "uint256",
          "name": "tokens",
          "type": "uint256"
        }
      ],
      "name": "tokenAmount",
      "type": "event"
    },
    {
      "inputs": [],
      "name": "_founder",
      "outputs": [
        {
          "internalType": "address",
          "name": "",
          "type": "address"
        }
      ],
      "stateMutability": "view",
      "type": "function"
    },
    {
      "inputs": [
        {
          "internalType": "address payable",
          "name": "adminAddress",
          "type": "address"
        }
      ],
      "name": "addpaymentAddress",
      "outputs": [],
      "stateMutability": "nonpayable",
      "type": "function"
    },
    {
      "inputs": [
        {
          "internalType": "address",
          "name": "owner",
          "type": "address"
        },
        {
          "internalType": "address",
          "name": "spender",
          "type": "address"
        }
      ],
      "name": "allowance",
      "outputs": [
        {
          "internalType": "uint256",
          "name": "remaining",
          "type": "uint256"
        }
      ],
      "stateMutability": "view",
      "type": "function"
    },
    {
      "inputs": [
        {
          "internalType": "address",
          "name": "spender",
          "type": "address"
        },
        {
          "internalType": "uint256",
          "name": "tokens",
          "type": "uint256"
        }
      ],
      "name": "approve",
      "outputs": [
        {
          "internalType": "bool",
          "name": "success",
          "type": "bool"
        }
      ],
      "stateMutability": "nonpayable",
      "type": "function"
    },
    {
      "inputs": [
        {
          "internalType": "address",
          "name": "tokenOwner",
          "type": "address"
        }
      ],
      "name": "balanceOf",
      "outputs": [
        {
          "internalType": "uint256",
          "name": "balance",
          "type": "uint256"
        }
      ],
      "stateMutability": "view",
      "type": "function"
    },
    {
      "inputs": [
        {
          "internalType": "address",
          "name": "",
          "type": "address"
        }
      ],
      "name": "balances",
      "outputs": [
        {
          "internalType": "uint256",
          "name": "",
          "type": "uint256"
        }
      ],
      "stateMutability": "view",
      "type": "function"
    },
    {
      "inputs": [],
      "name": "decimals",
      "outputs": [
        {
          "internalType": "uint256",
          "name": "",
          "type": "uint256"
        }
      ],
      "stateMutability": "view",
      "type": "function"
    },
    {
      "inputs": [],
      "name": "endICO",
      "outputs": [],
      "stateMutability": "nonpayable",
      "type": "function"
    },
    {
      "inputs": [],
      "name": "getEthAmount",
      "outputs": [
        {
          "internalType": "uint256",
          "name": "",
          "type": "uint256"
        }
      ],
      "stateMutability": "view",
      "type": "function"
    },
    {
      "inputs": [],
      "name": "getadminAddress",
      "outputs": [
        {
          "internalType": "address",
          "name": "",
          "type": "address"
        }
      ],
      "stateMutability": "view",
      "type": "function"
    },
    {
      "inputs": [],
      "name": "gethardcap",
      "outputs": [
        {
          "internalType": "uint256",
          "name": "",
          "type": "uint256"
        }
      ],
      "stateMutability": "view",
      "type": "function"
    },
    {
      "inputs": [],
      "name": "geticostate",
      "outputs": [
        {
          "internalType": "enum SageIco.IcoState",
          "name": "",
          "type": "uint8"
        }
      ],
      "stateMutability": "view",
      "type": "function"
    },
    {
      "inputs": [],
      "name": "getmaximumAmount",
      "outputs": [
        {
          "internalType": "uint256",
          "name": "",
          "type": "uint256"
        }
      ],
      "stateMutability": "view",
      "type": "function"
    },
    {
      "inputs": [],
      "name": "getowner",
      "outputs": [
        {
          "internalType": "address",
          "name": "",
          "type": "address"
        }
      ],
      "stateMutability": "view",
      "type": "function"
    },
    {
      "inputs": [],
      "name": "gettokenAmount",
      "outputs": [
        {
          "internalType": "uint256",
          "name": "",
          "type": "uint256"
        }
      ],
      "stateMutability": "view",
      "type": "function"
    },
    {
      "inputs": [],
      "name": "haltICO",
      "outputs": [],
      "stateMutability": "nonpayable",
      "type": "function"
    },
    {
      "inputs": [],
      "name": "icoCurrentState",
      "outputs": [
        {
          "internalType": "enum SageIco.IcoState",
          "name": "",
          "type": "uint8"
        }
      ],
      "stateMutability": "view",
      "type": "function"
    },
    {
      "inputs": [
        {
          "internalType": "uint256",
          "name": "amount",
          "type": "uint256"
        }
      ],
      "name": "invest",
      "outputs": [
        {
          "internalType": "bool",
          "name": "",
          "type": "bool"
        }
      ],
      "stateMutability": "payable",
      "type": "function"
    },
    {
      "inputs": [],
      "name": "name",
      "outputs": [
        {
          "internalType": "string",
          "name": "",
          "type": "string"
        }
      ],
      "stateMutability": "view",
      "type": "function"
    },
    {
      "inputs": [],
      "name": "resumeICO",
      "outputs": [],
      "stateMutability": "nonpayable",
      "type": "function"
    },
    {
      "inputs": [],
      "name": "s_minimum",
      "outputs": [
        {
          "internalType": "uint256",
          "name": "",
          "type": "uint256"
        }
      ],
      "stateMutability": "view",
      "type": "function"
    },
    {
      "inputs": [
        {
          "internalType": "address",
          "name": "",
          "type": "address"
        }
      ],
      "name": "s_userBalances",
      "outputs": [
        {
          "internalType": "uint256",
          "name": "",
          "type": "uint256"
        }
      ],
      "stateMutability": "view",
      "type": "function"
    },
    {
      "inputs": [],
      "name": "symbol",
      "outputs": [
        {
          "internalType": "string",
          "name": "",
          "type": "string"
        }
      ],
      "stateMutability": "view",
      "type": "function"
    },
    {
      "inputs": [],
      "name": "totalSupply",
      "outputs": [
        {
          "internalType": "uint256",
          "name": "",
          "type": "uint256"
        }
      ],
      "stateMutability": "view",
      "type": "function"
    },
    {
      "inputs": [
        {
          "internalType": "address",
          "name": "to",
          "type": "address"
        },
        {
          "internalType": "uint256",
          "name": "tokens",
          "type": "uint256"
        }
      ],
      "name": "transfer",
      "outputs": [
        {
          "internalType": "bool",
          "name": "success",
          "type": "bool"
        }
      ],
      "stateMutability": "nonpayable",
      "type": "function"
    },
    {
      "inputs": [
        {
          "internalType": "address",
          "name": "from",
          "type": "address"
        },
        {
          "internalType": "address",
          "name": "to",
          "type": "address"
        },
        {
          "internalType": "uint256",
          "name": "tokens",
          "type": "uint256"
        }
      ],
      "name": "transferFrom",
      "outputs": [
        {
          "internalType": "bool",
          "name": "success",
          "type": "bool"
        }
      ],
      "stateMutability": "nonpayable",
      "type": "function"
    }
  ],
  "bytecode": "0x60806040523480156200001157600080fd5b50604051620021ac380380620021ac8339818101604052810190620000379190620003d3565b33600460006101000a81548173ffffffffffffffffffffffffffffffffffffffff021916908373ffffffffffffffffffffffffffffffffffffffff1602179055506040518060400160405280600881526020017f53414745434f494e00000000000000000000000000000000000000000000000081525060009080519060200190620000c5929190620002b9565b506040518060400160405280600381526020017f53414700000000000000000000000000000000000000000000000000000000008152506001908051906020019062000113929190620002b9565b50600a60028190555064174876e80060038190555060035460056000600460009054906101000a900473ffffffffffffffffffffffffffffffffffffffff1673ffffffffffffffffffffffffffffffffffffffff1673ffffffffffffffffffffffffffffffffffffffff16815260200190815260200160002081905550662386f26fc10000600a819055506000600f81905550680ad78ebc5ac6200000600b81905550670de0b6b3a7640000600d819055506753444835ec580000600e819055506000600860006101000a81548160ff02191690836003811115620001fd57620001fc62000405565b5b021790555062015180426200021391906200046d565b60108190555062093a80426200022a91906200046d565b60118190555033601360006101000a81548173ffffffffffffffffffffffffffffffffffffffff021916908373ffffffffffffffffffffffffffffffffffffffff16021790555080601460006101000a81548173ffffffffffffffffffffffffffffffffffffffff021916908373ffffffffffffffffffffffffffffffffffffffff160217905550506200052f565b828054620002c790620004f9565b90600052602060002090601f016020900481019282620002eb576000855562000337565b82601f106200030657805160ff191683800117855562000337565b8280016001018555821562000337579182015b828111156200033657825182559160200191906001019062000319565b5b5090506200034691906200034a565b5090565b5b80821115620003655760008160009055506001016200034b565b5090565b600080fd5b600073ffffffffffffffffffffffffffffffffffffffff82169050919050565b60006200039b826200036e565b9050919050565b620003ad816200038e565b8114620003b957600080fd5b50565b600081519050620003cd81620003a2565b92915050565b600060208284031215620003ec57620003eb62000369565b5b6000620003fc84828501620003bc565b91505092915050565b7f4e487b7100000000000000000000000000000000000000000000000000000000600052602160045260246000fd5b6000819050919050565b7f4e487b7100000000000000000000000000000000000000000000000000000000600052601160045260246000fd5b60006200047a8262000434565b9150620004878362000434565b9250827fffffffffffffffffffffffffffffffffffffffffffffffffffffffffffffffff03821115620004bf57620004be6200043e565b5b828201905092915050565b7f4e487b7100000000000000000000000000000000000000000000000000000000600052602260045260246000fd5b600060028204905060018216806200051257607f821691505b60208210811415620005295762000528620004ca565b5b50919050565b611c6d806200053f6000396000f3fe6080604052600436106101805760003560e01c806366ed58db116100d157806395d89b411161008a578063c61a08c111610064578063c61a08c11461056a578063ce9b070a14610595578063dd62ed3e146105c0578063fe0174bd146105fd57610180565b806395d89b41146104eb5780639cbd7da514610516578063a9059cbb1461052d57610180565b806366ed58db146103d75780636ccac50f1461040257806370a082311461042d5780637691104d1461046a5780637d3cdd6014610495578063889ed108146104c057610180565b8063129caa181161013e57806327e235e31161011857806327e235e3146103285780632afcf48014610365578063313ce567146103955780634f248409146103c057610180565b8063129caa18146102a957806318160ddd146102c057806323b872dd146102eb57610180565b80623798441461018557806306fdde03146101c2578063087d01df146101ed578063095ea7b31461021857806309b637bc146102555780630d6f13d414610280575b600080fd5b34801561019157600080fd5b506101ac60048036038101906101a79190611542565b610628565b6040516101b99190611588565b60405180910390f35b3480156101ce57600080fd5b506101d7610640565b6040516101e4919061163c565b60405180910390f35b3480156101f957600080fd5b506102026106ce565b60405161020f9190611588565b60405180910390f35b34801561022457600080fd5b5061023f600480360381019061023a919061168a565b6106d8565b60405161024c91906116e5565b60405180910390f35b34801561026157600080fd5b5061026a6108a0565b604051610277919061170f565b60405180910390f35b34801561028c57600080fd5b506102a760048036038101906102a29190611768565b6108c6565b005b3480156102b557600080fd5b506102be610964565b005b3480156102cc57600080fd5b506102d56109eb565b6040516102e29190611588565b60405180910390f35b3480156102f757600080fd5b50610312600480360381019061030d9190611795565b6109f1565b60405161031f91906116e5565b60405180910390f35b34801561033457600080fd5b5061034f600480360381019061034a9190611542565b610c66565b60405161035c9190611588565b60405180910390f35b61037f600480360381019061037a91906117e8565b610c7e565b60405161038c91906116e5565b60405180910390f35b3480156103a157600080fd5b506103aa610fa3565b6040516103b79190611588565b60405180910390f35b3480156103cc57600080fd5b506103d5610fa9565b005b3480156103e357600080fd5b506103ec611030565b6040516103f9919061188c565b60405180910390f35b34801561040e57600080fd5b506104176110b3565b6040516104249190611588565b60405180910390f35b34801561043957600080fd5b50610454600480360381019061044f9190611542565b6110bd565b6040516104619190611588565b60405180910390f35b34801561047657600080fd5b5061047f611106565b60405161048c9190611588565b60405180910390f35b3480156104a157600080fd5b506104aa61110c565b6040516104b7919061170f565b60405180910390f35b3480156104cc57600080fd5b506104d5611136565b6040516104e2919061188c565b60405180910390f35b3480156104f757600080fd5b5061050061114d565b60405161050d919061163c565b60405180910390f35b34801561052257600080fd5b5061052b6111db565b005b34801561053957600080fd5b50610554600480360381019061054f919061168a565b611262565b60405161056191906116e5565b60405180910390f35b34801561057657600080fd5b5061057f61141a565b60405161058c9190611588565b60405180910390f35b3480156105a157600080fd5b506105aa611424565b6040516105b79190611588565b60405180910390f35b3480156105cc57600080fd5b506105e760048036038101906105e291906118a7565b61142e565b6040516105f49190611588565b60405180910390f35b34801561060957600080fd5b506106126114b5565b60405161061f919061170f565b60405180910390f35b60076020528060005260406000206000915090505481565b6000805461064d90611916565b80601f016020809104026020016040519081016040528092919081815260200182805461067990611916565b80156106c65780601f1061069b576101008083540402835291602001916106c6565b820191906000526020600020905b8154815290600101906020018083116106a957829003601f168201915b505050505081565b6000600a54905090565b600081600560003373ffffffffffffffffffffffffffffffffffffffff1673ffffffffffffffffffffffffffffffffffffffff1681526020019081526020016000205410801561076757506000600560003373ffffffffffffffffffffffffffffffffffffffff1673ffffffffffffffffffffffffffffffffffffffff16815260200190815260200160002054145b1561079e576040517fe139b34700000000000000000000000000000000000000000000000000000000815260040160405180910390fd5b81600660003373ffffffffffffffffffffffffffffffffffffffff1673ffffffffffffffffffffffffffffffffffffffff16815260200190815260200160002060008573ffffffffffffffffffffffffffffffffffffffff1673ffffffffffffffffffffffffffffffffffffffff168152602001908152602001600020600082825461082a9190611977565b925050819055508273ffffffffffffffffffffffffffffffffffffffff163373ffffffffffffffffffffffffffffffffffffffff167f8c5be1e5ebec7d5bd14f71427d1e84f3dd0314c0f7b2291e5b200ac8c7c3b9258460405161088e9190611588565b60405180910390a36001905092915050565b600460009054906101000a900473ffffffffffffffffffffffffffffffffffffffff1681565b601360009054906101000a900473ffffffffffffffffffffffffffffffffffffffff1673ffffffffffffffffffffffffffffffffffffffff163373ffffffffffffffffffffffffffffffffffffffff161461092057600080fd5b80601460006101000a81548173ffffffffffffffffffffffffffffffffffffffff021916908373ffffffffffffffffffffffffffffffffffffffff16021790555050565b601360009054906101000a900473ffffffffffffffffffffffffffffffffffffffff1673ffffffffffffffffffffffffffffffffffffffff163373ffffffffffffffffffffffffffffffffffffffff16146109be57600080fd5b6002600860006101000a81548160ff021916908360038111156109e4576109e3611815565b5b0217905550565b60035481565b600081600560003373ffffffffffffffffffffffffffffffffffffffff1673ffffffffffffffffffffffffffffffffffffffff16815260200190815260200160002054108015610a8057506000600560003373ffffffffffffffffffffffffffffffffffffffff1673ffffffffffffffffffffffffffffffffffffffff16815260200190815260200160002054145b15610ab7576040517fe139b34700000000000000000000000000000000000000000000000000000000815260040160405180910390fd5b81600560008573ffffffffffffffffffffffffffffffffffffffff1673ffffffffffffffffffffffffffffffffffffffff1681526020019081526020016000206000828254610b069190611977565b9250508190555081600660008673ffffffffffffffffffffffffffffffffffffffff1673ffffffffffffffffffffffffffffffffffffffff16815260200190815260200160002060003373ffffffffffffffffffffffffffffffffffffffff1673ffffffffffffffffffffffffffffffffffffffff1681526020019081526020016000206000828254610b9991906119cd565b9250508190555081600560008673ffffffffffffffffffffffffffffffffffffffff1673ffffffffffffffffffffffffffffffffffffffff1681526020019081526020016000206000828254610bef91906119cd565b925050819055508273ffffffffffffffffffffffffffffffffffffffff168473ffffffffffffffffffffffffffffffffffffffff167fddf252ad1be2c89b69c2b068fc378daa952ba7f163c4a11628f55a4df523b3ef84604051610c539190611588565b60405180910390a3600190509392505050565b60056020528060005260406000206000915090505481565b6000600d54821015610cc5576040517f08c379a0000000000000000000000000000000000000000000000000000000008152600401610cbc90611a4d565b60405180910390fd5b60016003811115610cd957610cd8611815565b5b600860009054906101000a900460ff166003811115610cfb57610cfa611815565b5b14610d3b576040517f08c379a0000000000000000000000000000000000000000000000000000000008152600401610d3290611adf565b60405180910390fd5b680ad78ebc5ac6200000600b5414610d88576040517f08c379a0000000000000000000000000000000000000000000000000000000008152600401610d7f90611b4b565b60405180910390fd5b600e54600760003373ffffffffffffffffffffffffffffffffffffffff1673ffffffffffffffffffffffffffffffffffffffff1681526020019081526020016000205410610e0b576040517f08c379a0000000000000000000000000000000000000000000000000000000008152600401610e0290611bb7565b60405180910390fd5b6000600a5483610e1b9190611c06565b905080600560003373ffffffffffffffffffffffffffffffffffffffff1673ffffffffffffffffffffffffffffffffffffffff1681526020019081526020016000206000828254610e6c9190611977565b925050819055508060056000600460009054906101000a900473ffffffffffffffffffffffffffffffffffffffff1673ffffffffffffffffffffffffffffffffffffffff1673ffffffffffffffffffffffffffffffffffffffff1681526020019081526020016000206000828254610ee491906119cd565b92505081905550601460009054906101000a900473ffffffffffffffffffffffffffffffffffffffff1673ffffffffffffffffffffffffffffffffffffffff166108fc849081150290604051600060405180830381858888f19350505050158015610f53573d6000803e3d6000fd5b50803373ffffffffffffffffffffffffffffffffffffffff16847fd1073160728e0192749a41429c69755fa7485f2296197489aaab3ac4e0ad9a7c60405160405180910390a46001915050919050565b60025481565b601360009054906101000a900473ffffffffffffffffffffffffffffffffffffffff1673ffffffffffffffffffffffffffffffffffffffff163373ffffffffffffffffffffffffffffffffffffffff161461100357600080fd5b6003600860006101000a81548160ff0219169083600381111561102957611028611815565b5b0217905550565b600060105442101561104557600090506110b0565b6010544210158015611058575060115442105b1561106657600190506110b0565b6002600381111561107a57611079611815565b5b600860009054906101000a900460ff16600381111561109c5761109b611815565b5b14156110ab57600290506110b0565b600390505b90565b6000600c54905090565b6000600560008373ffffffffffffffffffffffffffffffffffffffff1673ffffffffffffffffffffffffffffffffffffffff168152602001908152602001600020549050919050565b600d5481565b6000601260009054906101000a900473ffffffffffffffffffffffffffffffffffffffff16905090565b6000600860009054906101000a900460ff16905090565b6001805461115a90611916565b80601f016020809104026020016040519081016040528092919081815260200182805461118690611916565b80156111d35780601f106111a8576101008083540402835291602001916111d3565b820191906000526020600020905b8154815290600101906020018083116111b657829003601f168201915b505050505081565b601360009054906101000a900473ffffffffffffffffffffffffffffffffffffffff1673ffffffffffffffffffffffffffffffffffffffff163373ffffffffffffffffffffffffffffffffffffffff161461123557600080fd5b6001600860006101000a81548160ff0219169083600381111561125b5761125a611815565b5b0217905550565b600081600560003373ffffffffffffffffffffffffffffffffffffffff1673ffffffffffffffffffffffffffffffffffffffff1681526020019081526020016000205410156112dd576040517fe139b34700000000000000000000000000000000000000000000000000000000815260040160405180910390fd5b81600560008573ffffffffffffffffffffffffffffffffffffffff1673ffffffffffffffffffffffffffffffffffffffff168152602001908152602001600020600082825461132c9190611977565b925050819055508160056000600460009054906101000a900473ffffffffffffffffffffffffffffffffffffffff1673ffffffffffffffffffffffffffffffffffffffff1673ffffffffffffffffffffffffffffffffffffffff16815260200190815260200160002060008282546113a491906119cd565b925050819055508273ffffffffffffffffffffffffffffffffffffffff163373ffffffffffffffffffffffffffffffffffffffff167fddf252ad1be2c89b69c2b068fc378daa952ba7f163c4a11628f55a4df523b3ef846040516114089190611588565b60405180910390a36001905092915050565b6000600b54905090565b6000600e54905090565b6000600660008473ffffffffffffffffffffffffffffffffffffffff1673ffffffffffffffffffffffffffffffffffffffff16815260200190815260200160002060008373ffffffffffffffffffffffffffffffffffffffff1673ffffffffffffffffffffffffffffffffffffffff16815260200190815260200160002054905092915050565b6000601360009054906101000a900473ffffffffffffffffffffffffffffffffffffffff16905090565b600080fd5b600073ffffffffffffffffffffffffffffffffffffffff82169050919050565b600061150f826114e4565b9050919050565b61151f81611504565b811461152a57600080fd5b50565b60008135905061153c81611516565b92915050565b600060208284031215611558576115576114df565b5b60006115668482850161152d565b91505092915050565b6000819050919050565b6115828161156f565b82525050565b600060208201905061159d6000830184611579565b92915050565b600081519050919050565b600082825260208201905092915050565b60005b838110156115dd5780820151818401526020810190506115c2565b838111156115ec576000848401525b50505050565b6000601f19601f8301169050919050565b600061160e826115a3565b61161881856115ae565b93506116288185602086016115bf565b611631816115f2565b840191505092915050565b600060208201905081810360008301526116568184611603565b905092915050565b6116678161156f565b811461167257600080fd5b50565b6000813590506116848161165e565b92915050565b600080604083850312156116a1576116a06114df565b5b60006116af8582860161152d565b92505060206116c085828601611675565b9150509250929050565b60008115159050919050565b6116df816116ca565b82525050565b60006020820190506116fa60008301846116d6565b92915050565b61170981611504565b82525050565b60006020820190506117246000830184611700565b92915050565b6000611735826114e4565b9050919050565b6117458161172a565b811461175057600080fd5b50565b6000813590506117628161173c565b92915050565b60006020828403121561177e5761177d6114df565b5b600061178c84828501611753565b91505092915050565b6000806000606084860312156117ae576117ad6114df565b5b60006117bc8682870161152d565b93505060206117cd8682870161152d565b92505060406117de86828701611675565b9150509250925092565b6000602082840312156117fe576117fd6114df565b5b600061180c84828501611675565b91505092915050565b7f4e487b7100000000000000000000000000000000000000000000000000000000600052602160045260246000fd5b6004811061185557611854611815565b5b50565b600081905061186682611844565b919050565b600061187682611858565b9050919050565b6118868161186b565b82525050565b60006020820190506118a1600083018461187d565b92915050565b600080604083850312156118be576118bd6114df565b5b60006118cc8582860161152d565b92505060206118dd8582860161152d565b9150509250929050565b7f4e487b7100000000000000000000000000000000000000000000000000000000600052602260045260246000fd5b6000600282049050600182168061192e57607f821691505b60208210811415611942576119416118e7565b5b50919050565b7f4e487b7100000000000000000000000000000000000000000000000000000000600052601160045260246000fd5b60006119828261156f565b915061198d8361156f565b9250827fffffffffffffffffffffffffffffffffffffffffffffffffffffffffffffffff038211156119c2576119c1611948565b5b828201905092915050565b60006119d88261156f565b91506119e38361156f565b9250828210156119f6576119f5611948565b5b828203905092915050565b7f496e73756666696369656e7420416d6f756e7400000000000000000000000000600082015250565b6000611a376013836115ae565b9150611a4282611a01565b602082019050919050565b60006020820190508181036000830152611a6681611a2a565b9050919050565b7f49434f20686173206e6f74207374617274212120436f6e746163742041646d6960008201527f6e00000000000000000000000000000000000000000000000000000000000000602082015250565b6000611ac96021836115ae565b9150611ad482611a6d565b604082019050919050565b60006020820190508181036000830152611af881611abc565b9050919050565b7f49434f2068617320656e64656400000000000000000000000000000000000000600082015250565b6000611b35600d836115ae565b9150611b4082611aff565b602082019050919050565b60006020820190508181036000830152611b6481611b28565b9050919050565b7f457863656564204d6178696d756d20416d6f756e740000000000000000000000600082015250565b6000611ba16015836115ae565b9150611bac82611b6b565b602082019050919050565b60006020820190508181036000830152611bd081611b94565b9050919050565b7f4e487b7100000000000000000000000000000000000000000000000000000000600052601260045260246000fd5b6000611c118261156f565b9150611c1c8361156f565b925082611c2c57611c2b611bd7565b5b82820490509291505056fea264697066735822122030cee0364cc052f00b3c13b0795d1a3b23d3c9fd79f5a6d5cd623fe0d542b6e264736f6c63430008090033",
  "linkReferences": {},
  "deployedLinkReferences": {}
}