{
  "_format": "hh-sol-artifact-1",
  "contractName": "SageExchange",
  "sourceName": "contracts/SageExchange.sol",
  "abi": [
    {
      "inputs": [
        {
          "internalType": "address payable",
          "name": "_admin",
          "type": "address"
        }
      ],
      "stateMutability": "nonpayable",
      "type": "constructor"
    },
    {
      "anonymous": false,
      "inputs": [
        {
          "indexed": true,
          "internalType": "address",
          "name": "owner",
          "type": "address"
        },
        {
          "indexed": true,
          "internalType": "address",
          "name": "spender",
          "type": "address"
        },
        {
          "indexed": false,
          "internalType": "uint256",
          "name": "value",
          "type": "uint256"
        }
      ],
      "name": "Approval",
      "type": "event"
    },
    {
      "anonymous": false,
      "inputs": [
        {
          "indexed": false,
          "internalType": "uint256",
          "name": "amount",
          "type": "uint256"
        },
        {
          "indexed": false,
          "internalType": "uint256",
          "name": "tokens",
          "type": "uint256"
        },
        {
          "indexed": true,
          "internalType": "address",
          "name": "buyer",
          "type": "address"
        }
      ],
      "name": "Invest",
      "type": "event"
    },
    {
      "anonymous": false,
      "inputs": [
        {
          "indexed": true,
          "internalType": "address",
          "name": "from",
          "type": "address"
        },
        {
          "indexed": true,
          "internalType": "address",
          "name": "to",
          "type": "address"
        },
        {
          "indexed": false,
          "internalType": "uint256",
          "name": "value",
          "type": "uint256"
        }
      ],
      "name": "Transfer",
      "type": "event"
    },
    {
      "anonymous": false,
      "inputs": [
        {
          "indexed": true,
          "internalType": "address",
          "name": "adminaddress",
          "type": "address"
        }
      ],
      "name": "UpdatedadminAdress",
      "type": "event"
    },
    {
      "inputs": [],
      "name": "ICOInvest",
      "outputs": [
        {
          "internalType": "bool",
          "name": "",
          "type": "bool"
        }
      ],
      "stateMutability": "payable",
      "type": "function"
    },
    {
      "inputs": [],
      "name": "ICOStatus",
      "outputs": [],
      "stateMutability": "nonpayable",
      "type": "function"
    },
    {
      "inputs": [
        {
          "internalType": "address",
          "name": "_owner",
          "type": "address"
        },
        {
          "internalType": "address",
          "name": "spender",
          "type": "address"
        }
      ],
      "name": "allowance",
      "outputs": [
        {
          "internalType": "uint256",
          "name": "",
          "type": "uint256"
        }
      ],
      "stateMutability": "view",
      "type": "function"
    },
    {
      "inputs": [
        {
          "internalType": "address",
          "name": "spender",
          "type": "address"
        },
        {
          "internalType": "uint256",
          "name": "amount",
          "type": "uint256"
        }
      ],
      "name": "approve",
      "outputs": [
        {
          "internalType": "bool",
          "name": "",
          "type": "bool"
        }
      ],
      "stateMutability": "nonpayable",
      "type": "function"
    },
    {
      "inputs": [
        {
          "internalType": "address",
          "name": "tokenAddress",
          "type": "address"
        }
      ],
      "name": "balanceOf",
      "outputs": [
        {
          "internalType": "uint256",
          "name": "",
          "type": "uint256"
        }
      ],
      "stateMutability": "view",
      "type": "function"
    },
    {
      "inputs": [
        {
          "internalType": "address",
          "name": "",
          "type": "address"
        }
      ],
      "name": "balances",
      "outputs": [
        {
          "internalType": "uint256",
          "name": "",
          "type": "uint256"
        }
      ],
      "stateMutability": "view",
      "type": "function"
    },
    {
      "inputs": [
        {
          "internalType": "uint256",
          "name": "amount",
          "type": "uint256"
        }
      ],
      "name": "burn",
      "outputs": [],
      "stateMutability": "nonpayable",
      "type": "function"
    },
    {
      "inputs": [
        {
          "internalType": "address payable",
          "name": "_adminaddress",
          "type": "address"
        }
      ],
      "name": "changeAdminAdress",
      "outputs": [
        {
          "internalType": "bool",
          "name": "",
          "type": "bool"
        }
      ],
      "stateMutability": "nonpayable",
      "type": "function"
    },
    {
      "inputs": [
        {
          "internalType": "enum SageExchange.ICOState",
          "name": "_status",
          "type": "uint8"
        }
      ],
      "name": "changeICOState",
      "outputs": [
        {
          "internalType": "bool",
          "name": "",
          "type": "bool"
        }
      ],
      "stateMutability": "nonpayable",
      "type": "function"
    },
    {
      "inputs": [],
      "name": "decimals",
      "outputs": [
        {
          "internalType": "uint256",
          "name": "",
          "type": "uint256"
        }
      ],
      "stateMutability": "view",
      "type": "function"
    },
    {
      "inputs": [],
      "name": "getAmountDeposit",
      "outputs": [
        {
          "internalType": "uint256",
          "name": "",
          "type": "uint256"
        }
      ],
      "stateMutability": "view",
      "type": "function"
    },
    {
      "inputs": [],
      "name": "getTokenAmount",
      "outputs": [
        {
          "internalType": "uint256",
          "name": "",
          "type": "uint256"
        }
      ],
      "stateMutability": "view",
      "type": "function"
    },
    {
      "inputs": [],
      "name": "getTokenPurchase",
      "outputs": [
        {
          "internalType": "uint256",
          "name": "",
          "type": "uint256"
        }
      ],
      "stateMutability": "view",
      "type": "function"
    },
    {
      "inputs": [],
      "name": "gethardcap",
      "outputs": [
        {
          "internalType": "uint256",
          "name": "",
          "type": "uint256"
        }
      ],
      "stateMutability": "view",
      "type": "function"
    },
    {
      "inputs": [],
      "name": "geticostate",
      "outputs": [
        {
          "internalType": "enum SageExchange.ICOState",
          "name": "",
          "type": "uint8"
        }
      ],
      "stateMutability": "view",
      "type": "function"
    },
    {
      "inputs": [],
      "name": "getmaximumAmount",
      "outputs": [
        {
          "internalType": "uint256",
          "name": "",
          "type": "uint256"
        }
      ],
      "stateMutability": "view",
      "type": "function"
    },
    {
      "inputs": [],
      "name": "getminimumAmount",
      "outputs": [
        {
          "internalType": "uint256",
          "name": "",
          "type": "uint256"
        }
      ],
      "stateMutability": "view",
      "type": "function"
    },
    {
      "inputs": [],
      "name": "getowner",
      "outputs": [
        {
          "internalType": "address",
          "name": "",
          "type": "address"
        }
      ],
      "stateMutability": "view",
      "type": "function"
    },
    {
      "inputs": [
        {
          "internalType": "uint256",
          "name": "amount",
          "type": "uint256"
        }
      ],
      "name": "mint",
      "outputs": [],
      "stateMutability": "nonpayable",
      "type": "function"
    },
    {
      "inputs": [],
      "name": "name",
      "outputs": [
        {
          "internalType": "string",
          "name": "",
          "type": "string"
        }
      ],
      "stateMutability": "view",
      "type": "function"
    },
    {
      "inputs": [],
      "name": "owner",
      "outputs": [
        {
          "internalType": "address",
          "name": "",
          "type": "address"
        }
      ],
      "stateMutability": "view",
      "type": "function"
    },
    {
      "inputs": [],
      "name": "s_admin",
      "outputs": [
        {
          "internalType": "address payable",
          "name": "",
          "type": "address"
        }
      ],
      "stateMutability": "view",
      "type": "function"
    },
    {
      "inputs": [
        {
          "internalType": "address",
          "name": "",
          "type": "address"
        }
      ],
      "name": "s_adminaddress",
      "outputs": [
        {
          "internalType": "uint256",
          "name": "",
          "type": "uint256"
        }
      ],
      "stateMutability": "view",
      "type": "function"
    },
    {
      "inputs": [],
      "name": "s_timeend",
      "outputs": [
        {
          "internalType": "uint256",
          "name": "",
          "type": "uint256"
        }
      ],
      "stateMutability": "view",
      "type": "function"
    },
    {
      "inputs": [],
      "name": "s_timestart",
      "outputs": [
        {
          "internalType": "uint256",
          "name": "",
          "type": "uint256"
        }
      ],
      "stateMutability": "view",
      "type": "function"
    },
    {
      "inputs": [
        {
          "internalType": "address",
          "name": "",
          "type": "address"
        }
      ],
      "name": "s_userBalances",
      "outputs": [
        {
          "internalType": "uint256",
          "name": "",
          "type": "uint256"
        }
      ],
      "stateMutability": "view",
      "type": "function"
    },
    {
      "inputs": [],
      "name": "symbol",
      "outputs": [
        {
          "internalType": "string",
          "name": "",
          "type": "string"
        }
      ],
      "stateMutability": "view",
      "type": "function"
    },
    {
      "inputs": [],
      "name": "totalSupply",
      "outputs": [
        {
          "internalType": "uint256",
          "name": "",
          "type": "uint256"
        }
      ],
      "stateMutability": "view",
      "type": "function"
    },
    {
      "inputs": [
        {
          "internalType": "address",
          "name": "to",
          "type": "address"
        },
        {
          "internalType": "uint256",
          "name": "tokens",
          "type": "uint256"
        }
      ],
      "name": "transfer",
      "outputs": [
        {
          "internalType": "bool",
          "name": "",
          "type": "bool"
        }
      ],
      "stateMutability": "nonpayable",
      "type": "function"
    },
    {
      "inputs": [
        {
          "internalType": "address",
          "name": "from",
          "type": "address"
        },
        {
          "internalType": "address",
          "name": "to",
          "type": "address"
        },
        {
          "internalType": "uint256",
          "name": "amount",
          "type": "uint256"
        }
      ],
      "name": "transferFrom",
      "outputs": [
        {
          "internalType": "bool",
          "name": "",
          "type": "bool"
        }
      ],
      "stateMutability": "nonpayable",
      "type": "function"
    }
  ],
  "bytecode": "0x60806040523480156200001157600080fd5b5060405162002828380380620028288339818101604052810190620000379190620003e4565b336000806101000a81548173ffffffffffffffffffffffffffffffffffffffff021916908373ffffffffffffffffffffffffffffffffffffffff1602179055506040518060400160405280600481526020017f534147450000000000000000000000000000000000000000000000000000000081525060019080519060200190620000c4929190620002ca565b506040518060400160405280600381526020017f53414700000000000000000000000000000000000000000000000000000000008152506002908051906020019062000112929190620002ca565b50600a60038190555068056bc75e2d63100000600481905550600454600560008060009054906101000a900473ffffffffffffffffffffffffffffffffffffffff1673ffffffffffffffffffffffffffffffffffffffff1673ffffffffffffffffffffffffffffffffffffffff16815260200190815260200160002081905550600160078190555080600d60006101000a81548173ffffffffffffffffffffffffffffffffffffffff021916908373ffffffffffffffffffffffffffffffffffffffff16021790555066038d7ea4c68000600e81905550674563918244f40000600f8190555066038d7ea4c68000601081905550670de0b6b3a7640000601181905550603c426200022491906200044f565b600b81905550610e10426200023a91906200044f565b600c819055506003600860006101000a81548160ff02191690836003811115620002695762000268620004ac565b5b0217905550600060138190555060006012819055506000600a60008373ffffffffffffffffffffffffffffffffffffffff1673ffffffffffffffffffffffffffffffffffffffff168152602001908152602001600020819055505062000540565b828054620002d8906200050a565b90600052602060002090601f016020900481019282620002fc576000855562000348565b82601f106200031757805160ff191683800117855562000348565b8280016001018555821562000348579182015b82811115620003475782518255916020019190600101906200032a565b5b5090506200035791906200035b565b5090565b5b80821115620003765760008160009055506001016200035c565b5090565b600080fd5b600073ffffffffffffffffffffffffffffffffffffffff82169050919050565b6000620003ac826200037f565b9050919050565b620003be816200039f565b8114620003ca57600080fd5b50565b600081519050620003de81620003b3565b92915050565b600060208284031215620003fd57620003fc6200037a565b5b60006200040d84828501620003cd565b91505092915050565b6000819050919050565b7f4e487b7100000000000000000000000000000000000000000000000000000000600052601160045260246000fd5b60006200045c8262000416565b9150620004698362000416565b9250827fffffffffffffffffffffffffffffffffffffffffffffffffffffffffffffffff03821115620004a157620004a062000420565b5b828201905092915050565b7f4e487b7100000000000000000000000000000000000000000000000000000000600052602160045260246000fd5b7f4e487b7100000000000000000000000000000000000000000000000000000000600052602260045260246000fd5b600060028204905060018216806200052357607f821691505b602082108114156200053a5762000539620004db565b5b50919050565b6122d880620005506000396000f3fe6080604052600436106101cc5760003560e01c806375f91ec8116100f7578063b52ffe6c11610095578063e2d5521811610064578063e2d55218146106ac578063e9f6f42e146106d7578063fc57d83c14610714578063fe0174bd1461073f576101cc565b8063b52ffe6c146105ee578063c61a08c114610619578063ce9b070a14610644578063dd62ed3e1461066f576101cc565b806395d89b41116100d157806395d89b4114610546578063a0712d6814610571578063a9059cbb1461059a578063b4590cbe146105d7576101cc565b806375f91ec8146104c5578063889ed108146104f05780638da5cb5b1461051b576101cc565b80632122ce201161016f578063313ce5671161013e578063313ce5671461040957806337fe22391461043457806342966c681461045f57806370a0823114610488576101cc565b80632122ce201461033457806323b872dd1461037157806327881d6c146103ae57806327e235e3146103cc576101cc565b8063095ea7b3116101ab578063095ea7b314610276578063132788cf146102b357806318160ddd146102de5780631cd0453914610309576101cc565b8062379844146101d157806306642c661461020e57806306fdde031461024b575b600080fd5b3480156101dd57600080fd5b506101f860048036038101906101f3919061197e565b61076a565b60405161020591906119c4565b60405180910390f35b34801561021a57600080fd5b5061023560048036038101906102309190611a04565b610782565b6040516102429190611a4c565b60405180910390f35b34801561025757600080fd5b50610260610846565b60405161026d9190611b00565b60405180910390f35b34801561028257600080fd5b5061029d60048036038101906102989190611b4e565b6108d4565b6040516102aa9190611a4c565b60405180910390f35b3480156102bf57600080fd5b506102c8610a59565b6040516102d59190611baf565b60405180910390f35b3480156102ea57600080fd5b506102f3610a7f565b60405161030091906119c4565b60405180910390f35b34801561031557600080fd5b5061031e610a85565b60405161032b91906119c4565b60405180910390f35b34801561034057600080fd5b5061035b6004803603810190610356919061197e565b610a8f565b60405161036891906119c4565b60405180910390f35b34801561037d57600080fd5b5061039860048036038101906103939190611bca565b610aa7565b6040516103a59190611a4c565b60405180910390f35b6103b6610d99565b6040516103c39190611a4c565b60405180910390f35b3480156103d857600080fd5b506103f360048036038101906103ee919061197e565b6110f9565b60405161040091906119c4565b60405180910390f35b34801561041557600080fd5b5061041e611111565b60405161042b91906119c4565b60405180910390f35b34801561044057600080fd5b50610449611117565b60405161045691906119c4565b60405180910390f35b34801561046b57600080fd5b5061048660048036038101906104819190611c1d565b611121565b005b34801561049457600080fd5b506104af60048036038101906104aa919061197e565b6111cb565b6040516104bc91906119c4565b60405180910390f35b3480156104d157600080fd5b506104da611214565b6040516104e791906119c4565b60405180910390f35b3480156104fc57600080fd5b5061050561121e565b6040516105129190611cc1565b60405180910390f35b34801561052757600080fd5b50610530611235565b60405161053d9190611ceb565b60405180910390f35b34801561055257600080fd5b5061055b611259565b6040516105689190611b00565b60405180910390f35b34801561057d57600080fd5b5061059860048036038101906105939190611c1d565b6112e7565b005b3480156105a657600080fd5b506105c160048036038101906105bc9190611b4e565b611391565b6040516105ce9190611a4c565b60405180910390f35b3480156105e357600080fd5b506105ec611530565b005b3480156105fa57600080fd5b5061060361161b565b60405161061091906119c4565b60405180910390f35b34801561062557600080fd5b5061062e611621565b60405161063b91906119c4565b60405180910390f35b34801561065057600080fd5b5061065961162b565b60405161066691906119c4565b60405180910390f35b34801561067b57600080fd5b5061069660048036038101906106919190611d06565b611635565b6040516106a391906119c4565b60405180910390f35b3480156106b857600080fd5b506106c16116bc565b6040516106ce91906119c4565b60405180910390f35b3480156106e357600080fd5b506106fe60048036038101906106f99190611d72565b6116c2565b60405161070b9190611a4c565b60405180910390f35b34801561072057600080fd5b5061072961188d565b60405161073691906119c4565b60405180910390f35b34801561074b57600080fd5b50610754611897565b6040516107619190611ceb565b60405180910390f35b60096020528060005260406000206000915090505481565b60008060009054906101000a900473ffffffffffffffffffffffffffffffffffffffff1673ffffffffffffffffffffffffffffffffffffffff163373ffffffffffffffffffffffffffffffffffffffff1614610813576040517f08c379a000000000000000000000000000000000000000000000000000000000815260040161080a90611deb565b60405180910390fd5b81600860006101000a81548160ff0219169083600381111561083857610837611c4a565b5b021790555060019050919050565b6001805461085390611e3a565b80601f016020809104026020016040519081016040528092919081815260200182805461087f90611e3a565b80156108cc5780601f106108a1576101008083540402835291602001916108cc565b820191906000526020600020905b8154815290600101906020018083116108af57829003601f168201915b505050505081565b600081600560003373ffffffffffffffffffffffffffffffffffffffff1673ffffffffffffffffffffffffffffffffffffffff1681526020019081526020016000205411610957576040517f08c379a000000000000000000000000000000000000000000000000000000000815260040161094e90611eb8565b60405180910390fd5b81600660003373ffffffffffffffffffffffffffffffffffffffff1673ffffffffffffffffffffffffffffffffffffffff16815260200190815260200160002060008573ffffffffffffffffffffffffffffffffffffffff1673ffffffffffffffffffffffffffffffffffffffff16815260200190815260200160002060008282546109e39190611f07565b925050819055508273ffffffffffffffffffffffffffffffffffffffff163373ffffffffffffffffffffffffffffffffffffffff167f8c5be1e5ebec7d5bd14f71427d1e84f3dd0314c0f7b2291e5b200ac8c7c3b92584604051610a4791906119c4565b60405180910390a36001905092915050565b600d60009054906101000a900473ffffffffffffffffffffffffffffffffffffffff1681565b60045481565b6000601254905090565b600a6020528060005260406000206000915090505481565b600081600660008673ffffffffffffffffffffffffffffffffffffffff1673ffffffffffffffffffffffffffffffffffffffff16815260200190815260200160002060003373ffffffffffffffffffffffffffffffffffffffff1673ffffffffffffffffffffffffffffffffffffffff168152602001908152602001600020541015610b68576040517f08c379a0000000000000000000000000000000000000000000000000000000008152600401610b5f90611eb8565b60405180910390fd5b81600560008673ffffffffffffffffffffffffffffffffffffffff1673ffffffffffffffffffffffffffffffffffffffff168152602001908152602001600020541015610bea576040517f08c379a0000000000000000000000000000000000000000000000000000000008152600401610be190611eb8565b60405180910390fd5b81600560008673ffffffffffffffffffffffffffffffffffffffff1673ffffffffffffffffffffffffffffffffffffffff1681526020019081526020016000206000828254610c399190611f5d565b9250508190555081600660008673ffffffffffffffffffffffffffffffffffffffff1673ffffffffffffffffffffffffffffffffffffffff16815260200190815260200160002060003373ffffffffffffffffffffffffffffffffffffffff1673ffffffffffffffffffffffffffffffffffffffff1681526020019081526020016000206000828254610ccc9190611f5d565b9250508190555081600560008573ffffffffffffffffffffffffffffffffffffffff1673ffffffffffffffffffffffffffffffffffffffff1681526020019081526020016000206000828254610d229190611f07565b925050819055508273ffffffffffffffffffffffffffffffffffffffff168473ffffffffffffffffffffffffffffffffffffffff167fddf252ad1be2c89b69c2b068fc378daa952ba7f163c4a11628f55a4df523b3ef84604051610d8691906119c4565b60405180910390a3600190509392505050565b6000610da36118c1565b6000349050601054811015610ded576040517f08c379a0000000000000000000000000000000000000000000000000000000008152600401610de490612003565b60405180910390fd5b601154600960003373ffffffffffffffffffffffffffffffffffffffff1673ffffffffffffffffffffffffffffffffffffffff168152602001908152602001600020541115610e71576040517f08c379a0000000000000000000000000000000000000000000000000000000008152600401610e689061206f565b60405180910390fd5b601354600f541015610eb8576040517f08c379a0000000000000000000000000000000000000000000000000000000008152600401610eaf906120db565b60405180910390fd5b6000600e5482610ec8919061212a565b905080600560003373ffffffffffffffffffffffffffffffffffffffff1673ffffffffffffffffffffffffffffffffffffffff1681526020019081526020016000206000828254610f199190611f07565b9250508190555080600560008060009054906101000a900473ffffffffffffffffffffffffffffffffffffffff1673ffffffffffffffffffffffffffffffffffffffff1673ffffffffffffffffffffffffffffffffffffffff1681526020019081526020016000206000828254610f909190611f5d565b925050819055508060126000828254610fa99190611f07565b925050819055508160136000828254610fc29190611f07565b925050819055506000600d60009054906101000a900473ffffffffffffffffffffffffffffffffffffffff1673ffffffffffffffffffffffffffffffffffffffff16836040516110119061218c565b60006040518083038185875af1925050503d806000811461104e576040519150601f19603f3d011682016040523d82523d6000602084013e611053565b606091505b5050905080611097576040517f08c379a000000000000000000000000000000000000000000000000000000000815260040161108e906121ed565b60405180910390fd5b3373ffffffffffffffffffffffffffffffffffffffff167fe68a9497b26026cfe65dde2a240cbd548cb5209e66fd442c464d9390124c97a484846040516110df92919061220d565b60405180910390a2600193505050506110f6611911565b90565b60056020528060005260406000206000915090505481565b60035481565b6000601354905090565b60008054906101000a900473ffffffffffffffffffffffffffffffffffffffff1673ffffffffffffffffffffffffffffffffffffffff163373ffffffffffffffffffffffffffffffffffffffff16146111af576040517f08c379a00000000000000000000000000000000000000000000000000000000081526004016111a690611deb565b60405180910390fd5b80600460008282546111c19190611f5d565b9250508190555050565b6000600560008373ffffffffffffffffffffffffffffffffffffffff1673ffffffffffffffffffffffffffffffffffffffff168152602001908152602001600020549050919050565b6000600e54905090565b6000600860009054906101000a900460ff16905090565b60008054906101000a900473ffffffffffffffffffffffffffffffffffffffff1681565b6002805461126690611e3a565b80601f016020809104026020016040519081016040528092919081815260200182805461129290611e3a565b80156112df5780601f106112b4576101008083540402835291602001916112df565b820191906000526020600020905b8154815290600101906020018083116112c257829003601f168201915b505050505081565b60008054906101000a900473ffffffffffffffffffffffffffffffffffffffff1673ffffffffffffffffffffffffffffffffffffffff163373ffffffffffffffffffffffffffffffffffffffff1614611375576040517f08c379a000000000000000000000000000000000000000000000000000000000815260040161136c90611deb565b60405180910390fd5b80600460008282546113879190611f07565b9250508190555050565b600081600560003373ffffffffffffffffffffffffffffffffffffffff1673ffffffffffffffffffffffffffffffffffffffff168152602001908152602001600020541015611415576040517f08c379a000000000000000000000000000000000000000000000000000000000815260040161140c90611eb8565b60405180910390fd5b81600560008573ffffffffffffffffffffffffffffffffffffffff1673ffffffffffffffffffffffffffffffffffffffff16815260200190815260200160002060008282546114649190611f07565b9250508190555081600560003373ffffffffffffffffffffffffffffffffffffffff1673ffffffffffffffffffffffffffffffffffffffff16815260200190815260200160002060008282546114ba9190611f5d565b925050819055508273ffffffffffffffffffffffffffffffffffffffff163373ffffffffffffffffffffffffffffffffffffffff167fddf252ad1be2c89b69c2b068fc378daa952ba7f163c4a11628f55a4df523b3ef8460405161151e91906119c4565b60405180910390a36001905092915050565b600b5442101561156a576003600860006101000a81548160ff021916908360038111156115605761155f611c4a565b5b0217905550611619565b600b54421015801561157d5750600c5442105b156115b2576000600860006101000a81548160ff021916908360038111156115a8576115a7611c4a565b5b0217905550611618565b600c5442106115eb576001600860006101000a81548160ff021916908360038111156115e1576115e0611c4a565b5b0217905550611617565b6002600860006101000a81548160ff0219169083600381111561161157611610611c4a565b5b02179055505b5b5b565b600b5481565b6000600f54905090565b6000601154905090565b6000600660008473ffffffffffffffffffffffffffffffffffffffff1673ffffffffffffffffffffffffffffffffffffffff16815260200190815260200160002060008373ffffffffffffffffffffffffffffffffffffffff1673ffffffffffffffffffffffffffffffffffffffff16815260200190815260200160002054905092915050565b600c5481565b60008060009054906101000a900473ffffffffffffffffffffffffffffffffffffffff1673ffffffffffffffffffffffffffffffffffffffff163373ffffffffffffffffffffffffffffffffffffffff1614611753576040517f08c379a000000000000000000000000000000000000000000000000000000000815260040161174a90611deb565b60405180910390fd5b601354600a6000600d60009054906101000a900473ffffffffffffffffffffffffffffffffffffffff1673ffffffffffffffffffffffffffffffffffffffff1673ffffffffffffffffffffffffffffffffffffffff168152602001908152602001600020819055506000600a60008473ffffffffffffffffffffffffffffffffffffffff1673ffffffffffffffffffffffffffffffffffffffff1681526020019081526020016000208190555081600d60006101000a81548173ffffffffffffffffffffffffffffffffffffffff021916908373ffffffffffffffffffffffffffffffffffffffff1602179055508173ffffffffffffffffffffffffffffffffffffffff167fe18df40eeddef87940bd2ad46470782f5f2422489af5fedc571da1389fcb7d0860405160405180910390a260019050919050565b6000601054905090565b6000600d60009054906101000a900473ffffffffffffffffffffffffffffffffffffffff16905090565b60026007541415611907576040517f08c379a00000000000000000000000000000000000000000000000000000000081526004016118fe90612282565b60405180910390fd5b6002600781905550565b6001600781905550565b600080fd5b600073ffffffffffffffffffffffffffffffffffffffff82169050919050565b600061194b82611920565b9050919050565b61195b81611940565b811461196657600080fd5b50565b60008135905061197881611952565b92915050565b6000602082840312156119945761199361191b565b5b60006119a284828501611969565b91505092915050565b6000819050919050565b6119be816119ab565b82525050565b60006020820190506119d960008301846119b5565b92915050565b600481106119ec57600080fd5b50565b6000813590506119fe816119df565b92915050565b600060208284031215611a1a57611a1961191b565b5b6000611a28848285016119ef565b91505092915050565b60008115159050919050565b611a4681611a31565b82525050565b6000602082019050611a616000830184611a3d565b92915050565b600081519050919050565b600082825260208201905092915050565b60005b83811015611aa1578082015181840152602081019050611a86565b83811115611ab0576000848401525b50505050565b6000601f19601f8301169050919050565b6000611ad282611a67565b611adc8185611a72565b9350611aec818560208601611a83565b611af581611ab6565b840191505092915050565b60006020820190508181036000830152611b1a8184611ac7565b905092915050565b611b2b816119ab565b8114611b3657600080fd5b50565b600081359050611b4881611b22565b92915050565b60008060408385031215611b6557611b6461191b565b5b6000611b7385828601611969565b9250506020611b8485828601611b39565b9150509250929050565b6000611b9982611920565b9050919050565b611ba981611b8e565b82525050565b6000602082019050611bc46000830184611ba0565b92915050565b600080600060608486031215611be357611be261191b565b5b6000611bf186828701611969565b9350506020611c0286828701611969565b9250506040611c1386828701611b39565b9150509250925092565b600060208284031215611c3357611c3261191b565b5b6000611c4184828501611b39565b91505092915050565b7f4e487b7100000000000000000000000000000000000000000000000000000000600052602160045260246000fd5b60048110611c8a57611c89611c4a565b5b50565b6000819050611c9b82611c79565b919050565b6000611cab82611c8d565b9050919050565b611cbb81611ca0565b82525050565b6000602082019050611cd66000830184611cb2565b92915050565b611ce581611940565b82525050565b6000602082019050611d006000830184611cdc565b92915050565b60008060408385031215611d1d57611d1c61191b565b5b6000611d2b85828601611969565b9250506020611d3c85828601611969565b9150509250929050565b611d4f81611b8e565b8114611d5a57600080fd5b50565b600081359050611d6c81611d46565b92915050565b600060208284031215611d8857611d8761191b565b5b6000611d9684828501611d5d565b91505092915050565b7f4f6e6c792041646d696e20686173207065726d697373696f6e00000000000000600082015250565b6000611dd5601983611a72565b9150611de082611d9f565b602082019050919050565b60006020820190508181036000830152611e0481611dc8565b9050919050565b7f4e487b7100000000000000000000000000000000000000000000000000000000600052602260045260246000fd5b60006002820490506001821680611e5257607f821691505b60208210811415611e6657611e65611e0b565b5b50919050565b7f496e73756666696369656e7420546f6b656e20416d6f756e7400000000000000600082015250565b6000611ea2601983611a72565b9150611ead82611e6c565b602082019050919050565b60006020820190508181036000830152611ed181611e95565b9050919050565b7f4e487b7100000000000000000000000000000000000000000000000000000000600052601160045260246000fd5b6000611f12826119ab565b9150611f1d836119ab565b9250827fffffffffffffffffffffffffffffffffffffffffffffffffffffffffffffffff03821115611f5257611f51611ed8565b5b828201905092915050565b6000611f68826119ab565b9150611f73836119ab565b925082821015611f8657611f85611ed8565b5b828203905092915050565b7f456e74657220612056616c696420416d6f756e742c204d696e696d756d20616d60008201527f6f756e7420697320302e30303120455448000000000000000000000000000000602082015250565b6000611fed603183611a72565b9150611ff882611f91565b604082019050919050565b6000602082019050818103600083015261201c81611fe0565b9050919050565b7f45786365656420796f75206c696d697420666f72207468652049434f00000000600082015250565b6000612059601c83611a72565b915061206482612023565b602082019050919050565b600060208201905081810360008301526120888161204c565b9050919050565b7f49434f2068617320436c6f736564000000000000000000000000000000000000600082015250565b60006120c5600e83611a72565b91506120d08261208f565b602082019050919050565b600060208201905081810360008301526120f4816120b8565b9050919050565b7f4e487b7100000000000000000000000000000000000000000000000000000000600052601260045260246000fd5b6000612135826119ab565b9150612140836119ab565b9250826121505761214f6120fb565b5b828204905092915050565b600081905092915050565b50565b600061217660008361215b565b915061218182612166565b600082019050919050565b600061219782612169565b9150819050919050565b7f4661696c65640000000000000000000000000000000000000000000000000000600082015250565b60006121d7600683611a72565b91506121e2826121a1565b602082019050919050565b60006020820190508181036000830152612206816121ca565b9050919050565b600060408201905061222260008301856119b5565b61222f60208301846119b5565b9392505050565b7f5265656e7472616e637947756172643a207265656e7472616e742063616c6c00600082015250565b600061226c601f83611a72565b915061227782612236565b602082019050919050565b6000602082019050818103600083015261229b8161225f565b905091905056fea2646970667358221220198720762e0f3cad3e85e47ba4ad7daaf31cd78f257ec3a1dcc15e0a85acb36364736f6c63430008090033",
  "linkReferences": {},
  "deployedLinkReferences": {}
}