{
  "_format": "hh-sol-artifact-1",
  "contractName": "SageExchange",
  "sourceName": "contracts/SageExchange.sol",
  "abi": [
    {
      "inputs": [
        {
          "internalType": "address payable",
          "name": "_admin",
          "type": "address"
        },
        {
          "internalType": "address",
          "name": "_stakingaddress",
          "type": "address"
        }
      ],
      "stateMutability": "nonpayable",
      "type": "constructor"
    },
    {
      "anonymous": false,
      "inputs": [
        {
          "indexed": true,
          "internalType": "address",
          "name": "owner",
          "type": "address"
        },
        {
          "indexed": true,
          "internalType": "address",
          "name": "spender",
          "type": "address"
        },
        {
          "indexed": false,
          "internalType": "uint256",
          "name": "value",
          "type": "uint256"
        }
      ],
      "name": "Approval",
      "type": "event"
    },
    {
      "anonymous": false,
      "inputs": [
        {
          "indexed": false,
          "internalType": "uint256",
          "name": "amount",
          "type": "uint256"
        },
        {
          "indexed": false,
          "internalType": "uint256",
          "name": "tokens",
          "type": "uint256"
        },
        {
          "indexed": true,
          "internalType": "address",
          "name": "buyer",
          "type": "address"
        }
      ],
      "name": "Invest",
      "type": "event"
    },
    {
      "anonymous": false,
      "inputs": [
        {
          "indexed": true,
          "internalType": "address",
          "name": "from",
          "type": "address"
        },
        {
          "indexed": true,
          "internalType": "address",
          "name": "to",
          "type": "address"
        },
        {
          "indexed": false,
          "internalType": "uint256",
          "name": "value",
          "type": "uint256"
        }
      ],
      "name": "Transfer",
      "type": "event"
    },
    {
      "anonymous": false,
      "inputs": [
        {
          "indexed": true,
          "internalType": "address",
          "name": "adminaddress",
          "type": "address"
        }
      ],
      "name": "UpdatedadminAdress",
      "type": "event"
    },
    {
      "inputs": [],
      "name": "ICOInvest",
      "outputs": [
        {
          "internalType": "bool",
          "name": "",
          "type": "bool"
        }
      ],
      "stateMutability": "payable",
      "type": "function"
    },
    {
      "inputs": [],
      "name": "ICOStatus",
      "outputs": [],
      "stateMutability": "nonpayable",
      "type": "function"
    },
    {
      "inputs": [],
      "name": "StakingToken",
      "outputs": [
        {
          "internalType": "contract IERC20",
          "name": "",
          "type": "address"
        }
      ],
      "stateMutability": "view",
      "type": "function"
    },
    {
      "inputs": [
        {
          "internalType": "address",
          "name": "_owner",
          "type": "address"
        },
        {
          "internalType": "address",
          "name": "spender",
          "type": "address"
        }
      ],
      "name": "allowance",
      "outputs": [
        {
          "internalType": "uint256",
          "name": "",
          "type": "uint256"
        }
      ],
      "stateMutability": "view",
      "type": "function"
    },
    {
      "inputs": [
        {
          "internalType": "address",
          "name": "spender",
          "type": "address"
        },
        {
          "internalType": "uint256",
          "name": "amount",
          "type": "uint256"
        }
      ],
      "name": "approve",
      "outputs": [
        {
          "internalType": "bool",
          "name": "",
          "type": "bool"
        }
      ],
      "stateMutability": "nonpayable",
      "type": "function"
    },
    {
      "inputs": [
        {
          "internalType": "address",
          "name": "tokenAddress",
          "type": "address"
        }
      ],
      "name": "balanceOf",
      "outputs": [
        {
          "internalType": "uint256",
          "name": "",
          "type": "uint256"
        }
      ],
      "stateMutability": "view",
      "type": "function"
    },
    {
      "inputs": [
        {
          "internalType": "address",
          "name": "",
          "type": "address"
        }
      ],
      "name": "balances",
      "outputs": [
        {
          "internalType": "uint256",
          "name": "",
          "type": "uint256"
        }
      ],
      "stateMutability": "view",
      "type": "function"
    },
    {
      "inputs": [
        {
          "internalType": "address",
          "name": "",
          "type": "address"
        }
      ],
      "name": "blacklist",
      "outputs": [
        {
          "internalType": "bool",
          "name": "",
          "type": "bool"
        }
      ],
      "stateMutability": "view",
      "type": "function"
    },
    {
      "inputs": [
        {
          "internalType": "address",
          "name": "_user",
          "type": "address"
        }
      ],
      "name": "blacklistAddress",
      "outputs": [],
      "stateMutability": "nonpayable",
      "type": "function"
    },
    {
      "inputs": [
        {
          "internalType": "uint256",
          "name": "amount",
          "type": "uint256"
        }
      ],
      "name": "burn",
      "outputs": [],
      "stateMutability": "nonpayable",
      "type": "function"
    },
    {
      "inputs": [
        {
          "internalType": "address payable",
          "name": "_adminaddress",
          "type": "address"
        }
      ],
      "name": "changeAdminAdress",
      "outputs": [
        {
          "internalType": "bool",
          "name": "",
          "type": "bool"
        }
      ],
      "stateMutability": "nonpayable",
      "type": "function"
    },
    {
      "inputs": [
        {
          "internalType": "enum SageExchange.ICOState",
          "name": "_status",
          "type": "uint8"
        }
      ],
      "name": "changeICOState",
      "outputs": [
        {
          "internalType": "bool",
          "name": "",
          "type": "bool"
        }
      ],
      "stateMutability": "nonpayable",
      "type": "function"
    },
    {
      "inputs": [],
      "name": "decimals",
      "outputs": [
        {
          "internalType": "uint256",
          "name": "",
          "type": "uint256"
        }
      ],
      "stateMutability": "view",
      "type": "function"
    },
    {
      "inputs": [],
      "name": "getAmountDeposit",
      "outputs": [
        {
          "internalType": "uint256",
          "name": "",
          "type": "uint256"
        }
      ],
      "stateMutability": "view",
      "type": "function"
    },
    {
      "inputs": [],
      "name": "getTokenAmount",
      "outputs": [
        {
          "internalType": "uint256",
          "name": "",
          "type": "uint256"
        }
      ],
      "stateMutability": "view",
      "type": "function"
    },
    {
      "inputs": [],
      "name": "getTokenPurchase",
      "outputs": [
        {
          "internalType": "uint256",
          "name": "",
          "type": "uint256"
        }
      ],
      "stateMutability": "view",
      "type": "function"
    },
    {
      "inputs": [],
      "name": "gethardcap",
      "outputs": [
        {
          "internalType": "uint256",
          "name": "",
          "type": "uint256"
        }
      ],
      "stateMutability": "view",
      "type": "function"
    },
    {
      "inputs": [],
      "name": "geticostate",
      "outputs": [
        {
          "internalType": "enum SageExchange.ICOState",
          "name": "",
          "type": "uint8"
        }
      ],
      "stateMutability": "view",
      "type": "function"
    },
    {
      "inputs": [],
      "name": "getmaximumAmount",
      "outputs": [
        {
          "internalType": "uint256",
          "name": "",
          "type": "uint256"
        }
      ],
      "stateMutability": "view",
      "type": "function"
    },
    {
      "inputs": [],
      "name": "getminimumAmount",
      "outputs": [
        {
          "internalType": "uint256",
          "name": "",
          "type": "uint256"
        }
      ],
      "stateMutability": "view",
      "type": "function"
    },
    {
      "inputs": [],
      "name": "getowner",
      "outputs": [
        {
          "internalType": "address",
          "name": "",
          "type": "address"
        }
      ],
      "stateMutability": "view",
      "type": "function"
    },
    {
      "inputs": [
        {
          "internalType": "address",
          "name": "to",
          "type": "address"
        },
        {
          "internalType": "uint256",
          "name": "amount",
          "type": "uint256"
        }
      ],
      "name": "mint",
      "outputs": [],
      "stateMutability": "nonpayable",
      "type": "function"
    },
    {
      "inputs": [],
      "name": "name",
      "outputs": [
        {
          "internalType": "string",
          "name": "",
          "type": "string"
        }
      ],
      "stateMutability": "view",
      "type": "function"
    },
    {
      "inputs": [],
      "name": "owner",
      "outputs": [
        {
          "internalType": "address",
          "name": "",
          "type": "address"
        }
      ],
      "stateMutability": "view",
      "type": "function"
    },
    {
      "inputs": [],
      "name": "s_admin",
      "outputs": [
        {
          "internalType": "address payable",
          "name": "",
          "type": "address"
        }
      ],
      "stateMutability": "view",
      "type": "function"
    },
    {
      "inputs": [
        {
          "internalType": "address",
          "name": "",
          "type": "address"
        }
      ],
      "name": "s_adminaddress",
      "outputs": [
        {
          "internalType": "uint256",
          "name": "",
          "type": "uint256"
        }
      ],
      "stateMutability": "view",
      "type": "function"
    },
    {
      "inputs": [],
      "name": "s_timeend",
      "outputs": [
        {
          "internalType": "uint256",
          "name": "",
          "type": "uint256"
        }
      ],
      "stateMutability": "view",
      "type": "function"
    },
    {
      "inputs": [],
      "name": "s_timestart",
      "outputs": [
        {
          "internalType": "uint256",
          "name": "",
          "type": "uint256"
        }
      ],
      "stateMutability": "view",
      "type": "function"
    },
    {
      "inputs": [
        {
          "internalType": "address",
          "name": "",
          "type": "address"
        }
      ],
      "name": "s_userBalances",
      "outputs": [
        {
          "internalType": "uint256",
          "name": "",
          "type": "uint256"
        }
      ],
      "stateMutability": "view",
      "type": "function"
    },
    {
      "inputs": [],
      "name": "symbol",
      "outputs": [
        {
          "internalType": "string",
          "name": "",
          "type": "string"
        }
      ],
      "stateMutability": "view",
      "type": "function"
    },
    {
      "inputs": [],
      "name": "tokenBalance",
      "outputs": [
        {
          "internalType": "uint256",
          "name": "",
          "type": "uint256"
        }
      ],
      "stateMutability": "view",
      "type": "function"
    },
    {
      "inputs": [],
      "name": "totalSupply",
      "outputs": [
        {
          "internalType": "uint256",
          "name": "",
          "type": "uint256"
        }
      ],
      "stateMutability": "view",
      "type": "function"
    },
    {
      "inputs": [
        {
          "internalType": "address",
          "name": "to",
          "type": "address"
        },
        {
          "internalType": "uint256",
          "name": "tokens",
          "type": "uint256"
        }
      ],
      "name": "transfer",
      "outputs": [
        {
          "internalType": "bool",
          "name": "",
          "type": "bool"
        }
      ],
      "stateMutability": "nonpayable",
      "type": "function"
    },
    {
      "inputs": [
        {
          "internalType": "address",
          "name": "from",
          "type": "address"
        },
        {
          "internalType": "address",
          "name": "to",
          "type": "address"
        },
        {
          "internalType": "uint256",
          "name": "amount",
          "type": "uint256"
        }
      ],
      "name": "transferFrom",
      "outputs": [
        {
          "internalType": "bool",
          "name": "",
          "type": "bool"
        }
      ],
      "stateMutability": "nonpayable",
      "type": "function"
    },
    {
      "inputs": [
        {
          "internalType": "address",
          "name": "_user",
          "type": "address"
        }
      ],
      "name": "unBlacklistAddress",
      "outputs": [],
      "stateMutability": "nonpayable",
      "type": "function"
    }
  ],
  "bytecode": "0x60a06040523480156200001157600080fd5b506040516200340d3803806200340d833981810160405281019062000037919062000460565b336000806101000a81548173ffffffffffffffffffffffffffffffffffffffff021916908373ffffffffffffffffffffffffffffffffffffffff1602179055506040518060400160405280600481526020017f534147450000000000000000000000000000000000000000000000000000000081525060019080519060200190620000c492919062000301565b506040518060400160405280600481526020017f4e53414700000000000000000000000000000000000000000000000000000000815250600290805190602001906200011292919062000301565b50600a6003819055506a084595161401484a000000600481905550600454600560008060009054906101000a900473ffffffffffffffffffffffffffffffffffffffff1673ffffffffffffffffffffffffffffffffffffffff1673ffffffffffffffffffffffffffffffffffffffff1681526020019081526020016000208190555060016008819055508073ffffffffffffffffffffffffffffffffffffffff1660808173ffffffffffffffffffffffffffffffffffffffff168152505081600e60006101000a81548173ffffffffffffffffffffffffffffffffffffffff021916908373ffffffffffffffffffffffffffffffffffffffff16021790555066038d7ea4c68000600f81905550674563918244f4000060108190555066038d7ea4c68000601181905550670de0b6b3a7640000601281905550603c426200025a9190620004e0565b600c81905550610e1042620002709190620004e0565b600d819055506003600960006101000a81548160ff021916908360038111156200029f576200029e6200053d565b5b0217905550600060148190555060006013819055506000600b60008473ffffffffffffffffffffffffffffffffffffffff1673ffffffffffffffffffffffffffffffffffffffff168152602001908152602001600020819055505050620005d1565b8280546200030f906200059b565b90600052602060002090601f0160209004810192826200033357600085556200037f565b82601f106200034e57805160ff19168380011785556200037f565b828001600101855582156200037f579182015b828111156200037e57825182559160200191906001019062000361565b5b5090506200038e919062000392565b5090565b5b80821115620003ad57600081600090555060010162000393565b5090565b600080fd5b600073ffffffffffffffffffffffffffffffffffffffff82169050919050565b6000620003e382620003b6565b9050919050565b620003f581620003d6565b81146200040157600080fd5b50565b6000815190506200041581620003ea565b92915050565b60006200042882620003b6565b9050919050565b6200043a816200041b565b81146200044657600080fd5b50565b6000815190506200045a816200042f565b92915050565b600080604083850312156200047a5762000479620003b1565b5b60006200048a8582860162000404565b92505060206200049d8582860162000449565b9150509250929050565b6000819050919050565b7f4e487b7100000000000000000000000000000000000000000000000000000000600052601160045260246000fd5b6000620004ed82620004a7565b9150620004fa83620004a7565b9250827fffffffffffffffffffffffffffffffffffffffffffffffffffffffffffffffff03821115620005325762000531620004b1565b5b828201905092915050565b7f4e487b7100000000000000000000000000000000000000000000000000000000600052602160045260246000fd5b7f4e487b7100000000000000000000000000000000000000000000000000000000600052602260045260246000fd5b60006002820490506001821680620005b457607f821691505b60208210811415620005cb57620005ca6200056c565b5b50919050565b608051612e12620005fb60003960008181611296015281816118090152611b830152612e126000f3fe6080604052600436106102035760003560e01c8063889ed10811610118578063ce9b070a116100a0578063e9f6f42e1161006f578063e9f6f42e1461078d578063f3290d75146107ca578063f9f92be4146107f3578063fc57d83c14610830578063fe0174bd1461085b57610203565b8063ce9b070a146106d1578063d40cf659146106fc578063dd62ed3e14610725578063e2d552181461076257610203565b8063a9059cbb116100e7578063a9059cbb146105fc578063b4590cbe14610639578063b52ffe6c14610650578063be5af9661461067b578063c61a08c1146106a657610203565b8063889ed108146105505780638da5cb5b1461057b57806395d89b41146105a65780639e1a4d19146105d157610203565b806323b872dd1161019b57806337fe22391161016a57806337fe22391461046b57806340c10f191461049657806342966c68146104bf57806370a08231146104e857806375f91ec81461052557610203565b806323b872dd146103a857806327881d6c146103e557806327e235e314610403578063313ce5671461044057610203565b8063132788cf116101d7578063132788cf146102ea57806318160ddd146103155780631cd04539146103405780632122ce201461036b57610203565b80623798441461020857806306642c661461024557806306fdde0314610282578063095ea7b3146102ad575b600080fd5b34801561021457600080fd5b5061022f600480360381019061022a91906121a8565b610886565b60405161023c91906121ee565b60405180910390f35b34801561025157600080fd5b5061026c6004803603810190610267919061222e565b61089e565b6040516102799190612276565b60405180910390f35b34801561028e57600080fd5b50610297610962565b6040516102a4919061232a565b60405180910390f35b3480156102b957600080fd5b506102d460048036038101906102cf9190612378565b6109f0565b6040516102e19190612276565b60405180910390f35b3480156102f657600080fd5b506102ff610bb2565b60405161030c91906123d9565b60405180910390f35b34801561032157600080fd5b5061032a610bd8565b60405161033791906121ee565b60405180910390f35b34801561034c57600080fd5b50610355610bde565b60405161036291906121ee565b60405180910390f35b34801561037757600080fd5b50610392600480360381019061038d91906121a8565b610be8565b60405161039f91906121ee565b60405180910390f35b3480156103b457600080fd5b506103cf60048036038101906103ca91906123f4565b610c00565b6040516103dc9190612276565b60405180910390f35b6103ed610f2e565b6040516103fa9190612276565b60405180910390f35b34801561040f57600080fd5b5061042a600480360381019061042591906121a8565b611448565b60405161043791906121ee565b60405180910390f35b34801561044c57600080fd5b50610455611460565b60405161046291906121ee565b60405180910390f35b34801561047757600080fd5b50610480611466565b60405161048d91906121ee565b60405180910390f35b3480156104a257600080fd5b506104bd60048036038101906104b89190612378565b611470565b005b3480156104cb57600080fd5b506104e660048036038101906104e19190612447565b6115ad565b005b3480156104f457600080fd5b5061050f600480360381019061050a91906121a8565b6116e9565b60405161051c91906121ee565b60405180910390f35b34801561053157600080fd5b5061053a611732565b60405161054791906121ee565b60405180910390f35b34801561055c57600080fd5b5061056561173c565b60405161057291906124eb565b60405180910390f35b34801561058757600080fd5b50610590611753565b60405161059d9190612515565b60405180910390f35b3480156105b257600080fd5b506105bb611777565b6040516105c8919061232a565b60405180910390f35b3480156105dd57600080fd5b506105e6611805565b6040516105f391906121ee565b60405180910390f35b34801561060857600080fd5b50610623600480360381019061061e9190612378565b6118b5565b6040516106309190612276565b60405180910390f35b34801561064557600080fd5b5061064e611a90565b005b34801561065c57600080fd5b50610665611b7b565b60405161067291906121ee565b60405180910390f35b34801561068757600080fd5b50610690611b81565b60405161069d919061258f565b60405180910390f35b3480156106b257600080fd5b506106bb611ba5565b6040516106c891906121ee565b60405180910390f35b3480156106dd57600080fd5b506106e6611baf565b6040516106f391906121ee565b60405180910390f35b34801561070857600080fd5b50610723600480360381019061071e91906121a8565b611bb9565b005b34801561073157600080fd5b5061074c600480360381019061074791906125aa565b611cde565b60405161075991906121ee565b60405180910390f35b34801561076e57600080fd5b50610777611da1565b60405161078491906121ee565b60405180910390f35b34801561079957600080fd5b506107b460048036038101906107af9190612616565b611da7565b6040516107c19190612276565b60405180910390f35b3480156107d657600080fd5b506107f160048036038101906107ec91906121a8565b611f72565b005b3480156107ff57600080fd5b5061081a600480360381019061081591906121a8565b612097565b6040516108279190612276565b60405180910390f35b34801561083c57600080fd5b506108456120b7565b60405161085291906121ee565b60405180910390f35b34801561086757600080fd5b506108706120c1565b60405161087d9190612515565b60405180910390f35b600a6020528060005260406000206000915090505481565b60008060009054906101000a900473ffffffffffffffffffffffffffffffffffffffff1673ffffffffffffffffffffffffffffffffffffffff163373ffffffffffffffffffffffffffffffffffffffff161461092f576040517f08c379a00000000000000000000000000000000000000000000000000000000081526004016109269061268f565b60405180910390fd5b81600960006101000a81548160ff0219169083600381111561095457610953612474565b5b021790555060019050919050565b6001805461096f906126de565b80601f016020809104026020016040519081016040528092919081815260200182805461099b906126de565b80156109e85780601f106109bd576101008083540402835291602001916109e8565b820191906000526020600020905b8154815290600101906020018083116109cb57829003601f168201915b505050505081565b600082600073ffffffffffffffffffffffffffffffffffffffff168173ffffffffffffffffffffffffffffffffffffffff161415610a2d57600080fd5b82600560003373ffffffffffffffffffffffffffffffffffffffff1673ffffffffffffffffffffffffffffffffffffffff168152602001908152602001600020541015610aaf576040517f08c379a0000000000000000000000000000000000000000000000000000000008152600401610aa69061275c565b60405180910390fd5b82600660003373ffffffffffffffffffffffffffffffffffffffff1673ffffffffffffffffffffffffffffffffffffffff16815260200190815260200160002060008673ffffffffffffffffffffffffffffffffffffffff1673ffffffffffffffffffffffffffffffffffffffff1681526020019081526020016000206000828254610b3b91906127ab565b925050819055508373ffffffffffffffffffffffffffffffffffffffff163373ffffffffffffffffffffffffffffffffffffffff167f8c5be1e5ebec7d5bd14f71427d1e84f3dd0314c0f7b2291e5b200ac8c7c3b92585604051610b9f91906121ee565b60405180910390a3600191505092915050565b600e60009054906101000a900473ffffffffffffffffffffffffffffffffffffffff1681565b60045481565b6000601354905090565b600b6020528060005260406000206000915090505481565b600082600073ffffffffffffffffffffffffffffffffffffffff168173ffffffffffffffffffffffffffffffffffffffff161415610c3d57600080fd5b82600660008773ffffffffffffffffffffffffffffffffffffffff1673ffffffffffffffffffffffffffffffffffffffff16815260200190815260200160002060003373ffffffffffffffffffffffffffffffffffffffff1673ffffffffffffffffffffffffffffffffffffffff168152602001908152602001600020541015610cfc576040517f08c379a0000000000000000000000000000000000000000000000000000000008152600401610cf39061284d565b60405180910390fd5b82600560008773ffffffffffffffffffffffffffffffffffffffff1673ffffffffffffffffffffffffffffffffffffffff168152602001908152602001600020541015610d7e576040517f08c379a0000000000000000000000000000000000000000000000000000000008152600401610d75906128b9565b60405180910390fd5b82600560008773ffffffffffffffffffffffffffffffffffffffff1673ffffffffffffffffffffffffffffffffffffffff1681526020019081526020016000206000828254610dcd91906128d9565b9250508190555082600660008773ffffffffffffffffffffffffffffffffffffffff1673ffffffffffffffffffffffffffffffffffffffff16815260200190815260200160002060003373ffffffffffffffffffffffffffffffffffffffff1673ffffffffffffffffffffffffffffffffffffffff1681526020019081526020016000206000828254610e6091906128d9565b9250508190555082600560008673ffffffffffffffffffffffffffffffffffffffff1673ffffffffffffffffffffffffffffffffffffffff1681526020019081526020016000206000828254610eb691906127ab565b925050819055508373ffffffffffffffffffffffffffffffffffffffff168573ffffffffffffffffffffffffffffffffffffffff167fddf252ad1be2c89b69c2b068fc378daa952ba7f163c4a11628f55a4df523b3ef85604051610f1a91906121ee565b60405180910390a360019150509392505050565b6000610f386120eb565b6000349050601154811015610f82576040517f08c379a0000000000000000000000000000000000000000000000000000000008152600401610f799061297f565b60405180910390fd5b601254811115610fc7576040517f08c379a0000000000000000000000000000000000000000000000000000000008152600401610fbe90612a11565b60405180910390fd5b601254600a60003373ffffffffffffffffffffffffffffffffffffffff1673ffffffffffffffffffffffffffffffffffffffff168152602001908152602001600020541061104a576040517f08c379a000000000000000000000000000000000000000000000000000000000815260040161104190612a7d565b60405180910390fd5b6014546010541015611091576040517f08c379a000000000000000000000000000000000000000000000000000000000815260040161108890612ae9565b60405180910390fd5b60006050600f54836110a39190612b38565b6110ad9190612b69565b905080600560003373ffffffffffffffffffffffffffffffffffffffff1673ffffffffffffffffffffffffffffffffffffffff16815260200190815260200160002060008282546110fe91906127ab565b9250508190555080600560008060009054906101000a900473ffffffffffffffffffffffffffffffffffffffff1673ffffffffffffffffffffffffffffffffffffffff1673ffffffffffffffffffffffffffffffffffffffff168152602001908152602001600020600082825461117591906128d9565b92505081905550806013600082825461118e91906127ab565b9250508190555081601460008282546111a791906127ab565b9250508190555081600a60003373ffffffffffffffffffffffffffffffffffffffff1673ffffffffffffffffffffffffffffffffffffffff16815260200190815260200160002060008282546111fd91906127ab565b925050819055506000600e60009054906101000a900473ffffffffffffffffffffffffffffffffffffffff1673ffffffffffffffffffffffffffffffffffffffff168360405161124c90612bf4565b60006040518083038185875af1925050503d8060008114611289576040519150601f19603f3d011682016040523d82523d6000602084013e61128e565b606091505b5050905060007f000000000000000000000000000000000000000000000000000000000000000073ffffffffffffffffffffffffffffffffffffffff166323b872dd60008054906101000a900473ffffffffffffffffffffffffffffffffffffffff1633866040518463ffffffff1660e01b815260040161131193929190612c09565b602060405180830381600087803b15801561132b57600080fd5b505af115801561133f573d6000803e3d6000fd5b505050506040513d601f19601f820116820180604052508101906113639190612c6c565b9050806113a5576040517f08c379a000000000000000000000000000000000000000000000000000000000815260040161139c90612ce5565b60405180910390fd5b816113e5576040517f08c379a00000000000000000000000000000000000000000000000000000000081526004016113dc90612ce5565b60405180910390fd5b3373ffffffffffffffffffffffffffffffffffffffff167fe68a9497b26026cfe65dde2a240cbd548cb5209e66fd442c464d9390124c97a4858560405161142d929190612d05565b60405180910390a2600194505050505061144561213b565b90565b60056020528060005260406000206000915090505481565b60035481565b6000601454905090565b33600073ffffffffffffffffffffffffffffffffffffffff168173ffffffffffffffffffffffffffffffffffffffff1614156114ab57600080fd5b60008054906101000a900473ffffffffffffffffffffffffffffffffffffffff1673ffffffffffffffffffffffffffffffffffffffff163373ffffffffffffffffffffffffffffffffffffffff1614611539576040517f08c379a00000000000000000000000000000000000000000000000000000000081526004016115309061268f565b60405180910390fd5b81600560008573ffffffffffffffffffffffffffffffffffffffff1673ffffffffffffffffffffffffffffffffffffffff168152602001908152602001600020600082825461158891906127ab565b9250508190555081600460008282546115a191906127ab565b92505081905550505050565b33600073ffffffffffffffffffffffffffffffffffffffff168173ffffffffffffffffffffffffffffffffffffffff1614156115e857600080fd5b60008054906101000a900473ffffffffffffffffffffffffffffffffffffffff1673ffffffffffffffffffffffffffffffffffffffff163373ffffffffffffffffffffffffffffffffffffffff1614611676576040517f08c379a000000000000000000000000000000000000000000000000000000000815260040161166d9061268f565b60405180910390fd5b816004600082825461168891906128d9565b9250508190555081600560003373ffffffffffffffffffffffffffffffffffffffff1673ffffffffffffffffffffffffffffffffffffffff16815260200190815260200160002060008282546116de91906128d9565b925050819055505050565b6000600560008373ffffffffffffffffffffffffffffffffffffffff1673ffffffffffffffffffffffffffffffffffffffff168152602001908152602001600020549050919050565b6000600f54905090565b6000600960009054906101000a900460ff16905090565b60008054906101000a900473ffffffffffffffffffffffffffffffffffffffff1681565b60028054611784906126de565b80601f01602080910402602001604051908101604052809291908181526020018280546117b0906126de565b80156117fd5780601f106117d2576101008083540402835291602001916117fd565b820191906000526020600020905b8154815290600101906020018083116117e057829003601f168201915b505050505081565b60007f000000000000000000000000000000000000000000000000000000000000000073ffffffffffffffffffffffffffffffffffffffff166370a08231306040518263ffffffff1660e01b81526004016118609190612515565b60206040518083038186803b15801561187857600080fd5b505afa15801561188c573d6000803e3d6000fd5b505050506040513d601f19601f820116820180604052508101906118b09190612d43565b905090565b600082600073ffffffffffffffffffffffffffffffffffffffff168173ffffffffffffffffffffffffffffffffffffffff1614156118f257600080fd5b82600560003373ffffffffffffffffffffffffffffffffffffffff1673ffffffffffffffffffffffffffffffffffffffff168152602001908152602001600020541015611974576040517f08c379a000000000000000000000000000000000000000000000000000000000815260040161196b906128b9565b60405180910390fd5b82600560008673ffffffffffffffffffffffffffffffffffffffff1673ffffffffffffffffffffffffffffffffffffffff16815260200190815260200160002060008282546119c391906127ab565b9250508190555082600560003373ffffffffffffffffffffffffffffffffffffffff1673ffffffffffffffffffffffffffffffffffffffff1681526020019081526020016000206000828254611a1991906128d9565b925050819055508373ffffffffffffffffffffffffffffffffffffffff163373ffffffffffffffffffffffffffffffffffffffff167fddf252ad1be2c89b69c2b068fc378daa952ba7f163c4a11628f55a4df523b3ef85604051611a7d91906121ee565b60405180910390a3600191505092915050565b600c54421015611aca576003600960006101000a81548160ff02191690836003811115611ac057611abf612474565b5b0217905550611b79565b600c544210158015611add5750600d5442105b15611b12576000600960006101000a81548160ff02191690836003811115611b0857611b07612474565b5b0217905550611b78565b600d544210611b4b576001600960006101000a81548160ff02191690836003811115611b4157611b40612474565b5b0217905550611b77565b6002600960006101000a81548160ff02191690836003811115611b7157611b70612474565b5b02179055505b5b5b565b600c5481565b7f000000000000000000000000000000000000000000000000000000000000000081565b6000601054905090565b6000601254905090565b80600073ffffffffffffffffffffffffffffffffffffffff168173ffffffffffffffffffffffffffffffffffffffff161415611bf457600080fd5b60008054906101000a900473ffffffffffffffffffffffffffffffffffffffff1673ffffffffffffffffffffffffffffffffffffffff163373ffffffffffffffffffffffffffffffffffffffff1614611c82576040517f08c379a0000000000000000000000000000000000000000000000000000000008152600401611c799061268f565b60405180910390fd5b6000600760008473ffffffffffffffffffffffffffffffffffffffff1673ffffffffffffffffffffffffffffffffffffffff16815260200190815260200160002060006101000a81548160ff0219169083151502179055505050565b600081600073ffffffffffffffffffffffffffffffffffffffff168173ffffffffffffffffffffffffffffffffffffffff161415611d1b57600080fd5b600660008573ffffffffffffffffffffffffffffffffffffffff1673ffffffffffffffffffffffffffffffffffffffff16815260200190815260200160002060008473ffffffffffffffffffffffffffffffffffffffff1673ffffffffffffffffffffffffffffffffffffffff1681526020019081526020016000205491505092915050565b600d5481565b60008060009054906101000a900473ffffffffffffffffffffffffffffffffffffffff1673ffffffffffffffffffffffffffffffffffffffff163373ffffffffffffffffffffffffffffffffffffffff1614611e38576040517f08c379a0000000000000000000000000000000000000000000000000000000008152600401611e2f9061268f565b60405180910390fd5b601454600b6000600e60009054906101000a900473ffffffffffffffffffffffffffffffffffffffff1673ffffffffffffffffffffffffffffffffffffffff1673ffffffffffffffffffffffffffffffffffffffff168152602001908152602001600020819055506000600b60008473ffffffffffffffffffffffffffffffffffffffff1673ffffffffffffffffffffffffffffffffffffffff1681526020019081526020016000208190555081600e60006101000a81548173ffffffffffffffffffffffffffffffffffffffff021916908373ffffffffffffffffffffffffffffffffffffffff1602179055508173ffffffffffffffffffffffffffffffffffffffff167fe18df40eeddef87940bd2ad46470782f5f2422489af5fedc571da1389fcb7d0860405160405180910390a260019050919050565b80600073ffffffffffffffffffffffffffffffffffffffff168173ffffffffffffffffffffffffffffffffffffffff161415611fad57600080fd5b60008054906101000a900473ffffffffffffffffffffffffffffffffffffffff1673ffffffffffffffffffffffffffffffffffffffff163373ffffffffffffffffffffffffffffffffffffffff161461203b576040517f08c379a00000000000000000000000000000000000000000000000000000000081526004016120329061268f565b60405180910390fd5b6001600760008473ffffffffffffffffffffffffffffffffffffffff1673ffffffffffffffffffffffffffffffffffffffff16815260200190815260200160002060006101000a81548160ff0219169083151502179055505050565b60076020528060005260406000206000915054906101000a900460ff1681565b6000601154905090565b6000600e60009054906101000a900473ffffffffffffffffffffffffffffffffffffffff16905090565b60026008541415612131576040517f08c379a000000000000000000000000000000000000000000000000000000000815260040161212890612dbc565b60405180910390fd5b6002600881905550565b6001600881905550565b600080fd5b600073ffffffffffffffffffffffffffffffffffffffff82169050919050565b60006121758261214a565b9050919050565b6121858161216a565b811461219057600080fd5b50565b6000813590506121a28161217c565b92915050565b6000602082840312156121be576121bd612145565b5b60006121cc84828501612193565b91505092915050565b6000819050919050565b6121e8816121d5565b82525050565b600060208201905061220360008301846121df565b92915050565b6004811061221657600080fd5b50565b60008135905061222881612209565b92915050565b60006020828403121561224457612243612145565b5b600061225284828501612219565b91505092915050565b60008115159050919050565b6122708161225b565b82525050565b600060208201905061228b6000830184612267565b92915050565b600081519050919050565b600082825260208201905092915050565b60005b838110156122cb5780820151818401526020810190506122b0565b838111156122da576000848401525b50505050565b6000601f19601f8301169050919050565b60006122fc82612291565b612306818561229c565b93506123168185602086016122ad565b61231f816122e0565b840191505092915050565b6000602082019050818103600083015261234481846122f1565b905092915050565b612355816121d5565b811461236057600080fd5b50565b6000813590506123728161234c565b92915050565b6000806040838503121561238f5761238e612145565b5b600061239d85828601612193565b92505060206123ae85828601612363565b9150509250929050565b60006123c38261214a565b9050919050565b6123d3816123b8565b82525050565b60006020820190506123ee60008301846123ca565b92915050565b60008060006060848603121561240d5761240c612145565b5b600061241b86828701612193565b935050602061242c86828701612193565b925050604061243d86828701612363565b9150509250925092565b60006020828403121561245d5761245c612145565b5b600061246b84828501612363565b91505092915050565b7f4e487b7100000000000000000000000000000000000000000000000000000000600052602160045260246000fd5b600481106124b4576124b3612474565b5b50565b60008190506124c5826124a3565b919050565b60006124d5826124b7565b9050919050565b6124e5816124ca565b82525050565b600060208201905061250060008301846124dc565b92915050565b61250f8161216a565b82525050565b600060208201905061252a6000830184612506565b92915050565b6000819050919050565b600061255561255061254b8461214a565b612530565b61214a565b9050919050565b60006125678261253a565b9050919050565b60006125798261255c565b9050919050565b6125898161256e565b82525050565b60006020820190506125a46000830184612580565b92915050565b600080604083850312156125c1576125c0612145565b5b60006125cf85828601612193565b92505060206125e085828601612193565b9150509250929050565b6125f3816123b8565b81146125fe57600080fd5b50565b600081359050612610816125ea565b92915050565b60006020828403121561262c5761262b612145565b5b600061263a84828501612601565b91505092915050565b7f4f6e6c792041646d696e20686173207065726d697373696f6e00000000000000600082015250565b600061267960198361229c565b915061268482612643565b602082019050919050565b600060208201905081810360008301526126a88161266c565b9050919050565b7f4e487b7100000000000000000000000000000000000000000000000000000000600052602260045260246000fd5b600060028204905060018216806126f657607f821691505b6020821081141561270a576127096126af565b5b50919050565b7f496e73756666696369656e7420546f6b656e0000000000000000000000000000600082015250565b600061274660128361229c565b915061275182612710565b602082019050919050565b6000602082019050818103600083015261277581612739565b9050919050565b7f4e487b7100000000000000000000000000000000000000000000000000000000600052601160045260246000fd5b60006127b6826121d5565b91506127c1836121d5565b9250827fffffffffffffffffffffffffffffffffffffffffffffffffffffffffffffffff038211156127f6576127f561277c565b5b828201905092915050565b7f496e73756666696369656e7420416d6f756e7400000000000000000000000000600082015250565b600061283760138361229c565b915061284282612801565b602082019050919050565b600060208201905081810360008301526128668161282a565b9050919050565b7f496e73756666696369656e7420546f6b656e20416d6f756e7400000000000000600082015250565b60006128a360198361229c565b91506128ae8261286d565b602082019050919050565b600060208201905081810360008301526128d281612896565b9050919050565b60006128e4826121d5565b91506128ef836121d5565b9250828210156129025761290161277c565b5b828203905092915050565b7f456e74657220612056616c696420416d6f756e742c204d696e696d756d20616d60008201527f6f756e7420697320302e30303120455448000000000000000000000000000000602082015250565b600061296960318361229c565b91506129748261290d565b604082019050919050565b600060208201905081810360008301526129988161295c565b9050919050565b7f456e74657220612056616c696420416d6f756e742c204d6178696d756d20616d60008201527f6f756e7420697320302e30303120455448000000000000000000000000000000602082015250565b60006129fb60318361229c565b9150612a068261299f565b604082019050919050565b60006020820190508181036000830152612a2a816129ee565b9050919050565b7f45786365656420796f75206c696d697420666f72207468652049434f00000000600082015250565b6000612a67601c8361229c565b9150612a7282612a31565b602082019050919050565b60006020820190508181036000830152612a9681612a5a565b9050919050565b7f49434f2068617320436c6f736564000000000000000000000000000000000000600082015250565b6000612ad3600e8361229c565b9150612ade82612a9d565b602082019050919050565b60006020820190508181036000830152612b0281612ac6565b9050919050565b7f4e487b7100000000000000000000000000000000000000000000000000000000600052601260045260246000fd5b6000612b43826121d5565b9150612b4e836121d5565b925082612b5e57612b5d612b09565b5b828204905092915050565b6000612b74826121d5565b9150612b7f836121d5565b9250817fffffffffffffffffffffffffffffffffffffffffffffffffffffffffffffffff0483118215151615612bb857612bb761277c565b5b828202905092915050565b600081905092915050565b50565b6000612bde600083612bc3565b9150612be982612bce565b600082019050919050565b6000612bff82612bd1565b9150819050919050565b6000606082019050612c1e6000830186612506565b612c2b6020830185612506565b612c3860408301846121df565b949350505050565b612c498161225b565b8114612c5457600080fd5b50565b600081519050612c6681612c40565b92915050565b600060208284031215612c8257612c81612145565b5b6000612c9084828501612c57565b91505092915050565b7f4661696c65640000000000000000000000000000000000000000000000000000600082015250565b6000612ccf60068361229c565b9150612cda82612c99565b602082019050919050565b60006020820190508181036000830152612cfe81612cc2565b9050919050565b6000604082019050612d1a60008301856121df565b612d2760208301846121df565b9392505050565b600081519050612d3d8161234c565b92915050565b600060208284031215612d5957612d58612145565b5b6000612d6784828501612d2e565b91505092915050565b7f5265656e7472616e637947756172643a207265656e7472616e742063616c6c00600082015250565b6000612da6601f8361229c565b9150612db182612d70565b602082019050919050565b60006020820190508181036000830152612dd581612d99565b905091905056fea2646970667358221220d0301c119871befb9b23696a281e937229c047ae51f87a52ce1200cfc46d198164736f6c63430008090033",
  "linkReferences": {},
  "deployedLinkReferences": {}
}