{
  "_format": "hh-sol-artifact-1",
  "contractName": "SageExchange",
  "sourceName": "contracts/SageExchange.sol",
  "abi": [
    {
      "inputs": [
        {
          "internalType": "address payable",
          "name": "_admin",
          "type": "address"
        },
        {
          "internalType": "address",
          "name": "_stakingaddress",
          "type": "address"
        }
      ],
      "stateMutability": "nonpayable",
      "type": "constructor"
    },
    {
      "anonymous": false,
      "inputs": [
        {
          "indexed": true,
          "internalType": "address",
          "name": "owner",
          "type": "address"
        },
        {
          "indexed": true,
          "internalType": "address",
          "name": "spender",
          "type": "address"
        },
        {
          "indexed": false,
          "internalType": "uint256",
          "name": "value",
          "type": "uint256"
        }
      ],
      "name": "Approval",
      "type": "event"
    },
    {
      "anonymous": false,
      "inputs": [
        {
          "indexed": false,
          "internalType": "uint256",
          "name": "amount",
          "type": "uint256"
        },
        {
          "indexed": false,
          "internalType": "uint256",
          "name": "tokens",
          "type": "uint256"
        },
        {
          "indexed": true,
          "internalType": "address",
          "name": "buyer",
          "type": "address"
        }
      ],
      "name": "Invest",
      "type": "event"
    },
    {
      "anonymous": false,
      "inputs": [
        {
          "indexed": true,
          "internalType": "address",
          "name": "from",
          "type": "address"
        },
        {
          "indexed": true,
          "internalType": "address",
          "name": "to",
          "type": "address"
        },
        {
          "indexed": false,
          "internalType": "uint256",
          "name": "value",
          "type": "uint256"
        }
      ],
      "name": "Transfer",
      "type": "event"
    },
    {
      "anonymous": false,
      "inputs": [
        {
          "indexed": true,
          "internalType": "address",
          "name": "adminaddress",
          "type": "address"
        }
      ],
      "name": "UpdatedadminAdress",
      "type": "event"
    },
    {
      "inputs": [],
      "name": "ICOInvest",
      "outputs": [
        {
          "internalType": "bool",
          "name": "",
          "type": "bool"
        }
      ],
      "stateMutability": "payable",
      "type": "function"
    },
    {
      "inputs": [],
      "name": "ICOStatus",
      "outputs": [],
      "stateMutability": "nonpayable",
      "type": "function"
    },
    {
      "inputs": [],
      "name": "StakingToken",
      "outputs": [
        {
          "internalType": "contract IERC20",
          "name": "",
          "type": "address"
        }
      ],
      "stateMutability": "view",
      "type": "function"
    },
    {
      "inputs": [
        {
          "internalType": "address",
          "name": "_owner",
          "type": "address"
        },
        {
          "internalType": "address",
          "name": "spender",
          "type": "address"
        }
      ],
      "name": "allowance",
      "outputs": [
        {
          "internalType": "uint256",
          "name": "",
          "type": "uint256"
        }
      ],
      "stateMutability": "view",
      "type": "function"
    },
    {
      "inputs": [
        {
          "internalType": "address",
          "name": "spender",
          "type": "address"
        },
        {
          "internalType": "uint256",
          "name": "amount",
          "type": "uint256"
        }
      ],
      "name": "approve",
      "outputs": [
        {
          "internalType": "bool",
          "name": "",
          "type": "bool"
        }
      ],
      "stateMutability": "nonpayable",
      "type": "function"
    },
    {
      "inputs": [
        {
          "internalType": "address",
          "name": "tokenAddress",
          "type": "address"
        }
      ],
      "name": "balanceOf",
      "outputs": [
        {
          "internalType": "uint256",
          "name": "",
          "type": "uint256"
        }
      ],
      "stateMutability": "view",
      "type": "function"
    },
    {
      "inputs": [
        {
          "internalType": "address",
          "name": "",
          "type": "address"
        }
      ],
      "name": "balances",
      "outputs": [
        {
          "internalType": "uint256",
          "name": "",
          "type": "uint256"
        }
      ],
      "stateMutability": "view",
      "type": "function"
    },
    {
      "inputs": [
        {
          "internalType": "uint256",
          "name": "amount",
          "type": "uint256"
        }
      ],
      "name": "burn",
      "outputs": [],
      "stateMutability": "nonpayable",
      "type": "function"
    },
    {
      "inputs": [
        {
          "internalType": "address payable",
          "name": "_adminaddress",
          "type": "address"
        }
      ],
      "name": "changeAdminAdress",
      "outputs": [
        {
          "internalType": "bool",
          "name": "",
          "type": "bool"
        }
      ],
      "stateMutability": "nonpayable",
      "type": "function"
    },
    {
      "inputs": [
        {
          "internalType": "enum SageExchange.ICOState",
          "name": "_status",
          "type": "uint8"
        }
      ],
      "name": "changeICOState",
      "outputs": [
        {
          "internalType": "bool",
          "name": "",
          "type": "bool"
        }
      ],
      "stateMutability": "nonpayable",
      "type": "function"
    },
    {
      "inputs": [],
      "name": "decimals",
      "outputs": [
        {
          "internalType": "uint256",
          "name": "",
          "type": "uint256"
        }
      ],
      "stateMutability": "view",
      "type": "function"
    },
    {
      "inputs": [],
      "name": "getAmountDeposit",
      "outputs": [
        {
          "internalType": "uint256",
          "name": "",
          "type": "uint256"
        }
      ],
      "stateMutability": "view",
      "type": "function"
    },
    {
      "inputs": [],
      "name": "getTokenAmount",
      "outputs": [
        {
          "internalType": "uint256",
          "name": "",
          "type": "uint256"
        }
      ],
      "stateMutability": "view",
      "type": "function"
    },
    {
      "inputs": [],
      "name": "getTokenPurchase",
      "outputs": [
        {
          "internalType": "uint256",
          "name": "",
          "type": "uint256"
        }
      ],
      "stateMutability": "view",
      "type": "function"
    },
    {
      "inputs": [],
      "name": "gethardcap",
      "outputs": [
        {
          "internalType": "uint256",
          "name": "",
          "type": "uint256"
        }
      ],
      "stateMutability": "view",
      "type": "function"
    },
    {
      "inputs": [],
      "name": "geticostate",
      "outputs": [
        {
          "internalType": "enum SageExchange.ICOState",
          "name": "",
          "type": "uint8"
        }
      ],
      "stateMutability": "view",
      "type": "function"
    },
    {
      "inputs": [],
      "name": "getmaximumAmount",
      "outputs": [
        {
          "internalType": "uint256",
          "name": "",
          "type": "uint256"
        }
      ],
      "stateMutability": "view",
      "type": "function"
    },
    {
      "inputs": [],
      "name": "getminimumAmount",
      "outputs": [
        {
          "internalType": "uint256",
          "name": "",
          "type": "uint256"
        }
      ],
      "stateMutability": "view",
      "type": "function"
    },
    {
      "inputs": [],
      "name": "getowner",
      "outputs": [
        {
          "internalType": "address",
          "name": "",
          "type": "address"
        }
      ],
      "stateMutability": "view",
      "type": "function"
    },
    {
      "inputs": [
        {
          "internalType": "address",
          "name": "to",
          "type": "address"
        },
        {
          "internalType": "uint256",
          "name": "amount",
          "type": "uint256"
        }
      ],
      "name": "mint",
      "outputs": [],
      "stateMutability": "nonpayable",
      "type": "function"
    },
    {
      "inputs": [],
      "name": "name",
      "outputs": [
        {
          "internalType": "string",
          "name": "",
          "type": "string"
        }
      ],
      "stateMutability": "view",
      "type": "function"
    },
    {
      "inputs": [],
      "name": "owner",
      "outputs": [
        {
          "internalType": "address",
          "name": "",
          "type": "address"
        }
      ],
      "stateMutability": "view",
      "type": "function"
    },
    {
      "inputs": [],
      "name": "s_admin",
      "outputs": [
        {
          "internalType": "address payable",
          "name": "",
          "type": "address"
        }
      ],
      "stateMutability": "view",
      "type": "function"
    },
    {
      "inputs": [
        {
          "internalType": "address",
          "name": "",
          "type": "address"
        }
      ],
      "name": "s_adminaddress",
      "outputs": [
        {
          "internalType": "uint256",
          "name": "",
          "type": "uint256"
        }
      ],
      "stateMutability": "view",
      "type": "function"
    },
    {
      "inputs": [],
      "name": "s_timeend",
      "outputs": [
        {
          "internalType": "uint256",
          "name": "",
          "type": "uint256"
        }
      ],
      "stateMutability": "view",
      "type": "function"
    },
    {
      "inputs": [],
      "name": "s_timestart",
      "outputs": [
        {
          "internalType": "uint256",
          "name": "",
          "type": "uint256"
        }
      ],
      "stateMutability": "view",
      "type": "function"
    },
    {
      "inputs": [
        {
          "internalType": "address",
          "name": "",
          "type": "address"
        }
      ],
      "name": "s_userBalances",
      "outputs": [
        {
          "internalType": "uint256",
          "name": "",
          "type": "uint256"
        }
      ],
      "stateMutability": "view",
      "type": "function"
    },
    {
      "inputs": [],
      "name": "symbol",
      "outputs": [
        {
          "internalType": "string",
          "name": "",
          "type": "string"
        }
      ],
      "stateMutability": "view",
      "type": "function"
    },
    {
      "inputs": [],
      "name": "tokenBalance",
      "outputs": [
        {
          "internalType": "uint256",
          "name": "",
          "type": "uint256"
        }
      ],
      "stateMutability": "view",
      "type": "function"
    },
    {
      "inputs": [],
      "name": "totalSupply",
      "outputs": [
        {
          "internalType": "uint256",
          "name": "",
          "type": "uint256"
        }
      ],
      "stateMutability": "view",
      "type": "function"
    },
    {
      "inputs": [
        {
          "internalType": "address",
          "name": "to",
          "type": "address"
        },
        {
          "internalType": "uint256",
          "name": "tokens",
          "type": "uint256"
        }
      ],
      "name": "transfer",
      "outputs": [
        {
          "internalType": "bool",
          "name": "",
          "type": "bool"
        }
      ],
      "stateMutability": "nonpayable",
      "type": "function"
    },
    {
      "inputs": [
        {
          "internalType": "address",
          "name": "from",
          "type": "address"
        },
        {
          "internalType": "address",
          "name": "to",
          "type": "address"
        },
        {
          "internalType": "uint256",
          "name": "amount",
          "type": "uint256"
        }
      ],
      "name": "transferFrom",
      "outputs": [
        {
          "internalType": "bool",
          "name": "",
          "type": "bool"
        }
      ],
      "stateMutability": "nonpayable",
      "type": "function"
    }
  ],
  "bytecode": "0x60a06040523480156200001157600080fd5b50604051620030d7380380620030d7833981810160405281019062000037919062000460565b336000806101000a81548173ffffffffffffffffffffffffffffffffffffffff021916908373ffffffffffffffffffffffffffffffffffffffff1602179055506040518060400160405280600481526020017f534147450000000000000000000000000000000000000000000000000000000081525060019080519060200190620000c492919062000301565b506040518060400160405280600481526020017f4e53414700000000000000000000000000000000000000000000000000000000815250600290805190602001906200011292919062000301565b50600a6003819055506a084595161401484a000000600481905550600454600560008060009054906101000a900473ffffffffffffffffffffffffffffffffffffffff1673ffffffffffffffffffffffffffffffffffffffff1673ffffffffffffffffffffffffffffffffffffffff1681526020019081526020016000208190555060016007819055508073ffffffffffffffffffffffffffffffffffffffff1660808173ffffffffffffffffffffffffffffffffffffffff168152505081600d60006101000a81548173ffffffffffffffffffffffffffffffffffffffff021916908373ffffffffffffffffffffffffffffffffffffffff16021790555066038d7ea4c68000600e81905550674563918244f40000600f8190555066038d7ea4c68000601081905550670de0b6b3a7640000601181905550603c426200025a9190620004e0565b600b81905550610e1042620002709190620004e0565b600c819055506003600860006101000a81548160ff021916908360038111156200029f576200029e6200053d565b5b0217905550600060138190555060006012819055506000600a60008473ffffffffffffffffffffffffffffffffffffffff1673ffffffffffffffffffffffffffffffffffffffff168152602001908152602001600020819055505050620005d1565b8280546200030f906200059b565b90600052602060002090601f0160209004810192826200033357600085556200037f565b82601f106200034e57805160ff19168380011785556200037f565b828001600101855582156200037f579182015b828111156200037e57825182559160200191906001019062000361565b5b5090506200038e919062000392565b5090565b5b80821115620003ad57600081600090555060010162000393565b5090565b600080fd5b600073ffffffffffffffffffffffffffffffffffffffff82169050919050565b6000620003e382620003b6565b9050919050565b620003f581620003d6565b81146200040157600080fd5b50565b6000815190506200041581620003ea565b92915050565b60006200042882620003b6565b9050919050565b6200043a816200041b565b81146200044657600080fd5b50565b6000815190506200045a816200042f565b92915050565b600080604083850312156200047a5762000479620003b1565b5b60006200048a8582860162000404565b92505060206200049d8582860162000449565b9150509250929050565b6000819050919050565b7f4e487b7100000000000000000000000000000000000000000000000000000000600052601160045260246000fd5b6000620004ed82620004a7565b9150620004fa83620004a7565b9250827fffffffffffffffffffffffffffffffffffffffffffffffffffffffffffffffff03821115620005325762000531620004b1565b5b828201905092915050565b7f4e487b7100000000000000000000000000000000000000000000000000000000600052602160045260246000fd5b7f4e487b7100000000000000000000000000000000000000000000000000000000600052602260045260246000fd5b60006002820490506001821680620005b457607f821691505b60208210811415620005cb57620005ca6200056c565b5b50919050565b608051612adc620005fb6000396000818161116e015281816117490152611a870152612adc6000f3fe6080604052600436106101e25760003560e01c806375f91ec811610102578063be5af96611610095578063e2d5521811610064578063e2d5521814610718578063e9f6f42e14610743578063fc57d83c14610780578063fe0174bd146107ab576101e2565b8063be5af9661461065a578063c61a08c114610685578063ce9b070a146106b0578063dd62ed3e146106db576101e2565b80639e1a4d19116100d15780639e1a4d19146105b0578063a9059cbb146105db578063b4590cbe14610618578063b52ffe6c1461062f576101e2565b806375f91ec814610504578063889ed1081461052f5780638da5cb5b1461055a57806395d89b4114610585576101e2565b806323b872dd1161017a57806337fe22391161014957806337fe22391461044a57806340c10f191461047557806342966c681461049e57806370a08231146104c7576101e2565b806323b872dd1461038757806327881d6c146103c457806327e235e3146103e2578063313ce5671461041f576101e2565b8063132788cf116101b6578063132788cf146102c957806318160ddd146102f45780631cd045391461031f5780632122ce201461034a576101e2565b8062379844146101e757806306642c661461022457806306fdde0314610261578063095ea7b31461028c575b600080fd5b3480156101f357600080fd5b5061020e60048036038101906102099190611e06565b6107d6565b60405161021b9190611e4c565b60405180910390f35b34801561023057600080fd5b5061024b60048036038101906102469190611e8c565b6107ee565b6040516102589190611ed4565b60405180910390f35b34801561026d57600080fd5b506102766108b2565b6040516102839190611f88565b60405180910390f35b34801561029857600080fd5b506102b360048036038101906102ae9190611fd6565b610940565b6040516102c09190611ed4565b60405180910390f35b3480156102d557600080fd5b506102de610ac6565b6040516102eb9190612037565b60405180910390f35b34801561030057600080fd5b50610309610aec565b6040516103169190611e4c565b60405180910390f35b34801561032b57600080fd5b50610334610af2565b6040516103419190611e4c565b60405180910390f35b34801561035657600080fd5b50610371600480360381019061036c9190611e06565b610afc565b60405161037e9190611e4c565b60405180910390f35b34801561039357600080fd5b506103ae60048036038101906103a99190612052565b610b14565b6040516103bb9190611ed4565b60405180910390f35b6103cc610e06565b6040516103d99190611ed4565b60405180910390f35b3480156103ee57600080fd5b5061040960048036038101906104049190611e06565b611320565b6040516104169190611e4c565b60405180910390f35b34801561042b57600080fd5b50610434611338565b6040516104419190611e4c565b60405180910390f35b34801561045657600080fd5b5061045f61133e565b60405161046c9190611e4c565b60405180910390f35b34801561048157600080fd5b5061049c60048036038101906104979190611fd6565b611348565b005b3480156104aa57600080fd5b506104c560048036038101906104c091906120a5565b6114b9565b005b3480156104d357600080fd5b506104ee60048036038101906104e99190611e06565b611629565b6040516104fb9190611e4c565b60405180910390f35b34801561051057600080fd5b50610519611672565b6040516105269190611e4c565b60405180910390f35b34801561053b57600080fd5b5061054461167c565b6040516105519190612149565b60405180910390f35b34801561056657600080fd5b5061056f611693565b60405161057c9190612173565b60405180910390f35b34801561059157600080fd5b5061059a6116b7565b6040516105a79190611f88565b60405180910390f35b3480156105bc57600080fd5b506105c5611745565b6040516105d29190611e4c565b60405180910390f35b3480156105e757600080fd5b5061060260048036038101906105fd9190611fd6565b6117f5565b60405161060f9190611ed4565b60405180910390f35b34801561062457600080fd5b5061062d611994565b005b34801561063b57600080fd5b50610644611a7f565b6040516106519190611e4c565b60405180910390f35b34801561066657600080fd5b5061066f611a85565b60405161067c91906121ed565b60405180910390f35b34801561069157600080fd5b5061069a611aa9565b6040516106a79190611e4c565b60405180910390f35b3480156106bc57600080fd5b506106c5611ab3565b6040516106d29190611e4c565b60405180910390f35b3480156106e757600080fd5b5061070260048036038101906106fd9190612208565b611abd565b60405161070f9190611e4c565b60405180910390f35b34801561072457600080fd5b5061072d611b44565b60405161073a9190611e4c565b60405180910390f35b34801561074f57600080fd5b5061076a60048036038101906107659190612274565b611b4a565b6040516107779190611ed4565b60405180910390f35b34801561078c57600080fd5b50610795611d15565b6040516107a29190611e4c565b60405180910390f35b3480156107b757600080fd5b506107c0611d1f565b6040516107cd9190612173565b60405180910390f35b60096020528060005260406000206000915090505481565b60008060009054906101000a900473ffffffffffffffffffffffffffffffffffffffff1673ffffffffffffffffffffffffffffffffffffffff163373ffffffffffffffffffffffffffffffffffffffff161461087f576040517f08c379a0000000000000000000000000000000000000000000000000000000008152600401610876906122ed565b60405180910390fd5b81600860006101000a81548160ff021916908360038111156108a4576108a36120d2565b5b021790555060019050919050565b600180546108bf9061233c565b80601f01602080910402602001604051908101604052809291908181526020018280546108eb9061233c565b80156109385780601f1061090d57610100808354040283529160200191610938565b820191906000526020600020905b81548152906001019060200180831161091b57829003601f168201915b505050505081565b600081600560003373ffffffffffffffffffffffffffffffffffffffff1673ffffffffffffffffffffffffffffffffffffffff1681526020019081526020016000205410156109c4576040517f08c379a00000000000000000000000000000000000000000000000000000000081526004016109bb906123ba565b60405180910390fd5b81600660003373ffffffffffffffffffffffffffffffffffffffff1673ffffffffffffffffffffffffffffffffffffffff16815260200190815260200160002060008573ffffffffffffffffffffffffffffffffffffffff1673ffffffffffffffffffffffffffffffffffffffff1681526020019081526020016000206000828254610a509190612409565b925050819055508273ffffffffffffffffffffffffffffffffffffffff163373ffffffffffffffffffffffffffffffffffffffff167f8c5be1e5ebec7d5bd14f71427d1e84f3dd0314c0f7b2291e5b200ac8c7c3b92584604051610ab49190611e4c565b60405180910390a36001905092915050565b600d60009054906101000a900473ffffffffffffffffffffffffffffffffffffffff1681565b60045481565b6000601254905090565b600a6020528060005260406000206000915090505481565b600081600660008673ffffffffffffffffffffffffffffffffffffffff1673ffffffffffffffffffffffffffffffffffffffff16815260200190815260200160002060003373ffffffffffffffffffffffffffffffffffffffff1673ffffffffffffffffffffffffffffffffffffffff168152602001908152602001600020541015610bd5576040517f08c379a0000000000000000000000000000000000000000000000000000000008152600401610bcc906124ab565b60405180910390fd5b81600560008673ffffffffffffffffffffffffffffffffffffffff1673ffffffffffffffffffffffffffffffffffffffff168152602001908152602001600020541015610c57576040517f08c379a0000000000000000000000000000000000000000000000000000000008152600401610c4e90612517565b60405180910390fd5b81600560008673ffffffffffffffffffffffffffffffffffffffff1673ffffffffffffffffffffffffffffffffffffffff1681526020019081526020016000206000828254610ca69190612537565b9250508190555081600660008673ffffffffffffffffffffffffffffffffffffffff1673ffffffffffffffffffffffffffffffffffffffff16815260200190815260200160002060003373ffffffffffffffffffffffffffffffffffffffff1673ffffffffffffffffffffffffffffffffffffffff1681526020019081526020016000206000828254610d399190612537565b9250508190555081600560008573ffffffffffffffffffffffffffffffffffffffff1673ffffffffffffffffffffffffffffffffffffffff1681526020019081526020016000206000828254610d8f9190612409565b925050819055508273ffffffffffffffffffffffffffffffffffffffff168473ffffffffffffffffffffffffffffffffffffffff167fddf252ad1be2c89b69c2b068fc378daa952ba7f163c4a11628f55a4df523b3ef84604051610df39190611e4c565b60405180910390a3600190509392505050565b6000610e10611d49565b6000349050601054811015610e5a576040517f08c379a0000000000000000000000000000000000000000000000000000000008152600401610e51906125dd565b60405180910390fd5b601154811115610e9f576040517f08c379a0000000000000000000000000000000000000000000000000000000008152600401610e969061266f565b60405180910390fd5b601154600960003373ffffffffffffffffffffffffffffffffffffffff1673ffffffffffffffffffffffffffffffffffffffff1681526020019081526020016000205410610f22576040517f08c379a0000000000000000000000000000000000000000000000000000000008152600401610f19906126db565b60405180910390fd5b601354600f541015610f69576040517f08c379a0000000000000000000000000000000000000000000000000000000008152600401610f6090612747565b60405180910390fd5b60006050600e5483610f7b9190612796565b610f8591906127c7565b905080600560003373ffffffffffffffffffffffffffffffffffffffff1673ffffffffffffffffffffffffffffffffffffffff1681526020019081526020016000206000828254610fd69190612409565b9250508190555080600560008060009054906101000a900473ffffffffffffffffffffffffffffffffffffffff1673ffffffffffffffffffffffffffffffffffffffff1673ffffffffffffffffffffffffffffffffffffffff168152602001908152602001600020600082825461104d9190612537565b9250508190555080601260008282546110669190612409565b92505081905550816013600082825461107f9190612409565b9250508190555081600960003373ffffffffffffffffffffffffffffffffffffffff1673ffffffffffffffffffffffffffffffffffffffff16815260200190815260200160002060008282546110d59190612409565b925050819055506000600d60009054906101000a900473ffffffffffffffffffffffffffffffffffffffff1673ffffffffffffffffffffffffffffffffffffffff168360405161112490612852565b60006040518083038185875af1925050503d8060008114611161576040519150601f19603f3d011682016040523d82523d6000602084013e611166565b606091505b5050905060007f000000000000000000000000000000000000000000000000000000000000000073ffffffffffffffffffffffffffffffffffffffff166323b872dd60008054906101000a900473ffffffffffffffffffffffffffffffffffffffff1633866040518463ffffffff1660e01b81526004016111e993929190612867565b602060405180830381600087803b15801561120357600080fd5b505af1158015611217573d6000803e3d6000fd5b505050506040513d601f19601f8201168201806040525081019061123b91906128ca565b90508061127d576040517f08c379a000000000000000000000000000000000000000000000000000000000815260040161127490612943565b60405180910390fd5b816112bd576040517f08c379a00000000000000000000000000000000000000000000000000000000081526004016112b490612943565b60405180910390fd5b3373ffffffffffffffffffffffffffffffffffffffff167fe68a9497b26026cfe65dde2a240cbd548cb5209e66fd442c464d9390124c97a48585604051611305929190612963565b60405180910390a2600194505050505061131d611d99565b90565b60056020528060005260406000206000915090505481565b60035481565b6000601354905090565b60008054906101000a900473ffffffffffffffffffffffffffffffffffffffff1673ffffffffffffffffffffffffffffffffffffffff163373ffffffffffffffffffffffffffffffffffffffff16146113d6576040517f08c379a00000000000000000000000000000000000000000000000000000000081526004016113cd906122ed565b60405180910390fd5b600073ffffffffffffffffffffffffffffffffffffffff168273ffffffffffffffffffffffffffffffffffffffff161415611446576040517f08c379a000000000000000000000000000000000000000000000000000000000815260040161143d906129d8565b60405180910390fd5b80600560008473ffffffffffffffffffffffffffffffffffffffff1673ffffffffffffffffffffffffffffffffffffffff16815260200190815260200160002060008282546114959190612409565b9250508190555080600460008282546114ae9190612409565b925050819055505050565b60008054906101000a900473ffffffffffffffffffffffffffffffffffffffff1673ffffffffffffffffffffffffffffffffffffffff163373ffffffffffffffffffffffffffffffffffffffff1614611547576040517f08c379a000000000000000000000000000000000000000000000000000000000815260040161153e906122ed565b60405180910390fd5b600073ffffffffffffffffffffffffffffffffffffffff163373ffffffffffffffffffffffffffffffffffffffff1614156115b7576040517f08c379a00000000000000000000000000000000000000000000000000000000081526004016115ae906129d8565b60405180910390fd5b80600460008282546115c99190612537565b9250508190555080600560003373ffffffffffffffffffffffffffffffffffffffff1673ffffffffffffffffffffffffffffffffffffffff168152602001908152602001600020600082825461161f9190612537565b9250508190555050565b6000600560008373ffffffffffffffffffffffffffffffffffffffff1673ffffffffffffffffffffffffffffffffffffffff168152602001908152602001600020549050919050565b6000600e54905090565b6000600860009054906101000a900460ff16905090565b60008054906101000a900473ffffffffffffffffffffffffffffffffffffffff1681565b600280546116c49061233c565b80601f01602080910402602001604051908101604052809291908181526020018280546116f09061233c565b801561173d5780601f106117125761010080835404028352916020019161173d565b820191906000526020600020905b81548152906001019060200180831161172057829003601f168201915b505050505081565b60007f000000000000000000000000000000000000000000000000000000000000000073ffffffffffffffffffffffffffffffffffffffff166370a08231306040518263ffffffff1660e01b81526004016117a09190612173565b60206040518083038186803b1580156117b857600080fd5b505afa1580156117cc573d6000803e3d6000fd5b505050506040513d601f19601f820116820180604052508101906117f09190612a0d565b905090565b600081600560003373ffffffffffffffffffffffffffffffffffffffff1673ffffffffffffffffffffffffffffffffffffffff168152602001908152602001600020541015611879576040517f08c379a000000000000000000000000000000000000000000000000000000000815260040161187090612517565b60405180910390fd5b81600560008573ffffffffffffffffffffffffffffffffffffffff1673ffffffffffffffffffffffffffffffffffffffff16815260200190815260200160002060008282546118c89190612409565b9250508190555081600560003373ffffffffffffffffffffffffffffffffffffffff1673ffffffffffffffffffffffffffffffffffffffff168152602001908152602001600020600082825461191e9190612537565b925050819055508273ffffffffffffffffffffffffffffffffffffffff163373ffffffffffffffffffffffffffffffffffffffff167fddf252ad1be2c89b69c2b068fc378daa952ba7f163c4a11628f55a4df523b3ef846040516119829190611e4c565b60405180910390a36001905092915050565b600b544210156119ce576003600860006101000a81548160ff021916908360038111156119c4576119c36120d2565b5b0217905550611a7d565b600b5442101580156119e15750600c5442105b15611a16576000600860006101000a81548160ff02191690836003811115611a0c57611a0b6120d2565b5b0217905550611a7c565b600c544210611a4f576001600860006101000a81548160ff02191690836003811115611a4557611a446120d2565b5b0217905550611a7b565b6002600860006101000a81548160ff02191690836003811115611a7557611a746120d2565b5b02179055505b5b5b565b600b5481565b7f000000000000000000000000000000000000000000000000000000000000000081565b6000600f54905090565b6000601154905090565b6000600660008473ffffffffffffffffffffffffffffffffffffffff1673ffffffffffffffffffffffffffffffffffffffff16815260200190815260200160002060008373ffffffffffffffffffffffffffffffffffffffff1673ffffffffffffffffffffffffffffffffffffffff16815260200190815260200160002054905092915050565b600c5481565b60008060009054906101000a900473ffffffffffffffffffffffffffffffffffffffff1673ffffffffffffffffffffffffffffffffffffffff163373ffffffffffffffffffffffffffffffffffffffff1614611bdb576040517f08c379a0000000000000000000000000000000000000000000000000000000008152600401611bd2906122ed565b60405180910390fd5b601354600a6000600d60009054906101000a900473ffffffffffffffffffffffffffffffffffffffff1673ffffffffffffffffffffffffffffffffffffffff1673ffffffffffffffffffffffffffffffffffffffff168152602001908152602001600020819055506000600a60008473ffffffffffffffffffffffffffffffffffffffff1673ffffffffffffffffffffffffffffffffffffffff1681526020019081526020016000208190555081600d60006101000a81548173ffffffffffffffffffffffffffffffffffffffff021916908373ffffffffffffffffffffffffffffffffffffffff1602179055508173ffffffffffffffffffffffffffffffffffffffff167fe18df40eeddef87940bd2ad46470782f5f2422489af5fedc571da1389fcb7d0860405160405180910390a260019050919050565b6000601054905090565b6000600d60009054906101000a900473ffffffffffffffffffffffffffffffffffffffff16905090565b60026007541415611d8f576040517f08c379a0000000000000000000000000000000000000000000000000000000008152600401611d8690612a86565b60405180910390fd5b6002600781905550565b6001600781905550565b600080fd5b600073ffffffffffffffffffffffffffffffffffffffff82169050919050565b6000611dd382611da8565b9050919050565b611de381611dc8565b8114611dee57600080fd5b50565b600081359050611e0081611dda565b92915050565b600060208284031215611e1c57611e1b611da3565b5b6000611e2a84828501611df1565b91505092915050565b6000819050919050565b611e4681611e33565b82525050565b6000602082019050611e616000830184611e3d565b92915050565b60048110611e7457600080fd5b50565b600081359050611e8681611e67565b92915050565b600060208284031215611ea257611ea1611da3565b5b6000611eb084828501611e77565b91505092915050565b60008115159050919050565b611ece81611eb9565b82525050565b6000602082019050611ee96000830184611ec5565b92915050565b600081519050919050565b600082825260208201905092915050565b60005b83811015611f29578082015181840152602081019050611f0e565b83811115611f38576000848401525b50505050565b6000601f19601f8301169050919050565b6000611f5a82611eef565b611f648185611efa565b9350611f74818560208601611f0b565b611f7d81611f3e565b840191505092915050565b60006020820190508181036000830152611fa28184611f4f565b905092915050565b611fb381611e33565b8114611fbe57600080fd5b50565b600081359050611fd081611faa565b92915050565b60008060408385031215611fed57611fec611da3565b5b6000611ffb85828601611df1565b925050602061200c85828601611fc1565b9150509250929050565b600061202182611da8565b9050919050565b61203181612016565b82525050565b600060208201905061204c6000830184612028565b92915050565b60008060006060848603121561206b5761206a611da3565b5b600061207986828701611df1565b935050602061208a86828701611df1565b925050604061209b86828701611fc1565b9150509250925092565b6000602082840312156120bb576120ba611da3565b5b60006120c984828501611fc1565b91505092915050565b7f4e487b7100000000000000000000000000000000000000000000000000000000600052602160045260246000fd5b60048110612112576121116120d2565b5b50565b600081905061212382612101565b919050565b600061213382612115565b9050919050565b61214381612128565b82525050565b600060208201905061215e600083018461213a565b92915050565b61216d81611dc8565b82525050565b60006020820190506121886000830184612164565b92915050565b6000819050919050565b60006121b36121ae6121a984611da8565b61218e565b611da8565b9050919050565b60006121c582612198565b9050919050565b60006121d7826121ba565b9050919050565b6121e7816121cc565b82525050565b600060208201905061220260008301846121de565b92915050565b6000806040838503121561221f5761221e611da3565b5b600061222d85828601611df1565b925050602061223e85828601611df1565b9150509250929050565b61225181612016565b811461225c57600080fd5b50565b60008135905061226e81612248565b92915050565b60006020828403121561228a57612289611da3565b5b60006122988482850161225f565b91505092915050565b7f4f6e6c792041646d696e20686173207065726d697373696f6e00000000000000600082015250565b60006122d7601983611efa565b91506122e2826122a1565b602082019050919050565b60006020820190508181036000830152612306816122ca565b9050919050565b7f4e487b7100000000000000000000000000000000000000000000000000000000600052602260045260246000fd5b6000600282049050600182168061235457607f821691505b602082108114156123685761236761230d565b5b50919050565b7f496e73756666696369656e7420546f6b656e0000000000000000000000000000600082015250565b60006123a4601283611efa565b91506123af8261236e565b602082019050919050565b600060208201905081810360008301526123d381612397565b9050919050565b7f4e487b7100000000000000000000000000000000000000000000000000000000600052601160045260246000fd5b600061241482611e33565b915061241f83611e33565b9250827fffffffffffffffffffffffffffffffffffffffffffffffffffffffffffffffff03821115612454576124536123da565b5b828201905092915050565b7f496e73756666696369656e7420416d6f756e7400000000000000000000000000600082015250565b6000612495601383611efa565b91506124a08261245f565b602082019050919050565b600060208201905081810360008301526124c481612488565b9050919050565b7f496e73756666696369656e7420546f6b656e20416d6f756e7400000000000000600082015250565b6000612501601983611efa565b915061250c826124cb565b602082019050919050565b60006020820190508181036000830152612530816124f4565b9050919050565b600061254282611e33565b915061254d83611e33565b9250828210156125605761255f6123da565b5b828203905092915050565b7f456e74657220612056616c696420416d6f756e742c204d696e696d756d20616d60008201527f6f756e7420697320302e30303120455448000000000000000000000000000000602082015250565b60006125c7603183611efa565b91506125d28261256b565b604082019050919050565b600060208201905081810360008301526125f6816125ba565b9050919050565b7f456e74657220612056616c696420416d6f756e742c204d6178696d756d20616d60008201527f6f756e7420697320302e30303120455448000000000000000000000000000000602082015250565b6000612659603183611efa565b9150612664826125fd565b604082019050919050565b600060208201905081810360008301526126888161264c565b9050919050565b7f45786365656420796f75206c696d697420666f72207468652049434f00000000600082015250565b60006126c5601c83611efa565b91506126d08261268f565b602082019050919050565b600060208201905081810360008301526126f4816126b8565b9050919050565b7f49434f2068617320436c6f736564000000000000000000000000000000000000600082015250565b6000612731600e83611efa565b915061273c826126fb565b602082019050919050565b6000602082019050818103600083015261276081612724565b9050919050565b7f4e487b7100000000000000000000000000000000000000000000000000000000600052601260045260246000fd5b60006127a182611e33565b91506127ac83611e33565b9250826127bc576127bb612767565b5b828204905092915050565b60006127d282611e33565b91506127dd83611e33565b9250817fffffffffffffffffffffffffffffffffffffffffffffffffffffffffffffffff0483118215151615612816576128156123da565b5b828202905092915050565b600081905092915050565b50565b600061283c600083612821565b91506128478261282c565b600082019050919050565b600061285d8261282f565b9150819050919050565b600060608201905061287c6000830186612164565b6128896020830185612164565b6128966040830184611e3d565b949350505050565b6128a781611eb9565b81146128b257600080fd5b50565b6000815190506128c48161289e565b92915050565b6000602082840312156128e0576128df611da3565b5b60006128ee848285016128b5565b91505092915050565b7f4661696c65640000000000000000000000000000000000000000000000000000600082015250565b600061292d600683611efa565b9150612938826128f7565b602082019050919050565b6000602082019050818103600083015261295c81612920565b9050919050565b60006040820190506129786000830185611e3d565b6129856020830184611e3d565b9392505050565b7f3020416464726573730000000000000000000000000000000000000000000000600082015250565b60006129c2600983611efa565b91506129cd8261298c565b602082019050919050565b600060208201905081810360008301526129f1816129b5565b9050919050565b600081519050612a0781611faa565b92915050565b600060208284031215612a2357612a22611da3565b5b6000612a31848285016129f8565b91505092915050565b7f5265656e7472616e637947756172643a207265656e7472616e742063616c6c00600082015250565b6000612a70601f83611efa565b9150612a7b82612a3a565b602082019050919050565b60006020820190508181036000830152612a9f81612a63565b905091905056fea2646970667358221220eb2797d1537b70d4f0e86637a2740f7b3bb7cec48beccf43967a411522c576ec64736f6c63430008090033",
  "linkReferences": {},
  "deployedLinkReferences": {}
}